{
  "contractName": "EthDeliverer",
  "abi": [
    {
      "inputs": [],
      "stateMutability": "nonpayable",
      "type": "constructor"
    },
    {
      "anonymous": false,
      "inputs": [
        {
          "indexed": false,
          "internalType": "address",
          "name": "account",
          "type": "address"
        }
      ],
      "name": "Paused",
      "type": "event"
    },
    {
      "anonymous": false,
      "inputs": [
        {
          "indexed": true,
          "internalType": "bytes32",
          "name": "role",
          "type": "bytes32"
        },
        {
          "indexed": true,
          "internalType": "bytes32",
          "name": "previousAdminRole",
          "type": "bytes32"
        },
        {
          "indexed": true,
          "internalType": "bytes32",
          "name": "newAdminRole",
          "type": "bytes32"
        }
      ],
      "name": "RoleAdminChanged",
      "type": "event"
    },
    {
      "anonymous": false,
      "inputs": [
        {
          "indexed": true,
          "internalType": "bytes32",
          "name": "role",
          "type": "bytes32"
        },
        {
          "indexed": true,
          "internalType": "address",
          "name": "account",
          "type": "address"
        },
        {
          "indexed": true,
          "internalType": "address",
          "name": "sender",
          "type": "address"
        }
      ],
      "name": "RoleGranted",
      "type": "event"
    },
    {
      "anonymous": false,
      "inputs": [
        {
          "indexed": true,
          "internalType": "bytes32",
          "name": "role",
          "type": "bytes32"
        },
        {
          "indexed": true,
          "internalType": "address",
          "name": "account",
          "type": "address"
        },
        {
          "indexed": true,
          "internalType": "address",
          "name": "sender",
          "type": "address"
        }
      ],
      "name": "RoleRevoked",
      "type": "event"
    },
    {
      "anonymous": false,
      "inputs": [
        {
          "indexed": false,
          "internalType": "address",
          "name": "account",
          "type": "address"
        }
      ],
      "name": "Unpaused",
      "type": "event"
    },
    {
      "anonymous": false,
      "inputs": [
        {
          "indexed": true,
          "internalType": "address",
          "name": "beneficiary",
          "type": "address"
        },
        {
          "indexed": false,
          "internalType": "uint256",
          "name": "amount",
          "type": "uint256"
        }
      ],
      "name": "installmentSent",
      "type": "event"
    },
    {
      "anonymous": false,
      "inputs": [
        {
          "indexed": true,
          "internalType": "address",
          "name": "requester",
          "type": "address"
        },
        {
          "indexed": false,
          "internalType": "uint256",
          "name": "requestId",
          "type": "uint256"
        },
        {
          "indexed": true,
          "internalType": "address",
          "name": "participant",
          "type": "address"
        }
      ],
      "name": "participantApproved",
      "type": "event"
    },
    {
      "anonymous": false,
      "inputs": [
        {
          "indexed": true,
          "internalType": "address",
          "name": "participant",
          "type": "address"
        },
        {
          "indexed": true,
          "internalType": "uint256",
          "name": "requestId",
          "type": "uint256"
        },
        {
          "indexed": false,
          "internalType": "uint256",
          "name": "proposalId",
          "type": "uint256"
        }
      ],
      "name": "participantProposalAccepted",
      "type": "event"
    },
    {
      "anonymous": false,
      "inputs": [
        {
          "indexed": true,
          "internalType": "address",
          "name": "requester",
          "type": "address"
        },
        {
          "indexed": false,
          "internalType": "uint256",
          "name": "requestId",
          "type": "uint256"
        },
        {
          "indexed": false,
          "internalType": "uint256",
          "name": "amount",
          "type": "uint256"
        }
      ],
      "name": "pendingWithdrawal",
      "type": "event"
    },
    {
      "anonymous": false,
      "inputs": [
        {
          "indexed": true,
          "internalType": "uint256",
          "name": "requestId",
          "type": "uint256"
        },
        {
          "indexed": false,
          "internalType": "uint256",
          "name": "proposalId",
          "type": "uint256"
        }
      ],
      "name": "proposalAccepted",
      "type": "event"
    },
    {
      "anonymous": false,
      "inputs": [
        {
          "indexed": true,
          "internalType": "address",
          "name": "proposer",
          "type": "address"
        },
        {
          "indexed": false,
          "internalType": "uint256",
          "name": "proposalId",
          "type": "uint256"
        },
        {
          "indexed": false,
          "internalType": "uint256",
          "name": "requestId",
          "type": "uint256"
        }
      ],
      "name": "proposalCreated",
      "type": "event"
    },
    {
      "anonymous": false,
      "inputs": [
        {
          "indexed": true,
          "internalType": "address",
          "name": "requester",
          "type": "address"
        },
        {
          "indexed": false,
          "internalType": "uint256",
          "name": "requestId",
          "type": "uint256"
        },
        {
          "indexed": true,
          "internalType": "address",
          "name": "participant",
          "type": "address"
        }
      ],
      "name": "requestApproved",
      "type": "event"
    },
    {
      "anonymous": false,
      "inputs": [
        {
          "indexed": true,
          "internalType": "address",
          "name": "requester",
          "type": "address"
        },
        {
          "indexed": false,
          "internalType": "uint256",
          "name": "requestId",
          "type": "uint256"
        }
      ],
      "name": "requestCreated",
      "type": "event"
    },
    {
      "anonymous": false,
      "inputs": [
        {
          "indexed": true,
          "internalType": "address",
          "name": "requester",
          "type": "address"
        },
        {
          "indexed": false,
          "internalType": "uint256",
          "name": "amount",
          "type": "uint256"
        }
      ],
      "name": "withdrawalSent",
      "type": "event"
    },
    {
      "inputs": [],
      "name": "BLOCKS_PER_MONTH",
      "outputs": [
        {
          "internalType": "uint256",
          "name": "",
          "type": "uint256"
        }
      ],
      "stateMutability": "view",
      "type": "function",
      "constant": true
    },
    {
      "inputs": [],
      "name": "CREATOR_ROLE",
      "outputs": [
        {
          "internalType": "bytes32",
          "name": "",
          "type": "bytes32"
        }
      ],
      "stateMutability": "view",
      "type": "function",
      "constant": true
    },
    {
      "inputs": [],
      "name": "DEFAULT_ADMIN_ROLE",
      "outputs": [
        {
          "internalType": "bytes32",
          "name": "",
          "type": "bytes32"
        }
      ],
      "stateMutability": "view",
      "type": "function",
      "constant": true
    },
    {
      "inputs": [],
      "name": "PARTICIPANT_ROLE",
      "outputs": [
        {
          "internalType": "bytes32",
          "name": "",
          "type": "bytes32"
        }
      ],
      "stateMutability": "view",
      "type": "function",
      "constant": true
    },
    {
      "inputs": [],
      "name": "PAUSER_ROLE",
      "outputs": [
        {
          "internalType": "bytes32",
          "name": "",
          "type": "bytes32"
        }
      ],
      "stateMutability": "view",
      "type": "function",
      "constant": true
    },
    {
      "inputs": [
        {
          "internalType": "uint256",
          "name": "",
          "type": "uint256"
        }
      ],
      "name": "cancelProposals",
      "outputs": [
        {
          "internalType": "uint256",
          "name": "requestId",
          "type": "uint256"
        },
        {
          "internalType": "uint256",
          "name": "numParticipants",
          "type": "uint256"
        },
        {
          "internalType": "uint256",
          "name": "numParticipantsAccepted",
          "type": "uint256"
        },
        {
          "internalType": "bool",
          "name": "isAccepted",
          "type": "bool"
        }
      ],
      "stateMutability": "view",
      "type": "function",
      "constant": true
    },
    {
      "inputs": [],
      "name": "countCancelProposals",
      "outputs": [
        {
          "internalType": "uint256",
          "name": "",
          "type": "uint256"
        }
      ],
      "stateMutability": "view",
      "type": "function",
      "constant": true
    },
    {
      "inputs": [],
      "name": "countPartialTransfers",
      "outputs": [
        {
          "internalType": "uint256",
          "name": "",
          "type": "uint256"
        }
      ],
      "stateMutability": "view",
      "type": "function",
      "constant": true
    },
    {
      "inputs": [],
      "name": "countRequests",
      "outputs": [
        {
          "internalType": "uint256",
          "name": "",
          "type": "uint256"
        }
      ],
      "stateMutability": "view",
      "type": "function",
      "constant": true
    },
    {
      "inputs": [
        {
          "internalType": "bytes32",
          "name": "role",
          "type": "bytes32"
        }
      ],
      "name": "getRoleAdmin",
      "outputs": [
        {
          "internalType": "bytes32",
          "name": "",
          "type": "bytes32"
        }
      ],
      "stateMutability": "view",
      "type": "function",
      "constant": true
    },
    {
      "inputs": [
        {
          "internalType": "bytes32",
          "name": "role",
          "type": "bytes32"
        },
        {
          "internalType": "address",
          "name": "account",
          "type": "address"
        }
      ],
      "name": "grantRole",
      "outputs": [],
      "stateMutability": "nonpayable",
      "type": "function"
    },
    {
      "inputs": [
        {
          "internalType": "bytes32",
          "name": "role",
          "type": "bytes32"
        },
        {
          "internalType": "address",
          "name": "account",
          "type": "address"
        }
      ],
      "name": "hasRole",
      "outputs": [
        {
          "internalType": "bool",
          "name": "",
          "type": "bool"
        }
      ],
      "stateMutability": "view",
      "type": "function",
      "constant": true
    },
    {
      "inputs": [],
      "name": "paused",
      "outputs": [
        {
          "internalType": "bool",
          "name": "",
          "type": "bool"
        }
      ],
      "stateMutability": "view",
      "type": "function",
      "constant": true
    },
    {
      "inputs": [
        {
          "internalType": "address",
          "name": "",
          "type": "address"
        }
      ],
      "name": "pendingWithdrawals",
      "outputs": [
        {
          "internalType": "uint256",
          "name": "",
          "type": "uint256"
        }
      ],
      "stateMutability": "view",
      "type": "function",
      "constant": true
    },
    {
      "inputs": [
        {
          "internalType": "bytes32",
          "name": "role",
          "type": "bytes32"
        },
        {
          "internalType": "address",
          "name": "account",
          "type": "address"
        }
      ],
      "name": "renounceRole",
      "outputs": [],
      "stateMutability": "nonpayable",
      "type": "function"
    },
    {
      "inputs": [
        {
          "internalType": "uint256",
          "name": "",
          "type": "uint256"
        }
      ],
      "name": "requestsDetails",
      "outputs": [
        {
          "internalType": "address payable",
          "name": "requester",
          "type": "address"
        },
        {
          "internalType": "address payable",
          "name": "beneficiary",
          "type": "address"
        },
        {
          "internalType": "uint256",
          "name": "amountToSend",
          "type": "uint256"
        },
        {
          "internalType": "uint256",
          "name": "numInitialBlock",
          "type": "uint256"
        },
        {
          "internalType": "uint256",
          "name": "nextBlockControl",
          "type": "uint256"
        },
        {
          "internalType": "uint256",
          "name": "numPeriods",
          "type": "uint256"
        },
        {
          "internalType": "uint256",
          "name": "numRemainingPeriods",
          "type": "uint256"
        },
        {
          "internalType": "bool",
          "name": "isApproved",
          "type": "bool"
        },
        {
          "internalType": "uint256",
          "name": "numParticipants",
          "type": "uint256"
        }
      ],
      "stateMutability": "view",
      "type": "function",
      "constant": true
    },
    {
      "inputs": [
        {
          "internalType": "bytes32",
          "name": "role",
          "type": "bytes32"
        },
        {
          "internalType": "address",
          "name": "account",
          "type": "address"
        }
      ],
      "name": "revokeRole",
      "outputs": [],
      "stateMutability": "nonpayable",
      "type": "function"
    },
    {
      "inputs": [
        {
          "internalType": "bytes4",
          "name": "interfaceId",
          "type": "bytes4"
        }
      ],
      "name": "supportsInterface",
      "outputs": [
        {
          "internalType": "bool",
          "name": "",
          "type": "bool"
        }
      ],
      "stateMutability": "view",
      "type": "function",
      "constant": true
    },
    {
      "inputs": [],
      "name": "pause",
      "outputs": [],
      "stateMutability": "nonpayable",
      "type": "function"
    },
    {
      "inputs": [],
      "name": "unpause",
      "outputs": [],
      "stateMutability": "nonpayable",
      "type": "function"
    },
    {
      "inputs": [
        {
          "internalType": "uint256",
          "name": "_numMonthsToStart",
          "type": "uint256"
        },
        {
          "internalType": "uint256",
          "name": "_numPeriods",
          "type": "uint256"
        },
        {
          "internalType": "uint256",
          "name": "_numParticipants",
          "type": "uint256"
        },
        {
          "internalType": "address[]",
          "name": "_listParticipants",
          "type": "address[]"
        },
        {
          "internalType": "address payable",
          "name": "_beneficiary",
          "type": "address"
        }
      ],
      "name": "createRequest",
      "outputs": [
        {
          "internalType": "uint256",
          "name": "requestId",
          "type": "uint256"
        }
      ],
      "stateMutability": "payable",
      "type": "function",
      "payable": true
    },
    {
      "inputs": [
        {
          "internalType": "uint256",
          "name": "requestId",
          "type": "uint256"
        }
      ],
      "name": "getParticipantsRequest",
      "outputs": [
        {
          "components": [
            {
              "internalType": "address",
              "name": "participantAddress",
              "type": "address"
            },
            {
              "internalType": "enum EthDeliverer.ParticipantStatus",
              "name": "participantStatus",
              "type": "uint8"
            }
          ],
          "internalType": "struct EthDeliverer.ParticipantDetails[]",
          "name": "listParticipants",
          "type": "tuple[]"
        }
      ],
      "stateMutability": "view",
      "type": "function",
      "constant": true
    },
    {
      "inputs": [
        {
          "internalType": "uint256",
          "name": "requestId",
          "type": "uint256"
        }
      ],
      "name": "approveParticipation",
      "outputs": [
        {
          "internalType": "bool",
          "name": "isParticipantApproved",
          "type": "bool"
        }
      ],
      "stateMutability": "nonpayable",
      "type": "function"
    },
    {
      "inputs": [
        {
          "internalType": "uint256",
          "name": "requestId",
          "type": "uint256"
        }
      ],
      "name": "cancelRequest",
      "outputs": [],
      "stateMutability": "nonpayable",
      "type": "function"
    },
    {
      "inputs": [],
      "name": "withdraw",
      "outputs": [],
      "stateMutability": "payable",
      "type": "function",
      "payable": true
    },
    {
      "inputs": [],
      "name": "amountWithdraw",
      "outputs": [
        {
          "internalType": "uint256",
          "name": "amount",
          "type": "uint256"
        }
      ],
      "stateMutability": "view",
      "type": "function",
      "constant": true
    },
    {
      "inputs": [
        {
          "internalType": "uint256",
          "name": "requestId",
          "type": "uint256"
        }
      ],
      "name": "createCancelProposalRequestApproved",
      "outputs": [
        {
          "internalType": "uint256",
          "name": "proposalId",
          "type": "uint256"
        }
      ],
      "stateMutability": "nonpayable",
      "type": "function"
    },
    {
      "inputs": [
        {
          "internalType": "uint256",
          "name": "proposalId",
          "type": "uint256"
        }
      ],
      "name": "getParticipantsCancelProposal",
      "outputs": [
        {
          "components": [
            {
              "internalType": "address",
              "name": "participantAddress",
              "type": "address"
            },
            {
              "internalType": "enum EthDeliverer.ParticipantStatus",
              "name": "participantStatus",
              "type": "uint8"
            }
          ],
          "internalType": "struct EthDeliverer.ParticipantDetails[]",
          "name": "listParticipants",
          "type": "tuple[]"
        }
      ],
      "stateMutability": "view",
      "type": "function",
      "constant": true
    },
    {
      "inputs": [
        {
          "internalType": "uint256",
          "name": "proposalId",
          "type": "uint256"
        }
      ],
      "name": "approveCancelProposal",
      "outputs": [
        {
          "internalType": "bool",
          "name": "isProposalApproved",
          "type": "bool"
        }
      ],
      "stateMutability": "nonpayable",
      "type": "function"
    },
    {
      "inputs": [],
      "name": "processAutomation",
      "outputs": [],
      "stateMutability": "nonpayable",
      "type": "function"
    }
  ],
  "bytecode": "0x60806040523480156200001157600080fd5b5060008060006101000a81548160ff021916908315150217905550620000416000801b336200008960201b60201c565b620000737f65d7a28e3265b37a6474929f336521b332c1681b933f6cb9f3376673440d862a336200008960201b60201c565b6000600281905550600060038190555062000203565b6200009b82826200009f60201b60201c565b5050565b620000b182826200019060201b60201c565b6200018c57600180600084815260200190815260200160002060000160008373ffffffffffffffffffffffffffffffffffffffff1673ffffffffffffffffffffffffffffffffffffffff16815260200190815260200160002060006101000a81548160ff02191690831515021790555062000131620001fb60201b60201c565b73ffffffffffffffffffffffffffffffffffffffff168173ffffffffffffffffffffffffffffffffffffffff16837f2f8788117e7eff1d82e926ec794901d17c78024a50270940304540a733656f0d60405160405180910390a45b5050565b60006001600084815260200190815260200160002060000160008373ffffffffffffffffffffffffffffffffffffffff1673ffffffffffffffffffffffffffffffffffffffff16815260200190815260200160002060009054906101000a900460ff16905092915050565b600033905090565b6143c080620002136000396000f3fe6080604052600436106101cd5760003560e01c80635c5e2153116100f7578063a217fddf11610095578063e63ab1e911610064578063e63ab1e91461066b578063f3f4370314610696578063f72337ad146106d3578063fc6a1d3114610710576101cd565b8063a217fddf146105c1578063bd1197f7146105ec578063c409084a14610617578063d547741f14610642576101cd565b80636557ac25116100d15780636557ac25146105125780638456cb59146105425780638aeda25a1461055957806391d1485414610584576101cd565b80635c5e2153146104915780635c975abb146104bc5780635f8a7abe146104e7576101cd565b806336568abe1161016f57806340cda5c81161013e57806340cda5c8146103a45780634126f78f146103cf57806342d186e11461040f5780635c1b3eb51461044c576101cd565b806336568abe1461031d578063397e813e146103465780633ccfd60b146103835780633f4ba83a1461038d576101cd565b8063248a9ca3116101ab578063248a9ca3146102515780632e46a09e1461028e5780632f2ff15d146102cb5780633015394c146102f4576101cd565b806301ffc9a7146101d257806307bde3be1461020f57806309eb291714610226575b600080fd5b3480156101de57600080fd5b506101f960048036038101906101f49190613234565b61074d565b6040516102069190613817565b60405180910390f35b34801561021b57600080fd5b506102246107c7565b005b34801561023257600080fd5b5061023b610ae1565b6040516102489190613a6f565b60405180910390f35b34801561025d57600080fd5b50610278600480360381019061027391906131c7565b610b28565b6040516102859190613832565b60405180910390f35b34801561029a57600080fd5b506102b560048036038101906102b09190613261565b610b48565b6040516102c291906137f5565b60405180910390f35b3480156102d757600080fd5b506102f260048036038101906102ed91906131f4565b610c4a565b005b34801561030057600080fd5b5061031b60048036038101906103169190613261565b610c73565b005b34801561032957600080fd5b50610344600480360381019061033f91906131f4565b610e02565b005b34801561035257600080fd5b5061036d60048036038101906103689190613261565b610e85565b60405161037a9190613817565b60405180910390f35b61038b611382565b005b34801561039957600080fd5b506103a261156d565b005b3480156103b057600080fd5b506103b96115aa565b6040516103c69190613a6f565b60405180910390f35b3480156103db57600080fd5b506103f660048036038101906103f19190613261565b6115b0565b6040516104069493929190613ab3565b60405180910390f35b34801561041b57600080fd5b5061043660048036038101906104319190613261565b6115ed565b6040516104439190613a6f565b60405180910390f35b34801561045857600080fd5b50610473600480360381019061046e9190613261565b6119a1565b60405161048899989796959493929190613768565b60405180910390f35b34801561049d57600080fd5b506104a6611a3c565b6040516104b39190613a6f565b60405180910390f35b3480156104c857600080fd5b506104d1611a42565b6040516104de9190613817565b60405180910390f35b3480156104f357600080fd5b506104fc611a58565b6040516105099190613832565b60405180910390f35b61052c6004803603810190610527919061328e565b611a7c565b6040516105399190613a6f565b60405180910390f35b34801561054e57600080fd5b50610557611f48565b005b34801561056557600080fd5b5061056e611f85565b60405161057b9190613832565b60405180910390f35b34801561059057600080fd5b506105ab60048036038101906105a691906131f4565b611fa9565b6040516105b89190613817565b60405180910390f35b3480156105cd57600080fd5b506105d6612014565b6040516105e39190613832565b60405180910390f35b3480156105f857600080fd5b5061060161201b565b60405161060e9190613a6f565b60405180910390f35b34801561062357600080fd5b5061062c612021565b6040516106399190613a6f565b60405180910390f35b34801561064e57600080fd5b50610669600480360381019061066491906131f4565b612028565b005b34801561067757600080fd5b50610680612051565b60405161068d9190613832565b60405180910390f35b3480156106a257600080fd5b506106bd60048036038101906106b8919061319a565b612075565b6040516106ca9190613a6f565b60405180910390f35b3480156106df57600080fd5b506106fa60048036038101906106f59190613261565b61208d565b60405161070791906137f5565b60405180910390f35b34801561071c57600080fd5b5061073760048036038101906107329190613261565b61218f565b6040516107449190613817565b60405180910390f35b60007f7965db0b000000000000000000000000000000000000000000000000000000007bffffffffffffffffffffffffffffffffffffffffffffffffffffffff1916827bffffffffffffffffffffffffffffffffffffffffffffffffffffffff191614806107c057506107bf82612679565b5b9050919050565b6107cf611a42565b1561080f576040517f08c379a00000000000000000000000000000000000000000000000000000000081526004016108069061394f565b60405180910390fd5b60004390506000600190505b6002548111610ad5576000600660008381526020019081526020016000206002015411801561085f5750816006600083815260200190815260200160002060040154115b15610ac2576004600081548092919061087790613e01565b91905055506001600660008381526020019081526020016000206006015414156108e25760066000828152602001908152602001600020600201546005600454815481106108c8576108c7613f06565b5b906000526020600020906002020160000181905550610946565b6006600082815260200190815260200160002060060154600660008381526020019081526020016000206002015461091a9190613bff565b6005600454815481106109305761092f613f06565b5b9060005260206000209060020201600001819055505b6006600082815260200190815260200160002060010160009054906101000a900473ffffffffffffffffffffffffffffffffffffffff1660056004548154811061099357610992613f06565b5b906000526020600020906002020160010160006101000a81548173ffffffffffffffffffffffffffffffffffffffff021916908373ffffffffffffffffffffffffffffffffffffffff1602179055506005600454815481106109f8576109f7613f06565b5b9060005260206000209060020201600001546006600083815260200190815260200160002060020154610a2b9190613c8a565b600660008381526020019081526020016000206002018190555060016006600083815260200190815260200160002060060154610a689190613c8a565b60066000838152602001908152602001600020600601819055506202ee006006600083815260200190815260200160002060040154610aa79190613ba9565b60066000838152602001908152602001600020600401819055505b8080610acd90613e01565b91505061081b565b50610ade6126e3565b50565b6000600860003373ffffffffffffffffffffffffffffffffffffffff1673ffffffffffffffffffffffffffffffffffffffff16815260200190815260200160002054905090565b600060016000838152602001908152602001600020600101549050919050565b606060066000838152602001908152602001600020600901805480602002602001604051908101604052809291908181526020016000905b82821015610c3f578382906000526020600020016040518060400160405290816000820160009054906101000a900473ffffffffffffffffffffffffffffffffffffffff1673ffffffffffffffffffffffffffffffffffffffff1673ffffffffffffffffffffffffffffffffffffffff1681526020016000820160149054906101000a900460ff166003811115610c1a57610c19613ed7565b5b6003811115610c2c57610c2b613ed7565b5b8152505081526020019060010190610b80565b505050509050919050565b610c5382610b28565b610c6481610c5f612952565b61295a565b610c6e83836129f7565b505050565b610c7b611a42565b15610cbb576040517f08c379a0000000000000000000000000000000000000000000000000000000008152600401610cb29061394f565b60405180910390fd5b7f828634d95e775031b9ff576b159a8509d3053581a8c9c4d7d86899e0afcd882f610ced81610ce8612952565b61295a565b6006600083815260200190815260200160002060070160009054906101000a900460ff1615610d51576040517f08c379a0000000000000000000000000000000000000000000000000000000008152600401610d489061396f565b60405180910390fd5b3373ffffffffffffffffffffffffffffffffffffffff166006600084815260200190815260200160002060000160009054906101000a900473ffffffffffffffffffffffffffffffffffffffff1673ffffffffffffffffffffffffffffffffffffffff1614610df5576040517f08c379a0000000000000000000000000000000000000000000000000000000008152600401610dec9061398f565b60405180910390fd5b610dfe82612ad7565b5050565b610e0a612952565b73ffffffffffffffffffffffffffffffffffffffff168173ffffffffffffffffffffffffffffffffffffffff1614610e77576040517f08c379a0000000000000000000000000000000000000000000000000000000008152600401610e6e90613a4f565b60405180910390fd5b610e818282612c24565b5050565b6000610e8f611a42565b15610ecf576040517f08c379a0000000000000000000000000000000000000000000000000000000008152600401610ec69061394f565b60405180910390fd5b7f938c45fe3baa5cbd047f2473358a27f57db22291e9af95379a15ad016886dfb7610f0181610efc612952565b61295a565b6000600660008581526020019081526020016000206002015411610f5a576040517f08c379a0000000000000000000000000000000000000000000000000000000008152600401610f51906138af565b60405180910390fd5b6006600084815260200190815260200160002060070160009054906101000a900460ff1615610fbe576040517f08c379a0000000000000000000000000000000000000000000000000000000008152600401610fb59061392f565b60405180910390fd5b6000805b600660008681526020019081526020016000206008015481101561126a573373ffffffffffffffffffffffffffffffffffffffff1660066000878152602001908152602001600020600901828154811061101f5761101e613f06565b5b9060005260206000200160000160009054906101000a900473ffffffffffffffffffffffffffffffffffffffff1673ffffffffffffffffffffffffffffffffffffffff161480156110d657506001600381111561107f5761107e613ed7565b5b6006600087815260200190815260200160002060090182815481106110a7576110a6613f06565b5b9060005260206000200160000160149054906101000a900460ff1660038111156110d4576110d3613ed7565b5b145b156111d957600260066000878152602001908152602001600020600901828154811061110557611104613f06565b5b9060005260206000200160000160146101000a81548160ff0219169083600381111561113457611133613ed7565b5b0217905550600193503373ffffffffffffffffffffffffffffffffffffffff166006600087815260200190815260200160002060000160009054906101000a900473ffffffffffffffffffffffffffffffffffffffff1673ffffffffffffffffffffffffffffffffffffffff167fc6efb5caca780cf5eb5064a0283d47509ea038ded04276fe0c39f1f893a78370876040516111d09190613a6f565b60405180910390a35b600260038111156111ed576111ec613ed7565b5b60066000878152602001908152602001600020600901828154811061121557611214613f06565b5b9060005260206000200160000160149054906101000a900460ff16600381111561124257611241613ed7565b5b141561125757818061125390613e01565b9250505b808061126290613e01565b915050610fc2565b5060066000858152602001908152602001600020600801548114156113545760016006600086815260200190815260200160002060070160006101000a81548160ff0219169083151502179055503373ffffffffffffffffffffffffffffffffffffffff166006600086815260200190815260200160002060000160009054906101000a900473ffffffffffffffffffffffffffffffffffffffff1673ffffffffffffffffffffffffffffffffffffffff167f7bb98f4bb1d3ffd920bafc10601478e142956bdf31dcfd0b7949096b7b00785f8660405161134b9190613a6f565b60405180910390a35b600660008581526020019081526020016000206008015481111561137b5761137a613e4a565b5b5050919050565b61138a611a42565b156113ca576040517f08c379a00000000000000000000000000000000000000000000000000000000081526004016113c19061394f565b60405180910390fd5b6000600860003373ffffffffffffffffffffffffffffffffffffffff1673ffffffffffffffffffffffffffffffffffffffff168152602001908152602001600020541161144c576040517f08c379a00000000000000000000000000000000000000000000000000000000081526004016114439061390f565b60405180910390fd5b6000600860003373ffffffffffffffffffffffffffffffffffffffff1673ffffffffffffffffffffffffffffffffffffffff1681526020019081526020016000205490506000600860003373ffffffffffffffffffffffffffffffffffffffff1673ffffffffffffffffffffffffffffffffffffffff168152602001908152602001600020819055503373ffffffffffffffffffffffffffffffffffffffff166108fc829081150290604051600060405180830381858888f1935050505015801561151b573d6000803e3d6000fd5b503373ffffffffffffffffffffffffffffffffffffffff167f5df299bce8b20381d135c721bf8546d2fffedade9f6457de2d77e3cc51481f1c826040516115629190613a6f565b60405180910390a250565b7f65d7a28e3265b37a6474929f336521b332c1681b933f6cb9f3376673440d862a61159f8161159a612952565b61295a565b6115a7612d06565b50565b60045481565b60076020528060005260406000206000915090508060000154908060010154908060020154908060040160009054906101000a900460ff16905084565b60006115f7611a42565b15611637576040517f08c379a000000000000000000000000000000000000000000000000000000000815260040161162e9061394f565b60405180910390fd5b7f828634d95e775031b9ff576b159a8509d3053581a8c9c4d7d86899e0afcd882f61166981611664612952565b61295a565b6006600084815260200190815260200160002060070160009054906101000a900460ff166116cc576040517f08c379a00000000000000000000000000000000000000000000000000000000081526004016116c3906139af565b60405180910390fd5b3373ffffffffffffffffffffffffffffffffffffffff166006600085815260200190815260200160002060000160009054906101000a900473ffffffffffffffffffffffffffffffffffffffff1673ffffffffffffffffffffffffffffffffffffffff1614611770576040517f08c379a00000000000000000000000000000000000000000000000000000000081526004016117679061398f565b60405180910390fd5b6003600081548092919061178390613e01565b919050555060035491506000600760008481526020019081526020016000209050838160000181905550600660008581526020019081526020016000206008015481600101819055506000816002018190555060008160040160006101000a81548160ff02191690831515021790555060005b6006600086815260200190815260200160002060080154811015611949578160030160018160018154018082558091505003906000526020600020505060066000868152602001908152602001600020600901818154811061185b5761185a613f06565b5b9060005260206000200160000160009054906101000a900473ffffffffffffffffffffffffffffffffffffffff1682600301828154811061189f5761189e613f06565b5b9060005260206000200160000160006101000a81548173ffffffffffffffffffffffffffffffffffffffff021916908373ffffffffffffffffffffffffffffffffffffffff160217905550600182600301828154811061190257611901613f06565b5b9060005260206000200160000160146101000a81548160ff0219169083600381111561193157611930613ed7565b5b0217905550808061194190613e01565b9150506117f6565b503373ffffffffffffffffffffffffffffffffffffffff167f05a01e2adff49fd04bb3b1b5663b4e6fbfec68003c1d5cf46380ee88450dd0218486604051611992929190613a8a565b60405180910390a25050919050565b60066020528060005260406000206000915090508060000160009054906101000a900473ffffffffffffffffffffffffffffffffffffffff16908060010160009054906101000a900473ffffffffffffffffffffffffffffffffffffffff16908060020154908060030154908060040154908060050154908060060154908060070160009054906101000a900460ff16908060080154905089565b60025481565b60008060009054906101000a900460ff16905090565b7f938c45fe3baa5cbd047f2473358a27f57db22291e9af95379a15ad016886dfb781565b6000611a86611a42565b15611ac6576040517f08c379a0000000000000000000000000000000000000000000000000000000008152600401611abd9061394f565b60405180910390fd5b60003411611b09576040517f08c379a0000000000000000000000000000000000000000000000000000000008152600401611b00906139ef565b60405180910390fd5b600086118015611b195750600085115b611b58576040517f08c379a0000000000000000000000000000000000000000000000000000000008152600401611b4f906138ef565b60405180910390fd5b60028410158015611b6a5750600a8411155b611ba9576040517f08c379a0000000000000000000000000000000000000000000000000000000008152600401611ba0906138cf565b60405180910390fd5b60005b84811015611c5157600073ffffffffffffffffffffffffffffffffffffffff16848281518110611bdf57611bde613f06565b5b602002602001015173ffffffffffffffffffffffffffffffffffffffff161415611c3e576040517f08c379a0000000000000000000000000000000000000000000000000000000008152600401611c35906139cf565b60405180910390fd5b8080611c4990613e01565b915050611bac565b5060026000815480929190611c6590613e01565b919050555060025490506000600660008381526020019081526020016000209050338160000160006101000a81548173ffffffffffffffffffffffffffffffffffffffff021916908373ffffffffffffffffffffffffffffffffffffffff1602179055503481600201819055506202ee0087611ce19190613c30565b43611cec9190613ba9565b81600301819055508060030154816004018190555085816005018190555085816006018190555060008160070160006101000a81548160ff021916908315150217905550848160080181905550828160010160006101000a81548173ffffffffffffffffffffffffffffffffffffffff021916908373ffffffffffffffffffffffffffffffffffffffff16021790555060005b85811015611ec55781600901600181600181540180825580915050039060005260206000205050848181518110611db957611db8613f06565b5b6020026020010151826009018281548110611dd757611dd6613f06565b5b9060005260206000200160000160006101000a81548173ffffffffffffffffffffffffffffffffffffffff021916908373ffffffffffffffffffffffffffffffffffffffff1602179055506001826009018281548110611e3a57611e39613f06565b5b9060005260206000200160000160146101000a81548160ff02191690836003811115611e6957611e68613ed7565b5b0217905550611eb27f938c45fe3baa5cbd047f2473358a27f57db22291e9af95379a15ad016886dfb7868381518110611ea557611ea4613f06565b5b6020026020010151612da7565b8080611ebd90613e01565b915050611d7f565b50611ef07f828634d95e775031b9ff576b159a8509d3053581a8c9c4d7d86899e0afcd882f33612da7565b3373ffffffffffffffffffffffffffffffffffffffff167f11b0f480a9c351afbc41dbf1ac013de1b2c1c02a4191874b5d15b7843701aea683604051611f369190613a6f565b60405180910390a25095945050505050565b7f65d7a28e3265b37a6474929f336521b332c1681b933f6cb9f3376673440d862a611f7a81611f75612952565b61295a565b611f82612db5565b50565b7f828634d95e775031b9ff576b159a8509d3053581a8c9c4d7d86899e0afcd882f81565b60006001600084815260200190815260200160002060000160008373ffffffffffffffffffffffffffffffffffffffff1673ffffffffffffffffffffffffffffffffffffffff16815260200190815260200160002060009054906101000a900460ff16905092915050565b6000801b81565b60035481565b6202ee0081565b61203182610b28565b6120428161203d612952565b61295a565b61204c8383612c24565b505050565b7f65d7a28e3265b37a6474929f336521b332c1681b933f6cb9f3376673440d862a81565b60086020528060005260406000206000915090505481565b606060076000838152602001908152602001600020600301805480602002602001604051908101604052809291908181526020016000905b82821015612184578382906000526020600020016040518060400160405290816000820160009054906101000a900473ffffffffffffffffffffffffffffffffffffffff1673ffffffffffffffffffffffffffffffffffffffff1673ffffffffffffffffffffffffffffffffffffffff1681526020016000820160149054906101000a900460ff16600381111561215f5761215e613ed7565b5b600381111561217157612170613ed7565b5b81525050815260200190600101906120c5565b505050509050919050565b6000612199611a42565b156121d9576040517f08c379a00000000000000000000000000000000000000000000000000000000081526004016121d09061394f565b60405180910390fd5b7f938c45fe3baa5cbd047f2473358a27f57db22291e9af95379a15ad016886dfb761220b81612206612952565b61295a565b6000600760008581526020019081526020016000206001015411612264576040517f08c379a000000000000000000000000000000000000000000000000000000000815260040161225b90613a0f565b60405180910390fd5b6007600084815260200190815260200160002060040160009054906101000a900460ff16156122c8576040517f08c379a00000000000000000000000000000000000000000000000000000000081526004016122bf90613a2f565b60405180910390fd5b6000805b600760008681526020019081526020016000206001015481101561253e573373ffffffffffffffffffffffffffffffffffffffff1660076000878152602001908152602001600020600301828154811061232957612328613f06565b5b9060005260206000200160000160009054906101000a900473ffffffffffffffffffffffffffffffffffffffff1673ffffffffffffffffffffffffffffffffffffffff161480156123e057506001600381111561238957612388613ed7565b5b6007600087815260200190815260200160002060030182815481106123b1576123b0613f06565b5b9060005260206000200160000160149054906101000a900460ff1660038111156123de576123dd613ed7565b5b145b156124ad57600260076000878152602001908152602001600020600301828154811061240f5761240e613f06565b5b9060005260206000200160000160146101000a81548160ff0219169083600381111561243e5761243d613ed7565b5b02179055506001935060076000868152602001908152602001600020600001543373ffffffffffffffffffffffffffffffffffffffff167ff4db4a6db849d33dce31520731c0d45d564dd4c9b3b229f6ad98c38bca4df50b876040516124a49190613a6f565b60405180910390a35b600260038111156124c1576124c0613ed7565b5b6007600087815260200190815260200160002060030182815481106124e9576124e8613f06565b5b9060005260206000200160000160149054906101000a900460ff16600381111561251657612515613ed7565b5b141561252b57818061252790613e01565b9250505b808061253690613e01565b9150506122cc565b5080600760008681526020019081526020016000206002018190555060006001600760008781526020019081526020016000206001015461257f9190613ba9565b606460018461258e9190613ba9565b6125989190613c30565b6125a29190613bff565b9050603381111561262b5760016007600087815260200190815260200160002060040160006101000a81548160ff02191690831515021790555060076000868152602001908152602001600020600001547fc42e0ad09cebfe463c535cc49c0f56c31a36ecbbdf57f9f540479ca592e0ff2e866040516126229190613a6f565b60405180910390a25b600760008681526020019081526020016000206001015482111561265257612651613e4a565b5b6126716007600087815260200190815260200160002060000154612ad7565b505050919050565b60007f01ffc9a7000000000000000000000000000000000000000000000000000000007bffffffffffffffffffffffffffffffffffffffffffffffffffffffff1916827bffffffffffffffffffffffffffffffffffffffffffffffffffffffff1916149050919050565b600080600080600080600190505b60045481116128fb576000600582815481106127105761270f613f06565b5b90600052602060002090600202016000015411156128e8576005818154811061273c5761273b613f06565b5b90600052602060002090600202016000015493506005818154811061276457612763613f06565b5b906000526020600020906002020160010160009054906101000a900473ffffffffffffffffffffffffffffffffffffffff1692506064846127a59190613bff565b955085846127b39190613c8a565b935085856127c19190613ba9565b94506000600582815481106127d9576127d8613f06565b5b906000526020600020906002020160000181905550816005828154811061280357612802613f06565b5b906000526020600020906002020160010160006101000a81548173ffffffffffffffffffffffffffffffffffffffff021916908373ffffffffffffffffffffffffffffffffffffffff1602179055508273ffffffffffffffffffffffffffffffffffffffff166108fc859081150290604051600060405180830381858888f19350505050158015612898573d6000803e3d6000fd5b508273ffffffffffffffffffffffffffffffffffffffff167fd44d0a8152caef0fd63878c2c127c887569bbfbe0330cebb69e61cc0d4f0dee1856040516128df9190613a6f565b60405180910390a25b80806128f390613e01565b9150506126f1565b5060006004819055503373ffffffffffffffffffffffffffffffffffffffff166108fc859081150290604051600060405180830381858888f1935050505015801561294a573d6000803e3d6000fd5b505050505050565b600033905090565b6129648282611fa9565b6129f3576129898173ffffffffffffffffffffffffffffffffffffffff166014612e57565b6129978360001c6020612e57565b6040516020016129a8929190613713565b6040516020818303038152906040526040517f08c379a00000000000000000000000000000000000000000000000000000000081526004016129ea919061384d565b60405180910390fd5b5050565b612a018282611fa9565b612ad357600180600084815260200190815260200160002060000160008373ffffffffffffffffffffffffffffffffffffffff1673ffffffffffffffffffffffffffffffffffffffff16815260200190815260200160002060006101000a81548160ff021916908315150217905550612a78612952565b73ffffffffffffffffffffffffffffffffffffffff168173ffffffffffffffffffffffffffffffffffffffff16837f2f8788117e7eff1d82e926ec794901d17c78024a50270940304540a733656f0d60405160405180910390a45b5050565b6000600660008381526020019081526020016000206002015490506000600660008481526020019081526020016000206002018190555080600860006006600086815260200190815260200160002060000160009054906101000a900473ffffffffffffffffffffffffffffffffffffffff1673ffffffffffffffffffffffffffffffffffffffff1673ffffffffffffffffffffffffffffffffffffffff1681526020019081526020016000206000828254612b939190613ba9565b925050819055506006600083815260200190815260200160002060000160009054906101000a900473ffffffffffffffffffffffffffffffffffffffff1673ffffffffffffffffffffffffffffffffffffffff167f2b9404a9e57ab83c3b7d7e391bb91444736d3eccc00bd4e47683236484c37cbc8383604051612c18929190613a8a565b60405180910390a25050565b612c2e8282611fa9565b15612d025760006001600084815260200190815260200160002060000160008373ffffffffffffffffffffffffffffffffffffffff1673ffffffffffffffffffffffffffffffffffffffff16815260200190815260200160002060006101000a81548160ff021916908315150217905550612ca7612952565b73ffffffffffffffffffffffffffffffffffffffff168173ffffffffffffffffffffffffffffffffffffffff16837ff6391f5c32d9c69d2a47ea670b442974b53935d1edc7fd64eb21e047a839171b60405160405180910390a45b5050565b612d0e611a42565b612d4d576040517f08c379a0000000000000000000000000000000000000000000000000000000008152600401612d449061388f565b60405180910390fd5b60008060006101000a81548160ff0219169083151502179055507f5db9ee0a495bf2e6ff9c91a7834c1ba4fdd244a5e8aa4e537bd38aeae4b073aa612d90612952565b604051612d9d919061374d565b60405180910390a1565b612db182826129f7565b5050565b612dbd611a42565b15612dfd576040517f08c379a0000000000000000000000000000000000000000000000000000000008152600401612df49061394f565b60405180910390fd5b60016000806101000a81548160ff0219169083151502179055507f62e78cea01bee320cd4e420270b5ea74000d11b0c9f74754ebdbfc544b05a258612e40612952565b604051612e4d919061374d565b60405180910390a1565b606060006002836002612e6a9190613c30565b612e749190613ba9565b67ffffffffffffffff811115612e8d57612e8c613f35565b5b6040519080825280601f01601f191660200182016040528015612ebf5781602001600182028036833780820191505090505b5090507f300000000000000000000000000000000000000000000000000000000000000081600081518110612ef757612ef6613f06565b5b60200101907effffffffffffffffffffffffffffffffffffffffffffffffffffffffffffff1916908160001a9053507f780000000000000000000000000000000000000000000000000000000000000081600181518110612f5b57612f5a613f06565b5b60200101907effffffffffffffffffffffffffffffffffffffffffffffffffffffffffffff1916908160001a90535060006001846002612f9b9190613c30565b612fa59190613ba9565b90505b6001811115613045577f3031323334353637383961626364656600000000000000000000000000000000600f861660108110612fe757612fe6613f06565b5b1a60f81b828281518110612ffe57612ffd613f06565b5b60200101907effffffffffffffffffffffffffffffffffffffffffffffffffffffffffffff1916908160001a905350600485901c94508061303e90613da6565b9050612fa8565b5060008414613089576040517f08c379a00000000000000000000000000000000000000000000000000000000081526004016130809061386f565b60405180910390fd5b8091505092915050565b60006130a66130a184613b1d565b613af8565b905080838252602082019050828560208602820111156130c9576130c8613f69565b5b60005b858110156130f957816130df8882613103565b8452602084019350602083019250506001810190506130cc565b5050509392505050565b60008135905061311281614317565b92915050565b6000813590506131278161432e565b92915050565b600082601f83011261314257613141613f64565b5b8135613152848260208601613093565b91505092915050565b60008135905061316a81614345565b92915050565b60008135905061317f8161435c565b92915050565b60008135905061319481614373565b92915050565b6000602082840312156131b0576131af613f73565b5b60006131be84828501613103565b91505092915050565b6000602082840312156131dd576131dc613f73565b5b60006131eb8482850161315b565b91505092915050565b6000806040838503121561320b5761320a613f73565b5b60006132198582860161315b565b925050602061322a85828601613103565b9150509250929050565b60006020828403121561324a57613249613f73565b5b600061325884828501613170565b91505092915050565b60006020828403121561327757613276613f73565b5b600061328584828501613185565b91505092915050565b600080600080600060a086880312156132aa576132a9613f73565b5b60006132b888828901613185565b95505060206132c988828901613185565b94505060406132da88828901613185565b935050606086013567ffffffffffffffff8111156132fb576132fa613f6e565b5b6133078882890161312d565b925050608061331888828901613118565b9150509295509295909350565b600061333183836136d5565b60408301905092915050565b61334681613cd0565b82525050565b61335581613cbe565b82525050565b61336481613cbe565b82525050565b600061337582613b59565b61337f8185613b7c565b935061338a83613b49565b8060005b838110156133bb5781516133a28882613325565b97506133ad83613b6f565b92505060018101905061338e565b5085935050505092915050565b6133d181613ce2565b82525050565b6133e081613cee565b82525050565b6133ef81613d61565b82525050565b600061340082613b64565b61340a8185613b8d565b935061341a818560208601613d73565b61342381613f78565b840191505092915050565b600061343982613b64565b6134438185613b9e565b9350613453818560208601613d73565b80840191505092915050565b600061346c602083613b8d565b915061347782613f89565b602082019050919050565b600061348f601483613b8d565b915061349a82613fb2565b602082019050919050565b60006134b2601483613b8d565b91506134bd82613fdb565b602082019050919050565b60006134d5601b83613b8d565b91506134e082614004565b602082019050919050565b60006134f8600f83613b8d565b91506135038261402d565b602082019050919050565b600061351b601983613b8d565b915061352682614056565b602082019050919050565b600061353e601b83613b8d565b91506135498261407f565b602082019050919050565b6000613561601083613b8d565b915061356c826140a8565b602082019050919050565b6000613584603483613b8d565b915061358f826140d1565b604082019050919050565b60006135a7602583613b8d565b91506135b282614120565b604082019050919050565b60006135ca601883613b8d565b91506135d58261416f565b602082019050919050565b60006135ed600d83613b8d565b91506135f882614198565b602082019050919050565b6000613610602a83613b8d565b915061361b826141c1565b604082019050919050565b6000613633601583613b8d565b915061363e82614210565b602082019050919050565b6000613656601c83613b8d565b915061366182614239565b602082019050919050565b6000613679601783613b9e565b915061368482614262565b601782019050919050565b600061369c601183613b9e565b91506136a78261428b565b601182019050919050565b60006136bf602f83613b8d565b91506136ca826142b4565b604082019050919050565b6040820160008201516136eb600085018261334c565b5060208201516136fe60208501826133e6565b50505050565b61370d81613d57565b82525050565b600061371e8261366c565b915061372a828561342e565b91506137358261368f565b9150613741828461342e565b91508190509392505050565b6000602082019050613762600083018461335b565b92915050565b60006101208201905061377e600083018c61333d565b61378b602083018b61333d565b613798604083018a613704565b6137a56060830189613704565b6137b26080830188613704565b6137bf60a0830187613704565b6137cc60c0830186613704565b6137d960e08301856133c8565b6137e7610100830184613704565b9a9950505050505050505050565b6000602082019050818103600083015261380f818461336a565b905092915050565b600060208201905061382c60008301846133c8565b92915050565b600060208201905061384760008301846133d7565b92915050565b6000602082019050818103600083015261386781846133f5565b905092915050565b600060208201905081810360008301526138888161345f565b9050919050565b600060208201905081810360008301526138a881613482565b9050919050565b600060208201905081810360008301526138c8816134a5565b9050919050565b600060208201905081810360008301526138e8816134c8565b9050919050565b60006020820190508181036000830152613908816134eb565b9050919050565b600060208201905081810360008301526139288161350e565b9050919050565b6000602082019050818103600083015261394881613531565b9050919050565b6000602082019050818103600083015261396881613554565b9050919050565b6000602082019050818103600083015261398881613577565b9050919050565b600060208201905081810360008301526139a88161359a565b9050919050565b600060208201905081810360008301526139c8816135bd565b9050919050565b600060208201905081810360008301526139e8816135e0565b9050919050565b60006020820190508181036000830152613a0881613603565b9050919050565b60006020820190508181036000830152613a2881613626565b9050919050565b60006020820190508181036000830152613a4881613649565b9050919050565b60006020820190508181036000830152613a68816136b2565b9050919050565b6000602082019050613a846000830184613704565b92915050565b6000604082019050613a9f6000830185613704565b613aac6020830184613704565b9392505050565b6000608082019050613ac86000830187613704565b613ad56020830186613704565b613ae26040830185613704565b613aef60608301846133c8565b95945050505050565b6000613b02613b13565b9050613b0e8282613dd0565b919050565b6000604051905090565b600067ffffffffffffffff821115613b3857613b37613f35565b5b602082029050602081019050919050565b6000819050602082019050919050565b600081519050919050565b600081519050919050565b6000602082019050919050565b600082825260208201905092915050565b600082825260208201905092915050565b600081905092915050565b6000613bb482613d57565b9150613bbf83613d57565b9250827fffffffffffffffffffffffffffffffffffffffffffffffffffffffffffffffff03821115613bf457613bf3613e79565b5b828201905092915050565b6000613c0a82613d57565b9150613c1583613d57565b925082613c2557613c24613ea8565b5b828204905092915050565b6000613c3b82613d57565b9150613c4683613d57565b9250817fffffffffffffffffffffffffffffffffffffffffffffffffffffffffffffffff0483118215151615613c7f57613c7e613e79565b5b828202905092915050565b6000613c9582613d57565b9150613ca083613d57565b925082821015613cb357613cb2613e79565b5b828203905092915050565b6000613cc982613d37565b9050919050565b6000613cdb82613d37565b9050919050565b60008115159050919050565b6000819050919050565b60007fffffffff0000000000000000000000000000000000000000000000000000000082169050919050565b6000819050613d3282614303565b919050565b600073ffffffffffffffffffffffffffffffffffffffff82169050919050565b6000819050919050565b6000613d6c82613d24565b9050919050565b60005b83811015613d91578082015181840152602081019050613d76565b83811115613da0576000848401525b50505050565b6000613db182613d57565b91506000821415613dc557613dc4613e79565b5b600182039050919050565b613dd982613f78565b810181811067ffffffffffffffff82111715613df857613df7613f35565b5b80604052505050565b6000613e0c82613d57565b91507fffffffffffffffffffffffffffffffffffffffffffffffffffffffffffffffff821415613e3f57613e3e613e79565b5b600182019050919050565b7f4e487b7100000000000000000000000000000000000000000000000000000000600052600160045260246000fd5b7f4e487b7100000000000000000000000000000000000000000000000000000000600052601160045260246000fd5b7f4e487b7100000000000000000000000000000000000000000000000000000000600052601260045260246000fd5b7f4e487b7100000000000000000000000000000000000000000000000000000000600052602160045260246000fd5b7f4e487b7100000000000000000000000000000000000000000000000000000000600052603260045260246000fd5b7f4e487b7100000000000000000000000000000000000000000000000000000000600052604160045260246000fd5b600080fd5b600080fd5b600080fd5b600080fd5b6000601f19601f8301169050919050565b7f537472696e67733a20686578206c656e67746820696e73756666696369656e74600082015250565b7f5061757361626c653a206e6f7420706175736564000000000000000000000000600082015250565b7f52657175657374204944206e6f742076616c6964000000000000000000000000600082015250565b7f496e76616c6964207061727469636970616e7473206e756d6265720000000000600082015250565b7f44657461696c73206d697373696e670000000000000000000000000000000000600082015250565b7f4e6f20616d6f756e7420746f2062652077697468647261776e00000000000000600082015250565b7f5265717565737420697320616c726561647920617070726f7665640000000000600082015250565b7f5061757361626c653a2070617573656400000000000000000000000000000000600082015250565b7f5265717565737420697320616c726561647920415050524f5645442e2043726560008201527f6174652063616e63656c2070726f706f73616c2e000000000000000000000000602082015250565b7f4f6e6c792063616e2062652063616e63656c656420627920746865207265717560008201527f6573746572000000000000000000000000000000000000000000000000000000602082015250565b7f52657175657374206973206e6f7420617070726f7665642e0000000000000000600082015250565b7f456d707479206164647265737300000000000000000000000000000000000000600082015250565b7f457468657220616d6f756e74206d75737420746f20626520677265617465722060008201527f7468616e207a65726f2e00000000000000000000000000000000000000000000602082015250565b7f50726f706f73616c204944206e6f742076616c69640000000000000000000000600082015250565b7f50726f706f73616c20697320616c726561647920617070726f76656400000000600082015250565b7f416363657373436f6e74726f6c3a206163636f756e7420000000000000000000600082015250565b7f206973206d697373696e6720726f6c6520000000000000000000000000000000600082015250565b7f416363657373436f6e74726f6c3a2063616e206f6e6c792072656e6f756e636560008201527f20726f6c657320666f722073656c660000000000000000000000000000000000602082015250565b6004811061431457614313613ed7565b5b50565b61432081613cbe565b811461432b57600080fd5b50565b61433781613cd0565b811461434257600080fd5b50565b61434e81613cee565b811461435957600080fd5b50565b61436581613cf8565b811461437057600080fd5b50565b61437c81613d57565b811461438757600080fd5b5056fea2646970667358221220bfb119b1bac54d539971dfa29be8d39e709af8a4a3916705d52a02092ce3ad0f64736f6c63430008050033",
  "immutableReferences": {},
  "source": "// SPDX-License-Identifier: MIT\npragma solidity >=0.8.5 <0.9.0;\n\nimport \"@openzeppelin/contracts/security/Pausable.sol\";\nimport \"@openzeppelin/contracts/access/AccessControl.sol\";\n\n/**\n * @title EthDeliverer\n * @dev Given an amount of ethers deposited in this contract, it will be sent in parts to a given address automatically.\n * It will be necessary the participation of between two and ten additional addresses so that they will be in charge of authorize any change proposal\n * related to the initially established distribution.\n */\ncontract EthDeliverer is Pausable, AccessControl {\n\n    /* Roles definition */\n    bytes32 public constant PAUSER_ROLE = keccak256(\"PAUSER_ROLE\");\n    bytes32 public constant CREATOR_ROLE = keccak256(\"CREATOR_ROLE\");\n    bytes32 public constant PARTICIPANT_ROLE = keccak256(\"PARTICIPANT_ROLE\");\n\n    uint public constant BLOCKS_PER_MONTH = 192000;\n\n    /**\n     *  Partial transfers will be sent weekly\n     **/\n    enum ParticipantStatus{\n        NOT_USED,\n        PENDING,\n        APPROVED,\n        ACTIVE\n    }\n\n    struct ParticipantDetails {\n        address participantAddress;\n        ParticipantStatus participantStatus;\n    }\n\n    struct Request {\n        address payable requester;\n        address payable beneficiary;\n        uint amountToSend;\n        uint numInitialBlock;\n        uint nextBlockControl;\n        uint numPeriods;\n        uint numRemainingPeriods;\n        bool isApproved;\n        uint numParticipants;\n        ParticipantDetails[] participants;\n    }\n\n    struct CancelProposal {\n        uint requestId;\n        uint numParticipants;\n        uint numParticipantsAccepted;\n        ParticipantDetails[] participants;\n        bool isAccepted;\n    }\n\n    struct PartialTransfer {\n      uint partAmount;\n      address payable partBeneficiary;\n    }\n\n    uint public countRequests;\n    uint public countCancelProposals;\n    uint public countPartialTransfers;\n\n    PartialTransfer[] partialTransfers;\n\n    mapping (uint => Request) public requestsDetails;\n    mapping (uint => CancelProposal) public cancelProposals;\n    mapping (address => uint) public pendingWithdrawals;\n\n    event requestCreated(address indexed requester, uint requestId);\n    event participantApproved(address indexed requester, uint requestId, address indexed participant);\n    event requestApproved(address indexed requester, uint requestId, address indexed participant);\n    event pendingWithdrawal(address indexed requester, uint requestId, uint amount);\n    event withdrawalSent(address indexed requester, uint amount);\n    event proposalCreated(address indexed proposer, uint proposalId, uint requestId);\n    event participantProposalAccepted(address indexed participant, uint indexed requestId, uint proposalId);\n    event proposalAccepted(uint indexed requestId, uint proposalId);\n    event installmentSent(address indexed beneficiary, uint amount);\n\n    constructor() {\n        _setupRole(DEFAULT_ADMIN_ROLE, msg.sender);\n        _setupRole(PAUSER_ROLE, msg.sender);\n        countRequests = 0;\n        countCancelProposals = 0;\n    }\n\n    function pause() public onlyRole(PAUSER_ROLE) {\n        _pause();\n    }\n\n    function unpause() public onlyRole(PAUSER_ROLE) {\n        _unpause();\n    }\n\n    // How many months from now will start the\n    function createRequest(uint _numMonthsToStart, uint _numPeriods, uint _numParticipants, address[] memory _listParticipants, address payable _beneficiary)\n        public\n        payable\n        whenNotPaused\n        returns(uint requestId) {\n\n        require(msg.value > 0, \"Ether amount must to be greater than zero.\");\n        require(_numMonthsToStart > 0 && _numPeriods > 0, \"Details missing\");\n        require(_numParticipants >= 2 && _numParticipants <= 10, \"Invalid participants number\");\n\n        for (uint i = 0; i < _numParticipants; i++) {\n            require(_listParticipants[i] != address(0), \"Empty address\");\n        }\n\n        countRequests++;\n        requestId = countRequests;\n        Request storage newReq = requestsDetails[requestId];\n\n        newReq.requester = payable(msg.sender);\n        newReq.amountToSend = msg.value;\n        newReq.numInitialBlock = block.number + (_numMonthsToStart * BLOCKS_PER_MONTH);\n        newReq.nextBlockControl = newReq.numInitialBlock;\n        newReq.numPeriods = _numPeriods;\n        newReq.numRemainingPeriods = _numPeriods;\n        newReq.isApproved = false;\n        newReq.numParticipants = _numParticipants;\n        newReq.beneficiary = _beneficiary;\n\n        for (uint i = 0; i < _numParticipants; i++) {\n            newReq.participants.push();\n            newReq.participants[i].participantAddress = _listParticipants[i];\n            newReq.participants[i].participantStatus = ParticipantStatus.PENDING;\n            _setupRole(PARTICIPANT_ROLE, _listParticipants[i]);\n        }\n\n        _setupRole(CREATOR_ROLE, msg.sender);\n        emit requestCreated(msg.sender, requestId);\n    }\n\n    function getParticipantsRequest(uint requestId) public view returns(ParticipantDetails[] memory listParticipants) {\n        listParticipants = requestsDetails[requestId].participants;\n    }\n\n    // A participant approves its participation in a automation process. Once all the participants have done this, the automation is activated:\n    function approveParticipation(uint requestId) public whenNotPaused onlyRole(PARTICIPANT_ROLE) returns(bool isParticipantApproved) {\n        require(requestsDetails[requestId].amountToSend > 0, \"Request ID not valid\");\n        require(!requestsDetails[requestId].isApproved, \"Request is already approved\");\n\n        uint counterApproved = 0;\n\n        for (uint i = 0; i < requestsDetails[requestId].numParticipants; i++) {\n\n            if (requestsDetails[requestId].participants[i].participantAddress == msg.sender &&\n                requestsDetails[requestId].participants[i].participantStatus == ParticipantStatus.PENDING) {\n                requestsDetails[requestId].participants[i].participantStatus = ParticipantStatus.APPROVED;\n                isParticipantApproved = true;\n                emit participantApproved(requestsDetails[requestId].requester, requestId, msg.sender);\n            }\n\n            if (requestsDetails[requestId].participants[i].participantStatus == ParticipantStatus.APPROVED) {\n                counterApproved++;\n            }\n        }\n\n        if (counterApproved == requestsDetails[requestId].numParticipants) {\n            requestsDetails[requestId].isApproved = true;\n            emit requestApproved(requestsDetails[requestId].requester, requestId, msg.sender);\n        }\n\n        assert(counterApproved <= requestsDetails[requestId].numParticipants);\n    }\n\n    // Check that the request is not approved (is still a request)\n    // Only the requester can cancel the request\n    // Include the amount in the pendingWithdrawals map (Common Patterns - Withdrawal from Contracts)\n    function cancelRequest(uint requestId) public whenNotPaused onlyRole(CREATOR_ROLE) {\n        require(!requestsDetails[requestId].isApproved, \"Request is already APPROVED. Create cancel proposal.\" );\n        require(requestsDetails[requestId].requester == msg.sender, \"Only can be canceled by the requester\");\n\n        _cancelRequest(requestId);\n    }\n\n    function _cancelRequest(uint requestId) internal {\n        uint amount = requestsDetails[requestId].amountToSend;\n        requestsDetails[requestId].amountToSend = 0;\n        pendingWithdrawals[ requestsDetails[requestId].requester ] += amount;\n\n        emit pendingWithdrawal(requestsDetails[requestId].requester, requestId, amount);\n    }\n\n    // Common Patterns - Withdrawal from Contracts\n    function withdraw() public payable whenNotPaused {\n        require(pendingWithdrawals[msg.sender] > 0, \"No amount to be withdrawn\");\n\n        uint amount = pendingWithdrawals[msg.sender];\n        // Remember to zero the pending refund before\n        // sending to prevent re-entrancy attacks\n        pendingWithdrawals[msg.sender] = 0;\n        payable(msg.sender).transfer(amount);\n\n        emit withdrawalSent(msg.sender, amount);\n    }\n\n    function amountWithdraw() public view returns(uint amount) {\n        amount = pendingWithdrawals[msg.sender];\n    }\n\n    //As the request has been already approved, it is necessary to create a proposal that have to be accepted by,\n    //at least, 51% of participants\n    function createCancelProposalRequestApproved(uint requestId) public whenNotPaused onlyRole(CREATOR_ROLE) returns(uint proposalId) {\n        require(requestsDetails[requestId].isApproved, \"Request is not approved.\" );\n        require(requestsDetails[requestId].requester == msg.sender, \"Only can be canceled by the requester\");\n\n        countCancelProposals++;\n        proposalId = countCancelProposals;\n\n        CancelProposal storage prop = cancelProposals[proposalId];\n        prop.requestId = requestId;\n        prop.numParticipants = requestsDetails[requestId].numParticipants;\n        prop.numParticipantsAccepted = 0;\n        prop.isAccepted = false;\n\n        for (uint i = 0; i < requestsDetails[requestId].numParticipants; i++) {\n            prop.participants.push();\n            prop.participants[i].participantAddress = requestsDetails[requestId].participants[i].participantAddress;\n            prop.participants[i].participantStatus = ParticipantStatus.PENDING;\n        }\n\n        emit proposalCreated(msg.sender, proposalId, requestId);\n    }\n\n    function getParticipantsCancelProposal(uint proposalId) public view returns(ParticipantDetails[] memory listParticipants) {\n        listParticipants = cancelProposals[proposalId].participants;\n    }\n\n    // A participant accepts on a proposal to cancel a previously approved request. Once more than half of the participants have accepted it, it is canceled:\n    function approveCancelProposal(uint proposalId) public whenNotPaused onlyRole(PARTICIPANT_ROLE) returns(bool isProposalApproved) {\n        require(cancelProposals[proposalId].numParticipants > 0, \"Proposal ID not valid\");\n        require(!cancelProposals[proposalId].isAccepted, \"Proposal is already approved\");\n\n        uint counterAccepted = 0;\n\n        for (uint i = 0; i < cancelProposals[proposalId].numParticipants; i++) {\n\n            if (cancelProposals[proposalId].participants[i].participantAddress == msg.sender &&\n                cancelProposals[proposalId].participants[i].participantStatus == ParticipantStatus.PENDING) {\n                cancelProposals[proposalId].participants[i].participantStatus = ParticipantStatus.APPROVED;\n                isProposalApproved = true;\n                emit participantProposalAccepted(msg.sender, cancelProposals[proposalId].requestId, proposalId);\n            }\n\n            if (cancelProposals[proposalId].participants[i].participantStatus == ParticipantStatus.APPROVED) {\n                counterAccepted++;\n            }\n        }\n\n        cancelProposals[proposalId].numParticipantsAccepted = counterAccepted;\n\n        uint percentage = ((counterAccepted + 1) * 100) / (cancelProposals[proposalId].numParticipants + 1);\n\n        if (percentage > 51) {\n            cancelProposals[proposalId].isAccepted = true;\n            emit proposalAccepted(cancelProposals[proposalId].requestId, proposalId);\n        }\n\n        assert(counterAccepted <= cancelProposals[proposalId].numParticipants);\n\n        _cancelRequest(cancelProposals[proposalId].requestId);\n    }\n\n    function processAutomation() public whenNotPaused {\n\n        uint checkPoint = block.number;\n\n        for (uint ind = 1; ind <= countRequests; ind++) {\n\n            if (requestsDetails[ind].amountToSend > 0 &&\n                requestsDetails[ind].nextBlockControl > checkPoint) {\n\n                countPartialTransfers++;\n                if (requestsDetails[ind].numRemainingPeriods == 1) {\n                  partialTransfers[countPartialTransfers].partAmount = requestsDetails[ind].amountToSend;\n                } else {\n                  partialTransfers[countPartialTransfers].partAmount = requestsDetails[ind].amountToSend / requestsDetails[ind].numRemainingPeriods;\n                }\n                partialTransfers[countPartialTransfers].partBeneficiary = requestsDetails[ind].beneficiary;\n\n                requestsDetails[ind].amountToSend = requestsDetails[ind].amountToSend - partialTransfers[countPartialTransfers].partAmount;\n                requestsDetails[ind].numRemainingPeriods = requestsDetails[ind].numRemainingPeriods - 1;\n                requestsDetails[ind].nextBlockControl = requestsDetails[ind].nextBlockControl + BLOCKS_PER_MONTH;\n            }\n\n        }\n\n        _sendPartialTransfers();\n    }\n\n    function _sendPartialTransfers() internal {\n\n      uint _tip;\n      uint _totalTip;\n      uint _amount;\n      address payable _beneficiary;\n      address payable _addressZero = payable(address(0));\n\n      for (uint ind = 1; ind <= countPartialTransfers; ind++) {\n\n        if (partialTransfers[ind].partAmount > 0) {\n          _amount = partialTransfers[ind].partAmount;\n          _beneficiary = partialTransfers[ind].partBeneficiary;\n\n          _tip = (_amount / 100);\n          _amount = _amount - _tip;\n          _totalTip += _tip;\n\n          partialTransfers[ind].partAmount = 0;\n          partialTransfers[ind].partBeneficiary = _addressZero;\n\n          _beneficiary.transfer(_amount);\n\n          emit installmentSent(_beneficiary, _amount);\n        }\n      }\n      countPartialTransfers = 0;\n\n      payable(msg.sender).transfer(_totalTip);\n    }\n}\n",
  "sourcePath": "/home/lealp22/consensys/final-project/contracts/EthDeliverer.sol",
  "compiler": {
    "name": "solc",
    "version": "0.8.5+commit.a4f2e591.Emscripten.clang"
  },
  "schemaVersion": "3.4.3",
  "updatedAt": "2021-11-30T10:41:53.442Z",
  "networkType": "ethereum",
  "devdoc": {
    "details": "Given an amount of ethers deposited in this contract, it will be sent in parts to a given address automatically. It will be necessary the participation of between two and ten additional addresses so that they will be in charge of authorize any change proposal related to the initially established distribution.",
    "kind": "dev",
    "methods": {
      "getRoleAdmin(bytes32)": {
        "details": "Returns the admin role that controls `role`. See {grantRole} and {revokeRole}. To change a role's admin, use {_setRoleAdmin}."
      },
      "grantRole(bytes32,address)": {
        "details": "Grants `role` to `account`. If `account` had not been already granted `role`, emits a {RoleGranted} event. Requirements: - the caller must have ``role``'s admin role."
      },
      "hasRole(bytes32,address)": {
        "details": "Returns `true` if `account` has been granted `role`."
      },
      "paused()": {
        "details": "Returns true if the contract is paused, and false otherwise."
      },
      "renounceRole(bytes32,address)": {
        "details": "Revokes `role` from the calling account. Roles are often managed via {grantRole} and {revokeRole}: this function's purpose is to provide a mechanism for accounts to lose their privileges if they are compromised (such as when a trusted device is misplaced). If the calling account had been revoked `role`, emits a {RoleRevoked} event. Requirements: - the caller must be `account`."
      },
      "revokeRole(bytes32,address)": {
        "details": "Revokes `role` from `account`. If `account` had been granted `role`, emits a {RoleRevoked} event. Requirements: - the caller must have ``role``'s admin role."
      },
      "supportsInterface(bytes4)": {
        "details": "See {IERC165-supportsInterface}."
      }
    },
    "title": "EthDeliverer",
    "version": 1
  },
  "userdoc": {
    "kind": "user",
    "methods": {},
    "version": 1
  }
}