{
  "contractName": "EthDeliverer",
  "abi": [
    {
      "inputs": [],
      "stateMutability": "nonpayable",
      "type": "constructor"
    },
    {
      "anonymous": false,
      "inputs": [
        {
          "indexed": false,
          "internalType": "address",
          "name": "account",
          "type": "address"
        }
      ],
      "name": "Paused",
      "type": "event"
    },
    {
      "anonymous": false,
      "inputs": [
        {
          "indexed": true,
          "internalType": "bytes32",
          "name": "role",
          "type": "bytes32"
        },
        {
          "indexed": true,
          "internalType": "bytes32",
          "name": "previousAdminRole",
          "type": "bytes32"
        },
        {
          "indexed": true,
          "internalType": "bytes32",
          "name": "newAdminRole",
          "type": "bytes32"
        }
      ],
      "name": "RoleAdminChanged",
      "type": "event"
    },
    {
      "anonymous": false,
      "inputs": [
        {
          "indexed": true,
          "internalType": "bytes32",
          "name": "role",
          "type": "bytes32"
        },
        {
          "indexed": true,
          "internalType": "address",
          "name": "account",
          "type": "address"
        },
        {
          "indexed": true,
          "internalType": "address",
          "name": "sender",
          "type": "address"
        }
      ],
      "name": "RoleGranted",
      "type": "event"
    },
    {
      "anonymous": false,
      "inputs": [
        {
          "indexed": true,
          "internalType": "bytes32",
          "name": "role",
          "type": "bytes32"
        },
        {
          "indexed": true,
          "internalType": "address",
          "name": "account",
          "type": "address"
        },
        {
          "indexed": true,
          "internalType": "address",
          "name": "sender",
          "type": "address"
        }
      ],
      "name": "RoleRevoked",
      "type": "event"
    },
    {
      "anonymous": false,
      "inputs": [
        {
          "indexed": false,
          "internalType": "address",
          "name": "account",
          "type": "address"
        }
      ],
      "name": "Unpaused",
      "type": "event"
    },
    {
      "anonymous": false,
      "inputs": [
        {
          "indexed": true,
          "internalType": "address",
          "name": "requester",
          "type": "address"
        },
        {
          "indexed": false,
          "internalType": "uint256",
          "name": "requestId",
          "type": "uint256"
        },
        {
          "indexed": true,
          "internalType": "address",
          "name": "participant",
          "type": "address"
        }
      ],
      "name": "deliveryApproved",
      "type": "event"
    },
    {
      "anonymous": false,
      "inputs": [
        {
          "indexed": true,
          "internalType": "address",
          "name": "requester",
          "type": "address"
        },
        {
          "indexed": false,
          "internalType": "uint256",
          "name": "requestId",
          "type": "uint256"
        }
      ],
      "name": "deliveryCreated",
      "type": "event"
    },
    {
      "anonymous": false,
      "inputs": [
        {
          "indexed": true,
          "internalType": "address",
          "name": "beneficiary",
          "type": "address"
        },
        {
          "indexed": false,
          "internalType": "uint256",
          "name": "amount",
          "type": "uint256"
        }
      ],
      "name": "installmentSent",
      "type": "event"
    },
    {
      "anonymous": false,
      "inputs": [
        {
          "indexed": true,
          "internalType": "address",
          "name": "requester",
          "type": "address"
        },
        {
          "indexed": false,
          "internalType": "uint256",
          "name": "requestId",
          "type": "uint256"
        },
        {
          "indexed": true,
          "internalType": "address",
          "name": "participant",
          "type": "address"
        }
      ],
      "name": "participantApproved",
      "type": "event"
    },
    {
      "anonymous": false,
      "inputs": [
        {
          "indexed": true,
          "internalType": "address",
          "name": "participant",
          "type": "address"
        },
        {
          "indexed": true,
          "internalType": "uint256",
          "name": "deliveryId",
          "type": "uint256"
        },
        {
          "indexed": false,
          "internalType": "uint256",
          "name": "proposalId",
          "type": "uint256"
        }
      ],
      "name": "participantProposalAccepted",
      "type": "event"
    },
    {
      "anonymous": false,
      "inputs": [
        {
          "indexed": true,
          "internalType": "address",
          "name": "requester",
          "type": "address"
        },
        {
          "indexed": false,
          "internalType": "uint256",
          "name": "requestId",
          "type": "uint256"
        },
        {
          "indexed": false,
          "internalType": "uint256",
          "name": "amount",
          "type": "uint256"
        }
      ],
      "name": "pendingWithdrawal",
      "type": "event"
    },
    {
      "anonymous": false,
      "inputs": [
        {
          "indexed": true,
          "internalType": "uint256",
          "name": "deliveryId",
          "type": "uint256"
        },
        {
          "indexed": false,
          "internalType": "uint256",
          "name": "proposalId",
          "type": "uint256"
        }
      ],
      "name": "proposalAccepted",
      "type": "event"
    },
    {
      "anonymous": false,
      "inputs": [
        {
          "indexed": true,
          "internalType": "address",
          "name": "requester",
          "type": "address"
        },
        {
          "indexed": false,
          "internalType": "uint256",
          "name": "amount",
          "type": "uint256"
        }
      ],
      "name": "withdrawalSent",
      "type": "event"
    },
    {
      "inputs": [],
      "name": "BLOCKS_PER_MONTH",
      "outputs": [
        {
          "internalType": "uint256",
          "name": "",
          "type": "uint256"
        }
      ],
      "stateMutability": "view",
      "type": "function",
      "constant": true
    },
    {
      "inputs": [],
      "name": "CREATOR_ROLE",
      "outputs": [
        {
          "internalType": "bytes32",
          "name": "",
          "type": "bytes32"
        }
      ],
      "stateMutability": "view",
      "type": "function",
      "constant": true
    },
    {
      "inputs": [],
      "name": "DEFAULT_ADMIN_ROLE",
      "outputs": [
        {
          "internalType": "bytes32",
          "name": "",
          "type": "bytes32"
        }
      ],
      "stateMutability": "view",
      "type": "function",
      "constant": true
    },
    {
      "inputs": [],
      "name": "PARTICIPANT_ROLE",
      "outputs": [
        {
          "internalType": "bytes32",
          "name": "",
          "type": "bytes32"
        }
      ],
      "stateMutability": "view",
      "type": "function",
      "constant": true
    },
    {
      "inputs": [],
      "name": "PAUSER_ROLE",
      "outputs": [
        {
          "internalType": "bytes32",
          "name": "",
          "type": "bytes32"
        }
      ],
      "stateMutability": "view",
      "type": "function",
      "constant": true
    },
    {
      "inputs": [
        {
          "internalType": "uint256",
          "name": "",
          "type": "uint256"
        }
      ],
      "name": "cancelProposals",
      "outputs": [
        {
          "internalType": "uint256",
          "name": "deliveryId",
          "type": "uint256"
        },
        {
          "internalType": "uint256",
          "name": "numParticipants",
          "type": "uint256"
        },
        {
          "internalType": "uint256",
          "name": "numParticipantsAccepted",
          "type": "uint256"
        },
        {
          "internalType": "bool",
          "name": "isAccepted",
          "type": "bool"
        }
      ],
      "stateMutability": "view",
      "type": "function",
      "constant": true
    },
    {
      "inputs": [
        {
          "internalType": "uint256",
          "name": "",
          "type": "uint256"
        }
      ],
      "name": "deliveriesDetails",
      "outputs": [
        {
          "internalType": "address payable",
          "name": "requester",
          "type": "address"
        },
        {
          "internalType": "address payable",
          "name": "beneficiary",
          "type": "address"
        },
        {
          "internalType": "uint256",
          "name": "amountToSend",
          "type": "uint256"
        },
        {
          "internalType": "uint256",
          "name": "numInitialBlock",
          "type": "uint256"
        },
        {
          "internalType": "uint256",
          "name": "nextBlockControl",
          "type": "uint256"
        },
        {
          "internalType": "uint256",
          "name": "numPeriods",
          "type": "uint256"
        },
        {
          "internalType": "uint256",
          "name": "numRemainingPeriods",
          "type": "uint256"
        },
        {
          "internalType": "bool",
          "name": "isApproved",
          "type": "bool"
        },
        {
          "internalType": "uint256",
          "name": "numParticipants",
          "type": "uint256"
        }
      ],
      "stateMutability": "view",
      "type": "function",
      "constant": true
    },
    {
      "inputs": [
        {
          "internalType": "bytes32",
          "name": "role",
          "type": "bytes32"
        }
      ],
      "name": "getRoleAdmin",
      "outputs": [
        {
          "internalType": "bytes32",
          "name": "",
          "type": "bytes32"
        }
      ],
      "stateMutability": "view",
      "type": "function",
      "constant": true
    },
    {
      "inputs": [
        {
          "internalType": "bytes32",
          "name": "role",
          "type": "bytes32"
        },
        {
          "internalType": "address",
          "name": "account",
          "type": "address"
        }
      ],
      "name": "grantRole",
      "outputs": [],
      "stateMutability": "nonpayable",
      "type": "function"
    },
    {
      "inputs": [
        {
          "internalType": "bytes32",
          "name": "role",
          "type": "bytes32"
        },
        {
          "internalType": "address",
          "name": "account",
          "type": "address"
        }
      ],
      "name": "hasRole",
      "outputs": [
        {
          "internalType": "bool",
          "name": "",
          "type": "bool"
        }
      ],
      "stateMutability": "view",
      "type": "function",
      "constant": true
    },
    {
      "inputs": [],
      "name": "numCancelProposals",
      "outputs": [
        {
          "internalType": "uint256",
          "name": "",
          "type": "uint256"
        }
      ],
      "stateMutability": "view",
      "type": "function",
      "constant": true
    },
    {
      "inputs": [],
      "name": "numDeliveriesDetails",
      "outputs": [
        {
          "internalType": "uint256",
          "name": "",
          "type": "uint256"
        }
      ],
      "stateMutability": "view",
      "type": "function",
      "constant": true
    },
    {
      "inputs": [],
      "name": "numInstallments",
      "outputs": [
        {
          "internalType": "uint256",
          "name": "",
          "type": "uint256"
        }
      ],
      "stateMutability": "view",
      "type": "function",
      "constant": true
    },
    {
      "inputs": [],
      "name": "paused",
      "outputs": [
        {
          "internalType": "bool",
          "name": "",
          "type": "bool"
        }
      ],
      "stateMutability": "view",
      "type": "function",
      "constant": true
    },
    {
      "inputs": [
        {
          "internalType": "address",
          "name": "",
          "type": "address"
        }
      ],
      "name": "pendingWithdrawals",
      "outputs": [
        {
          "internalType": "uint256",
          "name": "",
          "type": "uint256"
        }
      ],
      "stateMutability": "view",
      "type": "function",
      "constant": true
    },
    {
      "inputs": [
        {
          "internalType": "bytes32",
          "name": "role",
          "type": "bytes32"
        },
        {
          "internalType": "address",
          "name": "account",
          "type": "address"
        }
      ],
      "name": "renounceRole",
      "outputs": [],
      "stateMutability": "nonpayable",
      "type": "function"
    },
    {
      "inputs": [
        {
          "internalType": "bytes32",
          "name": "role",
          "type": "bytes32"
        },
        {
          "internalType": "address",
          "name": "account",
          "type": "address"
        }
      ],
      "name": "revokeRole",
      "outputs": [],
      "stateMutability": "nonpayable",
      "type": "function"
    },
    {
      "inputs": [
        {
          "internalType": "bytes4",
          "name": "interfaceId",
          "type": "bytes4"
        }
      ],
      "name": "supportsInterface",
      "outputs": [
        {
          "internalType": "bool",
          "name": "",
          "type": "bool"
        }
      ],
      "stateMutability": "view",
      "type": "function",
      "constant": true
    },
    {
      "inputs": [],
      "name": "pause",
      "outputs": [],
      "stateMutability": "nonpayable",
      "type": "function"
    },
    {
      "inputs": [],
      "name": "unpause",
      "outputs": [],
      "stateMutability": "nonpayable",
      "type": "function"
    },
    {
      "inputs": [
        {
          "internalType": "uint256",
          "name": "_numMonthsToStart",
          "type": "uint256"
        },
        {
          "internalType": "uint256",
          "name": "_numPeriods",
          "type": "uint256"
        },
        {
          "internalType": "uint256",
          "name": "_numParticipants",
          "type": "uint256"
        },
        {
          "internalType": "address[]",
          "name": "_listParticipants",
          "type": "address[]"
        },
        {
          "internalType": "address payable",
          "name": "_beneficiary",
          "type": "address"
        }
      ],
      "name": "createDeliveryRequest",
      "outputs": [
        {
          "internalType": "uint256",
          "name": "requestId",
          "type": "uint256"
        }
      ],
      "stateMutability": "payable",
      "type": "function",
      "payable": true
    },
    {
      "inputs": [
        {
          "internalType": "uint256",
          "name": "requestId",
          "type": "uint256"
        }
      ],
      "name": "getParticipantsDelivery",
      "outputs": [
        {
          "components": [
            {
              "internalType": "address",
              "name": "participantAddress",
              "type": "address"
            },
            {
              "internalType": "enum EthDeliverer.ParticipantStatus",
              "name": "participantStatus",
              "type": "uint8"
            }
          ],
          "internalType": "struct EthDeliverer.ParticipantDetails[]",
          "name": "listParticipants",
          "type": "tuple[]"
        }
      ],
      "stateMutability": "view",
      "type": "function",
      "constant": true
    },
    {
      "inputs": [
        {
          "internalType": "uint256",
          "name": "requestId",
          "type": "uint256"
        }
      ],
      "name": "approveParticipation",
      "outputs": [
        {
          "internalType": "bool",
          "name": "isParticipantApproved",
          "type": "bool"
        }
      ],
      "stateMutability": "nonpayable",
      "type": "function"
    },
    {
      "inputs": [
        {
          "internalType": "uint256",
          "name": "requestId",
          "type": "uint256"
        }
      ],
      "name": "cancelDeliveryRequest",
      "outputs": [],
      "stateMutability": "nonpayable",
      "type": "function"
    },
    {
      "inputs": [],
      "name": "withdraw",
      "outputs": [],
      "stateMutability": "payable",
      "type": "function",
      "payable": true
    },
    {
      "inputs": [
        {
          "internalType": "uint256",
          "name": "requestId",
          "type": "uint256"
        }
      ],
      "name": "createCancelProposalDeliveryApproved",
      "outputs": [
        {
          "internalType": "uint256",
          "name": "proposalId",
          "type": "uint256"
        }
      ],
      "stateMutability": "nonpayable",
      "type": "function"
    },
    {
      "inputs": [
        {
          "internalType": "uint256",
          "name": "proposalId",
          "type": "uint256"
        }
      ],
      "name": "getParticipantsCancelProposal",
      "outputs": [
        {
          "components": [
            {
              "internalType": "address",
              "name": "participantAddress",
              "type": "address"
            },
            {
              "internalType": "enum EthDeliverer.ParticipantStatus",
              "name": "participantStatus",
              "type": "uint8"
            }
          ],
          "internalType": "struct EthDeliverer.ParticipantDetails[]",
          "name": "listParticipants",
          "type": "tuple[]"
        }
      ],
      "stateMutability": "view",
      "type": "function",
      "constant": true
    },
    {
      "inputs": [
        {
          "internalType": "uint256",
          "name": "proposalId",
          "type": "uint256"
        }
      ],
      "name": "approveCancelProposal",
      "outputs": [
        {
          "internalType": "bool",
          "name": "isProposalApproved",
          "type": "bool"
        }
      ],
      "stateMutability": "nonpayable",
      "type": "function"
    },
    {
      "inputs": [],
      "name": "deliveryAutomation",
      "outputs": [],
      "stateMutability": "nonpayable",
      "type": "function"
    }
  ],
  "bytecode": "0x60806040523480156200001157600080fd5b5060008060006101000a81548160ff021916908315150217905550620000416000801b336200008960201b60201c565b620000737f65d7a28e3265b37a6474929f336521b332c1681b933f6cb9f3376673440d862a336200008960201b60201c565b6000600281905550600060038190555062000203565b6200009b82826200009f60201b60201c565b5050565b620000b182826200019060201b60201c565b6200018c57600180600084815260200190815260200160002060000160008373ffffffffffffffffffffffffffffffffffffffff1673ffffffffffffffffffffffffffffffffffffffff16815260200190815260200160002060006101000a81548160ff02191690831515021790555062000131620001fb60201b60201c565b73ffffffffffffffffffffffffffffffffffffffff168173ffffffffffffffffffffffffffffffffffffffff16837f2f8788117e7eff1d82e926ec794901d17c78024a50270940304540a733656f0d60405160405180910390a45b5050565b60006001600084815260200190815260200160002060000160008373ffffffffffffffffffffffffffffffffffffffff1673ffffffffffffffffffffffffffffffffffffffff16815260200190815260200160002060009054906101000a900460ff16905092915050565b600033905090565b6142fe80620002136000396000f3fe6080604052600436106101c25760003560e01c80638456cb59116100f7578063d236bc3a11610095578063e63ab1e911610064578063e63ab1e914610635578063f3f4370314610660578063f72337ad1461069d578063fc6a1d31146106da576101c2565b8063d236bc3a14610571578063d547741f146105b6578063e3ab35ef146105df578063e4e06c5a1461060a576101c2565b806394050dff116100d157806394050dff146104db578063a217fddf14610504578063c409084a1461052f578063c78a70641461055a576101c2565b80638456cb591461045c5780638aeda25a1461047357806391d148541461049e576101c2565b80634126f78f116101645780635f8a7abe1161013e5780635f8a7abe1461039957806363aa480b146103c457806368dca0f714610401578063705cec8414610431576101c2565b80634126f78f146102f157806349aafa13146103315780635c975abb1461036e576101c2565b806336568abe116101a057806336568abe1461026a578063397e813e146102935780633ccfd60b146102d05780633f4ba83a146102da576101c2565b806301ffc9a7146101c7578063248a9ca3146102045780632f2ff15d14610241575b600080fd5b3480156101d357600080fd5b506101ee60048036038101906101e99190613198565b610717565b6040516101fb919061377b565b60405180910390f35b34801561021057600080fd5b5061022b6004803603810190610226919061312b565b610791565b6040516102389190613796565b60405180910390f35b34801561024d57600080fd5b5061026860048036038101906102639190613158565b6107b1565b005b34801561027657600080fd5b50610291600480360381019061028c9190613158565b6107da565b005b34801561029f57600080fd5b506102ba60048036038101906102b591906131c5565b61085d565b6040516102c7919061377b565b60405180910390f35b6102d8610d5a565b005b3480156102e657600080fd5b506102ef610f45565b005b3480156102fd57600080fd5b50610318600480360381019061031391906131c5565b610f82565b6040516103289493929190613a17565b60405180910390f35b34801561033d57600080fd5b50610358600480360381019061035391906131c5565b610fbf565b60405161036591906139d3565b60405180910390f35b34801561037a57600080fd5b50610383611323565b604051610390919061377b565b60405180910390f35b3480156103a557600080fd5b506103ae611339565b6040516103bb9190613796565b60405180910390f35b3480156103d057600080fd5b506103eb60048036038101906103e691906131c5565b61135d565b6040516103f89190613759565b60405180910390f35b61041b600480360381019061041691906131f2565b61145f565b60405161042891906139d3565b60405180910390f35b34801561043d57600080fd5b5061044661195c565b60405161045391906139d3565b60405180910390f35b34801561046857600080fd5b50610471611962565b005b34801561047f57600080fd5b5061048861199f565b6040516104959190613796565b60405180910390f35b3480156104aa57600080fd5b506104c560048036038101906104c09190613158565b6119c3565b6040516104d2919061377b565b60405180910390f35b3480156104e757600080fd5b5061050260048036038101906104fd91906131c5565b611a2e565b005b34801561051057600080fd5b50610519611bbd565b6040516105269190613796565b60405180910390f35b34801561053b57600080fd5b50610544611bc4565b60405161055191906139d3565b60405180910390f35b34801561056657600080fd5b5061056f611bcb565b005b34801561057d57600080fd5b50610598600480360381019061059391906131c5565b611ee5565b6040516105ad999897969594939291906136cc565b60405180910390f35b3480156105c257600080fd5b506105dd60048036038101906105d89190613158565b611f80565b005b3480156105eb57600080fd5b506105f4611fa9565b60405161060191906139d3565b60405180910390f35b34801561061657600080fd5b5061061f611faf565b60405161062c91906139d3565b60405180910390f35b34801561064157600080fd5b5061064a611fb5565b6040516106579190613796565b60405180910390f35b34801561066c57600080fd5b50610687600480360381019061068291906130fe565b611fd9565b60405161069491906139d3565b60405180910390f35b3480156106a957600080fd5b506106c460048036038101906106bf91906131c5565b611ff1565b6040516106d19190613759565b60405180910390f35b3480156106e657600080fd5b5061070160048036038101906106fc91906131c5565b6120f3565b60405161070e919061377b565b60405180910390f35b60007f7965db0b000000000000000000000000000000000000000000000000000000007bffffffffffffffffffffffffffffffffffffffffffffffffffffffff1916827bffffffffffffffffffffffffffffffffffffffffffffffffffffffff1916148061078a5750610789826125dd565b5b9050919050565b600060016000838152602001908152602001600020600101549050919050565b6107ba82610791565b6107cb816107c6612647565b61264f565b6107d583836126ec565b505050565b6107e2612647565b73ffffffffffffffffffffffffffffffffffffffff168173ffffffffffffffffffffffffffffffffffffffff161461084f576040517f08c379a0000000000000000000000000000000000000000000000000000000008152600401610846906139b3565b60405180910390fd5b61085982826127cc565b5050565b6000610867611323565b156108a7576040517f08c379a000000000000000000000000000000000000000000000000000000000815260040161089e906138b3565b60405180910390fd5b7f938c45fe3baa5cbd047f2473358a27f57db22291e9af95379a15ad016886dfb76108d9816108d4612647565b61264f565b6000600660008581526020019081526020016000206002015411610932576040517f08c379a000000000000000000000000000000000000000000000000000000000815260040161092990613813565b60405180910390fd5b6006600084815260200190815260200160002060070160009054906101000a900460ff1615610996576040517f08c379a000000000000000000000000000000000000000000000000000000000815260040161098d90613833565b60405180910390fd5b6000805b6006600086815260200190815260200160002060080154811015610c42573373ffffffffffffffffffffffffffffffffffffffff166006600087815260200190815260200160002060090182815481106109f7576109f6613e6a565b5b9060005260206000200160000160009054906101000a900473ffffffffffffffffffffffffffffffffffffffff1673ffffffffffffffffffffffffffffffffffffffff16148015610aae575060016003811115610a5757610a56613e3b565b5b600660008781526020019081526020016000206009018281548110610a7f57610a7e613e6a565b5b9060005260206000200160000160149054906101000a900460ff166003811115610aac57610aab613e3b565b5b145b15610bb1576002600660008781526020019081526020016000206009018281548110610add57610adc613e6a565b5b9060005260206000200160000160146101000a81548160ff02191690836003811115610b0c57610b0b613e3b565b5b0217905550600193503373ffffffffffffffffffffffffffffffffffffffff166006600087815260200190815260200160002060000160009054906101000a900473ffffffffffffffffffffffffffffffffffffffff1673ffffffffffffffffffffffffffffffffffffffff167fc6efb5caca780cf5eb5064a0283d47509ea038ded04276fe0c39f1f893a7837087604051610ba891906139d3565b60405180910390a35b60026003811115610bc557610bc4613e3b565b5b600660008781526020019081526020016000206009018281548110610bed57610bec613e6a565b5b9060005260206000200160000160149054906101000a900460ff166003811115610c1a57610c19613e3b565b5b1415610c2f578180610c2b90613d65565b9250505b8080610c3a90613d65565b91505061099a565b506006600085815260200190815260200160002060080154811415610d2c5760016006600086815260200190815260200160002060070160006101000a81548160ff0219169083151502179055503373ffffffffffffffffffffffffffffffffffffffff166006600086815260200190815260200160002060000160009054906101000a900473ffffffffffffffffffffffffffffffffffffffff1673ffffffffffffffffffffffffffffffffffffffff167fefac5c7263eb70fa0c95c858b08f503955dbd1bdf566a03113c49812f1fb8d5286604051610d2391906139d3565b60405180910390a35b6006600085815260200190815260200160002060080154811115610d5357610d52613dae565b5b5050919050565b610d62611323565b15610da2576040517f08c379a0000000000000000000000000000000000000000000000000000000008152600401610d99906138b3565b60405180910390fd5b6000600860003373ffffffffffffffffffffffffffffffffffffffff1673ffffffffffffffffffffffffffffffffffffffff1681526020019081526020016000205411610e24576040517f08c379a0000000000000000000000000000000000000000000000000000000008152600401610e1b90613893565b60405180910390fd5b6000600860003373ffffffffffffffffffffffffffffffffffffffff1673ffffffffffffffffffffffffffffffffffffffff1681526020019081526020016000205490506000600860003373ffffffffffffffffffffffffffffffffffffffff1673ffffffffffffffffffffffffffffffffffffffff168152602001908152602001600020819055503373ffffffffffffffffffffffffffffffffffffffff166108fc829081150290604051600060405180830381858888f19350505050158015610ef3573d6000803e3d6000fd5b503373ffffffffffffffffffffffffffffffffffffffff167f5df299bce8b20381d135c721bf8546d2fffedade9f6457de2d77e3cc51481f1c82604051610f3a91906139d3565b60405180910390a250565b7f65d7a28e3265b37a6474929f336521b332c1681b933f6cb9f3376673440d862a610f7781610f72612647565b61264f565b610f7f6128ae565b50565b60076020528060005260406000206000915090508060000154908060010154908060020154908060040160009054906101000a900460ff16905084565b6000610fc9611323565b15611009576040517f08c379a0000000000000000000000000000000000000000000000000000000008152600401611000906138b3565b60405180910390fd5b7f828634d95e775031b9ff576b159a8509d3053581a8c9c4d7d86899e0afcd882f61103b81611036612647565b61264f565b6006600084815260200190815260200160002060070160009054906101000a900460ff1661109e576040517f08c379a000000000000000000000000000000000000000000000000000000000815260040161109590613973565b60405180910390fd5b3373ffffffffffffffffffffffffffffffffffffffff166006600085815260200190815260200160002060000160009054906101000a900473ffffffffffffffffffffffffffffffffffffffff1673ffffffffffffffffffffffffffffffffffffffff1614611142576040517f08c379a0000000000000000000000000000000000000000000000000000000008152600401611139906138d3565b60405180910390fd5b6003600081548092919061115590613d65565b919050555060035491506000600760008481526020019081526020016000209050838160000181905550600660008581526020019081526020016000206008015481600101819055506000816002018190555060008160040160006101000a81548160ff02191690831515021790555060005b600660008681526020019081526020016000206008015481101561131b578160030160018160018154018082558091505003906000526020600020505060066000868152602001908152602001600020600901818154811061122d5761122c613e6a565b5b9060005260206000200160000160009054906101000a900473ffffffffffffffffffffffffffffffffffffffff1682600301828154811061127157611270613e6a565b5b9060005260206000200160000160006101000a81548173ffffffffffffffffffffffffffffffffffffffff021916908373ffffffffffffffffffffffffffffffffffffffff16021790555060018260030182815481106112d4576112d3613e6a565b5b9060005260206000200160000160146101000a81548160ff0219169083600381111561130357611302613e3b565b5b0217905550808061131390613d65565b9150506111c8565b505050919050565b60008060009054906101000a900460ff16905090565b7f938c45fe3baa5cbd047f2473358a27f57db22291e9af95379a15ad016886dfb781565b606060066000838152602001908152602001600020600901805480602002602001604051908101604052809291908181526020016000905b82821015611454578382906000526020600020016040518060400160405290816000820160009054906101000a900473ffffffffffffffffffffffffffffffffffffffff1673ffffffffffffffffffffffffffffffffffffffff1673ffffffffffffffffffffffffffffffffffffffff1681526020016000820160149054906101000a900460ff16600381111561142f5761142e613e3b565b5b600381111561144157611440613e3b565b5b8152505081526020019060010190611395565b505050509050919050565b6000611469611323565b156114a9576040517f08c379a00000000000000000000000000000000000000000000000000000000081526004016114a0906138b3565b60405180910390fd5b6000341180156114ba575060643411155b6114f9576040517f08c379a00000000000000000000000000000000000000000000000000000000081526004016114f090613913565b60405180910390fd5b6000861180156115095750600085115b611548576040517f08c379a000000000000000000000000000000000000000000000000000000000815260040161153f90613873565b60405180910390fd5b6002841015801561155a5750600a8411155b611599576040517f08c379a000000000000000000000000000000000000000000000000000000000815260040161159090613853565b60405180910390fd5b60005b8481101561164157600073ffffffffffffffffffffffffffffffffffffffff168482815181106115cf576115ce613e6a565b5b602002602001015173ffffffffffffffffffffffffffffffffffffffff16141561162e576040517f08c379a0000000000000000000000000000000000000000000000000000000008152600401611625906138f3565b60405180910390fd5b808061163990613d65565b91505061159c565b506002600081548092919061165590613d65565b919050555060025490506000600660008381526020019081526020016000209050338160000160006101000a81548173ffffffffffffffffffffffffffffffffffffffff021916908373ffffffffffffffffffffffffffffffffffffffff1602179055503481600201819055506202ee00876116d19190613b94565b436116dc9190613b0d565b81600301819055508060030154816004018190555085816005018190555085816006018190555060008160070160006101000a81548160ff021916908315150217905550848160080181905550828160010160006101000a81548173ffffffffffffffffffffffffffffffffffffffff021916908373ffffffffffffffffffffffffffffffffffffffff16021790555060005b858110156118b557816009016001816001815401808255809150500390600052602060002050508481815181106117a9576117a8613e6a565b5b60200260200101518260090182815481106117c7576117c6613e6a565b5b9060005260206000200160000160006101000a81548173ffffffffffffffffffffffffffffffffffffffff021916908373ffffffffffffffffffffffffffffffffffffffff160217905550600182600901828154811061182a57611829613e6a565b5b9060005260206000200160000160146101000a81548160ff0219169083600381111561185957611858613e3b565b5b02179055506118a27f938c45fe3baa5cbd047f2473358a27f57db22291e9af95379a15ad016886dfb786838151811061189557611894613e6a565b5b602002602001015161294f565b80806118ad90613d65565b91505061176f565b506118e07f828634d95e775031b9ff576b159a8509d3053581a8c9c4d7d86899e0afcd882f3361294f565b8060000160009054906101000a900473ffffffffffffffffffffffffffffffffffffffff1673ffffffffffffffffffffffffffffffffffffffff167f5c816eb95ed1e0de7a6a6a5f6ffb61888d07881d2e84d800df96682e656667138360405161194a91906139d3565b60405180910390a25095945050505050565b60025481565b7f65d7a28e3265b37a6474929f336521b332c1681b933f6cb9f3376673440d862a6119948161198f612647565b61264f565b61199c61295d565b50565b7f828634d95e775031b9ff576b159a8509d3053581a8c9c4d7d86899e0afcd882f81565b60006001600084815260200190815260200160002060000160008373ffffffffffffffffffffffffffffffffffffffff1673ffffffffffffffffffffffffffffffffffffffff16815260200190815260200160002060009054906101000a900460ff16905092915050565b611a36611323565b15611a76576040517f08c379a0000000000000000000000000000000000000000000000000000000008152600401611a6d906138b3565b60405180910390fd5b7f828634d95e775031b9ff576b159a8509d3053581a8c9c4d7d86899e0afcd882f611aa881611aa3612647565b61264f565b6006600083815260200190815260200160002060070160009054906101000a900460ff1615611b0c576040517f08c379a0000000000000000000000000000000000000000000000000000000008152600401611b0390613993565b60405180910390fd5b3373ffffffffffffffffffffffffffffffffffffffff166006600084815260200190815260200160002060000160009054906101000a900473ffffffffffffffffffffffffffffffffffffffff1673ffffffffffffffffffffffffffffffffffffffff1614611bb0576040517f08c379a0000000000000000000000000000000000000000000000000000000008152600401611ba7906138d3565b60405180910390fd5b611bb9826129ff565b5050565b6000801b81565b6202ee0081565b611bd3611323565b15611c13576040517f08c379a0000000000000000000000000000000000000000000000000000000008152600401611c0a906138b3565b60405180910390fd5b60004390506000600190505b6002548111611ed95760006006600083815260200190815260200160002060020154118015611c635750816006600083815260200190815260200160002060040154115b15611ec65760046000815480929190611c7b90613d65565b9190505550600160066000838152602001908152602001600020600601541415611ce6576006600082815260200190815260200160002060020154600560045481548110611ccc57611ccb613e6a565b5b906000526020600020906002020160000181905550611d4a565b60066000828152602001908152602001600020600601546006600083815260200190815260200160002060020154611d1e9190613b63565b600560045481548110611d3457611d33613e6a565b5b9060005260206000209060020201600001819055505b6006600082815260200190815260200160002060010160009054906101000a900473ffffffffffffffffffffffffffffffffffffffff16600560045481548110611d9757611d96613e6a565b5b906000526020600020906002020160010160006101000a81548173ffffffffffffffffffffffffffffffffffffffff021916908373ffffffffffffffffffffffffffffffffffffffff160217905550600560045481548110611dfc57611dfb613e6a565b5b9060005260206000209060020201600001546006600083815260200190815260200160002060020154611e2f9190613bee565b600660008381526020019081526020016000206002018190555060016006600083815260200190815260200160002060060154611e6c9190613bee565b60066000838152602001908152602001600020600601819055506202ee006006600083815260200190815260200160002060040154611eab9190613b0d565b60066000838152602001908152602001600020600401819055505b8080611ed190613d65565b915050611c1f565b50611ee2612b4c565b50565b60066020528060005260406000206000915090508060000160009054906101000a900473ffffffffffffffffffffffffffffffffffffffff16908060010160009054906101000a900473ffffffffffffffffffffffffffffffffffffffff16908060020154908060030154908060040154908060050154908060060154908060070160009054906101000a900460ff16908060080154905089565b611f8982610791565b611f9a81611f95612647565b61264f565b611fa483836127cc565b505050565b60035481565b60045481565b7f65d7a28e3265b37a6474929f336521b332c1681b933f6cb9f3376673440d862a81565b60086020528060005260406000206000915090505481565b606060076000838152602001908152602001600020600301805480602002602001604051908101604052809291908181526020016000905b828210156120e8578382906000526020600020016040518060400160405290816000820160009054906101000a900473ffffffffffffffffffffffffffffffffffffffff1673ffffffffffffffffffffffffffffffffffffffff1673ffffffffffffffffffffffffffffffffffffffff1681526020016000820160149054906101000a900460ff1660038111156120c3576120c2613e3b565b5b60038111156120d5576120d4613e3b565b5b8152505081526020019060010190612029565b505050509050919050565b60006120fd611323565b1561213d576040517f08c379a0000000000000000000000000000000000000000000000000000000008152600401612134906138b3565b60405180910390fd5b7f938c45fe3baa5cbd047f2473358a27f57db22291e9af95379a15ad016886dfb761216f8161216a612647565b61264f565b60006007600085815260200190815260200160002060010154116121c8576040517f08c379a00000000000000000000000000000000000000000000000000000000081526004016121bf90613933565b60405180910390fd5b6007600084815260200190815260200160002060040160009054906101000a900460ff161561222c576040517f08c379a000000000000000000000000000000000000000000000000000000000815260040161222390613953565b60405180910390fd5b6000805b60076000868152602001908152602001600020600101548110156124a2573373ffffffffffffffffffffffffffffffffffffffff1660076000878152602001908152602001600020600301828154811061228d5761228c613e6a565b5b9060005260206000200160000160009054906101000a900473ffffffffffffffffffffffffffffffffffffffff1673ffffffffffffffffffffffffffffffffffffffff161480156123445750600160038111156122ed576122ec613e3b565b5b60076000878152602001908152602001600020600301828154811061231557612314613e6a565b5b9060005260206000200160000160149054906101000a900460ff16600381111561234257612341613e3b565b5b145b1561241157600260076000878152602001908152602001600020600301828154811061237357612372613e6a565b5b9060005260206000200160000160146101000a81548160ff021916908360038111156123a2576123a1613e3b565b5b02179055506001935060076000868152602001908152602001600020600001543373ffffffffffffffffffffffffffffffffffffffff167ff4db4a6db849d33dce31520731c0d45d564dd4c9b3b229f6ad98c38bca4df50b8760405161240891906139d3565b60405180910390a35b6002600381111561242557612424613e3b565b5b60076000878152602001908152602001600020600301828154811061244d5761244c613e6a565b5b9060005260206000200160000160149054906101000a900460ff16600381111561247a57612479613e3b565b5b141561248f57818061248b90613d65565b9250505b808061249a90613d65565b915050612230565b508060076000868152602001908152602001600020600201819055506000600160076000878152602001908152602001600020600101546124e39190613b0d565b60646001846124f29190613b0d565b6124fc9190613b94565b6125069190613b63565b9050603381111561258f5760016007600087815260200190815260200160002060040160006101000a81548160ff02191690831515021790555060076000868152602001908152602001600020600001547fc42e0ad09cebfe463c535cc49c0f56c31a36ecbbdf57f9f540479ca592e0ff2e8660405161258691906139d3565b60405180910390a25b60076000868152602001908152602001600020600101548211156125b6576125b5613dae565b5b6125d560076000878152602001908152602001600020600001546129ff565b505050919050565b60007f01ffc9a7000000000000000000000000000000000000000000000000000000007bffffffffffffffffffffffffffffffffffffffffffffffffffffffff1916827bffffffffffffffffffffffffffffffffffffffffffffffffffffffff1916149050919050565b600033905090565b61265982826119c3565b6126e85761267e8173ffffffffffffffffffffffffffffffffffffffff166014612dbb565b61268c8360001c6020612dbb565b60405160200161269d929190613677565b6040516020818303038152906040526040517f08c379a00000000000000000000000000000000000000000000000000000000081526004016126df91906137b1565b60405180910390fd5b5050565b6126f682826119c3565b6127c857600180600084815260200190815260200160002060000160008373ffffffffffffffffffffffffffffffffffffffff1673ffffffffffffffffffffffffffffffffffffffff16815260200190815260200160002060006101000a81548160ff02191690831515021790555061276d612647565b73ffffffffffffffffffffffffffffffffffffffff168173ffffffffffffffffffffffffffffffffffffffff16837f2f8788117e7eff1d82e926ec794901d17c78024a50270940304540a733656f0d60405160405180910390a45b5050565b6127d682826119c3565b156128aa5760006001600084815260200190815260200160002060000160008373ffffffffffffffffffffffffffffffffffffffff1673ffffffffffffffffffffffffffffffffffffffff16815260200190815260200160002060006101000a81548160ff02191690831515021790555061284f612647565b73ffffffffffffffffffffffffffffffffffffffff168173ffffffffffffffffffffffffffffffffffffffff16837ff6391f5c32d9c69d2a47ea670b442974b53935d1edc7fd64eb21e047a839171b60405160405180910390a45b5050565b6128b6611323565b6128f5576040517f08c379a00000000000000000000000000000000000000000000000000000000081526004016128ec906137f3565b60405180910390fd5b60008060006101000a81548160ff0219169083151502179055507f5db9ee0a495bf2e6ff9c91a7834c1ba4fdd244a5e8aa4e537bd38aeae4b073aa612938612647565b60405161294591906136b1565b60405180910390a1565b61295982826126ec565b5050565b612965611323565b156129a5576040517f08c379a000000000000000000000000000000000000000000000000000000000815260040161299c906138b3565b60405180910390fd5b60016000806101000a81548160ff0219169083151502179055507f62e78cea01bee320cd4e420270b5ea74000d11b0c9f74754ebdbfc544b05a2586129e8612647565b6040516129f591906136b1565b60405180910390a1565b6000600660008381526020019081526020016000206002015490506000600660008481526020019081526020016000206002018190555080600860006006600086815260200190815260200160002060000160009054906101000a900473ffffffffffffffffffffffffffffffffffffffff1673ffffffffffffffffffffffffffffffffffffffff1673ffffffffffffffffffffffffffffffffffffffff1681526020019081526020016000206000828254612abb9190613b0d565b925050819055506006600083815260200190815260200160002060000160009054906101000a900473ffffffffffffffffffffffffffffffffffffffff1673ffffffffffffffffffffffffffffffffffffffff167f2b9404a9e57ab83c3b7d7e391bb91444736d3eccc00bd4e47683236484c37cbc8383604051612b409291906139ee565b60405180910390a25050565b600080600080600080600190505b6004548111612d6457600060058281548110612b7957612b78613e6a565b5b9060005260206000209060020201600001541115612d515760058181548110612ba557612ba4613e6a565b5b906000526020600020906002020160000154935060058181548110612bcd57612bcc613e6a565b5b906000526020600020906002020160010160009054906101000a900473ffffffffffffffffffffffffffffffffffffffff169250606484612c0e9190613b63565b95508584612c1c9190613bee565b93508585612c2a9190613b0d565b9450600060058281548110612c4257612c41613e6a565b5b9060005260206000209060020201600001819055508160058281548110612c6c57612c6b613e6a565b5b906000526020600020906002020160010160006101000a81548173ffffffffffffffffffffffffffffffffffffffff021916908373ffffffffffffffffffffffffffffffffffffffff1602179055508273ffffffffffffffffffffffffffffffffffffffff166108fc859081150290604051600060405180830381858888f19350505050158015612d01573d6000803e3d6000fd5b508273ffffffffffffffffffffffffffffffffffffffff167fd44d0a8152caef0fd63878c2c127c887569bbfbe0330cebb69e61cc0d4f0dee185604051612d4891906139d3565b60405180910390a25b8080612d5c90613d65565b915050612b5a565b5060006004819055503373ffffffffffffffffffffffffffffffffffffffff166108fc859081150290604051600060405180830381858888f19350505050158015612db3573d6000803e3d6000fd5b505050505050565b606060006002836002612dce9190613b94565b612dd89190613b0d565b67ffffffffffffffff811115612df157612df0613e99565b5b6040519080825280601f01601f191660200182016040528015612e235781602001600182028036833780820191505090505b5090507f300000000000000000000000000000000000000000000000000000000000000081600081518110612e5b57612e5a613e6a565b5b60200101907effffffffffffffffffffffffffffffffffffffffffffffffffffffffffffff1916908160001a9053507f780000000000000000000000000000000000000000000000000000000000000081600181518110612ebf57612ebe613e6a565b5b60200101907effffffffffffffffffffffffffffffffffffffffffffffffffffffffffffff1916908160001a90535060006001846002612eff9190613b94565b612f099190613b0d565b90505b6001811115612fa9577f3031323334353637383961626364656600000000000000000000000000000000600f861660108110612f4b57612f4a613e6a565b5b1a60f81b828281518110612f6257612f61613e6a565b5b60200101907effffffffffffffffffffffffffffffffffffffffffffffffffffffffffffff1916908160001a905350600485901c945080612fa290613d0a565b9050612f0c565b5060008414612fed576040517f08c379a0000000000000000000000000000000000000000000000000000000008152600401612fe4906137d3565b60405180910390fd5b8091505092915050565b600061300a61300584613a81565b613a5c565b9050808382526020820190508285602086028201111561302d5761302c613ecd565b5b60005b8581101561305d57816130438882613067565b845260208401935060208301925050600181019050613030565b5050509392505050565b60008135905061307681614255565b92915050565b60008135905061308b8161426c565b92915050565b600082601f8301126130a6576130a5613ec8565b5b81356130b6848260208601612ff7565b91505092915050565b6000813590506130ce81614283565b92915050565b6000813590506130e38161429a565b92915050565b6000813590506130f8816142b1565b92915050565b60006020828403121561311457613113613ed7565b5b600061312284828501613067565b91505092915050565b60006020828403121561314157613140613ed7565b5b600061314f848285016130bf565b91505092915050565b6000806040838503121561316f5761316e613ed7565b5b600061317d858286016130bf565b925050602061318e85828601613067565b9150509250929050565b6000602082840312156131ae576131ad613ed7565b5b60006131bc848285016130d4565b91505092915050565b6000602082840312156131db576131da613ed7565b5b60006131e9848285016130e9565b91505092915050565b600080600080600060a0868803121561320e5761320d613ed7565b5b600061321c888289016130e9565b955050602061322d888289016130e9565b945050604061323e888289016130e9565b935050606086013567ffffffffffffffff81111561325f5761325e613ed2565b5b61326b88828901613091565b925050608061327c8882890161307c565b9150509295509295909350565b60006132958383613639565b60408301905092915050565b6132aa81613c34565b82525050565b6132b981613c22565b82525050565b6132c881613c22565b82525050565b60006132d982613abd565b6132e38185613ae0565b93506132ee83613aad565b8060005b8381101561331f5781516133068882613289565b975061331183613ad3565b9250506001810190506132f2565b5085935050505092915050565b61333581613c46565b82525050565b61334481613c52565b82525050565b61335381613cc5565b82525050565b600061336482613ac8565b61336e8185613af1565b935061337e818560208601613cd7565b61338781613edc565b840191505092915050565b600061339d82613ac8565b6133a78185613b02565b93506133b7818560208601613cd7565b80840191505092915050565b60006133d0602083613af1565b91506133db82613eed565b602082019050919050565b60006133f3601483613af1565b91506133fe82613f16565b602082019050919050565b6000613416601483613af1565b915061342182613f3f565b602082019050919050565b6000613439601c83613af1565b915061344482613f68565b602082019050919050565b600061345c601b83613af1565b915061346782613f91565b602082019050919050565b600061347f600f83613af1565b915061348a82613fba565b602082019050919050565b60006134a2601983613af1565b91506134ad82613fe3565b602082019050919050565b60006134c5601083613af1565b91506134d08261400c565b602082019050919050565b60006134e8602583613af1565b91506134f382614035565b604082019050919050565b600061350b600d83613af1565b915061351682614084565b602082019050919050565b600061352e601483613af1565b9150613539826140ad565b602082019050919050565b6000613551601583613af1565b915061355c826140d6565b602082019050919050565b6000613574601c83613af1565b915061357f826140ff565b602082019050919050565b6000613597601783613b02565b91506135a282614128565b601782019050919050565b60006135ba601983613af1565b91506135c582614151565b602082019050919050565b60006135dd603583613af1565b91506135e88261417a565b604082019050919050565b6000613600601183613b02565b915061360b826141c9565b601182019050919050565b6000613623602f83613af1565b915061362e826141f2565b604082019050919050565b60408201600082015161364f60008501826132b0565b506020820151613662602085018261334a565b50505050565b61367181613cbb565b82525050565b60006136828261358a565b915061368e8285613392565b9150613699826135f3565b91506136a58284613392565b91508190509392505050565b60006020820190506136c660008301846132bf565b92915050565b6000610120820190506136e2600083018c6132a1565b6136ef602083018b6132a1565b6136fc604083018a613668565b6137096060830189613668565b6137166080830188613668565b61372360a0830187613668565b61373060c0830186613668565b61373d60e083018561332c565b61374b610100830184613668565b9a9950505050505050505050565b6000602082019050818103600083015261377381846132ce565b905092915050565b6000602082019050613790600083018461332c565b92915050565b60006020820190506137ab600083018461333b565b92915050565b600060208201905081810360008301526137cb8184613359565b905092915050565b600060208201905081810360008301526137ec816133c3565b9050919050565b6000602082019050818103600083015261380c816133e6565b9050919050565b6000602082019050818103600083015261382c81613409565b9050919050565b6000602082019050818103600083015261384c8161342c565b9050919050565b6000602082019050818103600083015261386c8161344f565b9050919050565b6000602082019050818103600083015261388c81613472565b9050919050565b600060208201905081810360008301526138ac81613495565b9050919050565b600060208201905081810360008301526138cc816134b8565b9050919050565b600060208201905081810360008301526138ec816134db565b9050919050565b6000602082019050818103600083015261390c816134fe565b9050919050565b6000602082019050818103600083015261392c81613521565b9050919050565b6000602082019050818103600083015261394c81613544565b9050919050565b6000602082019050818103600083015261396c81613567565b9050919050565b6000602082019050818103600083015261398c816135ad565b9050919050565b600060208201905081810360008301526139ac816135d0565b9050919050565b600060208201905081810360008301526139cc81613616565b9050919050565b60006020820190506139e86000830184613668565b92915050565b6000604082019050613a036000830185613668565b613a106020830184613668565b9392505050565b6000608082019050613a2c6000830187613668565b613a396020830186613668565b613a466040830185613668565b613a53606083018461332c565b95945050505050565b6000613a66613a77565b9050613a728282613d34565b919050565b6000604051905090565b600067ffffffffffffffff821115613a9c57613a9b613e99565b5b602082029050602081019050919050565b6000819050602082019050919050565b600081519050919050565b600081519050919050565b6000602082019050919050565b600082825260208201905092915050565b600082825260208201905092915050565b600081905092915050565b6000613b1882613cbb565b9150613b2383613cbb565b9250827fffffffffffffffffffffffffffffffffffffffffffffffffffffffffffffffff03821115613b5857613b57613ddd565b5b828201905092915050565b6000613b6e82613cbb565b9150613b7983613cbb565b925082613b8957613b88613e0c565b5b828204905092915050565b6000613b9f82613cbb565b9150613baa83613cbb565b9250817fffffffffffffffffffffffffffffffffffffffffffffffffffffffffffffffff0483118215151615613be357613be2613ddd565b5b828202905092915050565b6000613bf982613cbb565b9150613c0483613cbb565b925082821015613c1757613c16613ddd565b5b828203905092915050565b6000613c2d82613c9b565b9050919050565b6000613c3f82613c9b565b9050919050565b60008115159050919050565b6000819050919050565b60007fffffffff0000000000000000000000000000000000000000000000000000000082169050919050565b6000819050613c9682614241565b919050565b600073ffffffffffffffffffffffffffffffffffffffff82169050919050565b6000819050919050565b6000613cd082613c88565b9050919050565b60005b83811015613cf5578082015181840152602081019050613cda565b83811115613d04576000848401525b50505050565b6000613d1582613cbb565b91506000821415613d2957613d28613ddd565b5b600182039050919050565b613d3d82613edc565b810181811067ffffffffffffffff82111715613d5c57613d5b613e99565b5b80604052505050565b6000613d7082613cbb565b91507fffffffffffffffffffffffffffffffffffffffffffffffffffffffffffffffff821415613da357613da2613ddd565b5b600182019050919050565b7f4e487b7100000000000000000000000000000000000000000000000000000000600052600160045260246000fd5b7f4e487b7100000000000000000000000000000000000000000000000000000000600052601160045260246000fd5b7f4e487b7100000000000000000000000000000000000000000000000000000000600052601260045260246000fd5b7f4e487b7100000000000000000000000000000000000000000000000000000000600052602160045260246000fd5b7f4e487b7100000000000000000000000000000000000000000000000000000000600052603260045260246000fd5b7f4e487b7100000000000000000000000000000000000000000000000000000000600052604160045260246000fd5b600080fd5b600080fd5b600080fd5b600080fd5b6000601f19601f8301169050919050565b7f537472696e67733a20686578206c656e67746820696e73756666696369656e74600082015250565b7f5061757361626c653a206e6f7420706175736564000000000000000000000000600082015250565b7f52657175657374204944206e6f742076616c6964000000000000000000000000600082015250565b7f44656c697665727920697320616c726561647920617070726f76656400000000600082015250565b7f496e76616c6964207061727469636970616e7473206e756d6265720000000000600082015250565b7f44657461696c73206d697373696e670000000000000000000000000000000000600082015250565b7f4e6f20616d6f756e7420746f2062652077697468647261776e00000000000000600082015250565b7f5061757361626c653a2070617573656400000000000000000000000000000000600082015250565b7f4f6e6c792063616e2062652063616e63656c656420627920746865207265717560008201527f6573746572000000000000000000000000000000000000000000000000000000602082015250565b7f456d707479206164647265737300000000000000000000000000000000000000600082015250565b7f496e76616c696420657468657220616d6f756e74000000000000000000000000600082015250565b7f50726f706f73616c204944206e6f742076616c69640000000000000000000000600082015250565b7f50726f706f73616c20697320616c726561647920617070726f76656400000000600082015250565b7f416363657373436f6e74726f6c3a206163636f756e7420000000000000000000600082015250565b7f44656c6976657279206973206e6f7420617070726f7665642e00000000000000600082015250565b7f44656c697665727920697320616c726561647920415050524f5645442e20437260008201527f656174652063616e63656c2070726f706f73616c2e0000000000000000000000602082015250565b7f206973206d697373696e6720726f6c6520000000000000000000000000000000600082015250565b7f416363657373436f6e74726f6c3a2063616e206f6e6c792072656e6f756e636560008201527f20726f6c657320666f722073656c660000000000000000000000000000000000602082015250565b6004811061425257614251613e3b565b5b50565b61425e81613c22565b811461426957600080fd5b50565b61427581613c34565b811461428057600080fd5b50565b61428c81613c52565b811461429757600080fd5b50565b6142a381613c5c565b81146142ae57600080fd5b50565b6142ba81613cbb565b81146142c557600080fd5b5056fea2646970667358221220e48d80488356d25fbe5202883eb96b16f22b3c6b35e90913e705c3648fd0351964736f6c63430008050033",
  "immutableReferences": {},
  "source": "// SPDX-License-Identifier: MIT\npragma solidity >=0.8.5 <0.9.0;\n\nimport \"@openzeppelin/contracts/security/Pausable.sol\";\nimport \"@openzeppelin/contracts/access/AccessControl.sol\";\n\n/**\n * @title EthDeliverer\n * @dev Given an amount of ethers deposited in this contract, it will be sent in installments to a given address automatically.\n * It will be necessary the participation of between two and ten additional addresses so that they will be in charge of authorize any change proposal\n * related to the initially established distribution.\n */\ncontract EthDeliverer is Pausable, AccessControl {\n\n    /* Roles definition */\n    bytes32 public constant PAUSER_ROLE = keccak256(\"PAUSER_ROLE\");\n    bytes32 public constant CREATOR_ROLE = keccak256(\"CREATOR_ROLE\");\n    bytes32 public constant PARTICIPANT_ROLE = keccak256(\"PARTICIPANT_ROLE\");\n\n    uint public constant BLOCKS_PER_MONTH = 192000;\n\n    /**\n     *  Deliveries will be sent weekly\n     **/\n    enum ParticipantStatus{\n        NOT_USED,\n        PENDING,\n        APPROVED,\n        ACTIVE\n    }\n\n    struct ParticipantDetails {\n        address participantAddress;\n        ParticipantStatus participantStatus;\n    }\n\n    struct Delivery {\n        address payable requester;\n        address payable beneficiary;\n        uint amountToSend;\n        uint numInitialBlock;\n        uint nextBlockControl;\n        uint numPeriods;\n        uint numRemainingPeriods;\n        bool isApproved;\n        uint numParticipants;\n        ParticipantDetails[] participants;\n        //mapping (uint => mapping(address => ParticipantStatus)) participants;\n    }\n\n    struct CancelProposal {\n        uint deliveryId;\n        uint numParticipants;\n        uint numParticipantsAccepted;\n        ParticipantDetails[] participants;\n        bool isAccepted;\n    }\n\n    struct Installments {\n      uint insAmount;\n      address payable insBeneficiary;\n    }\n\n    uint public numDeliveriesDetails;\n    uint public numCancelProposals;\n    uint public numInstallments;\n\n    Installments[] installments;\n\n    mapping (uint => Delivery) public deliveriesDetails;\n    mapping (uint => CancelProposal) public cancelProposals;\n    mapping (address => uint) public pendingWithdrawals;\n\n    event deliveryCreated(address indexed requester, uint requestId);\n    event participantApproved(address indexed requester, uint requestId, address indexed participant);\n    event deliveryApproved(address indexed requester, uint requestId, address indexed participant);\n    event pendingWithdrawal(address indexed requester, uint requestId, uint amount);\n    event withdrawalSent(address indexed requester, uint amount);\n    event participantProposalAccepted(address indexed participant, uint indexed deliveryId, uint proposalId);\n    event proposalAccepted(uint indexed deliveryId, uint proposalId);\n    event installmentSent(address indexed beneficiary, uint amount);\n\n    constructor() {\n        _setupRole(DEFAULT_ADMIN_ROLE, msg.sender);\n        _setupRole(PAUSER_ROLE, msg.sender);\n        numDeliveriesDetails = 0;\n        numCancelProposals = 0;\n    }\n\n    function pause() public onlyRole(PAUSER_ROLE) {\n        _pause();\n    }\n\n    function unpause() public onlyRole(PAUSER_ROLE) {\n        _unpause();\n    }\n\n    // How many months from now will start the\n    function createDeliveryRequest(uint _numMonthsToStart, uint _numPeriods, uint _numParticipants, address[] memory _listParticipants, address payable _beneficiary)\n        public\n        payable\n        whenNotPaused\n        returns(uint requestId) {\n\n        require(msg.value > 0 && msg.value <= 100, \"Invalid ether amount\");\n        require(_numMonthsToStart > 0 && _numPeriods > 0, \"Details missing\");\n        require(_numParticipants >= 2 && _numParticipants <= 10, \"Invalid participants number\");\n\n        for (uint i = 0; i < _numParticipants; i++) {\n            require(_listParticipants[i] != address(0), \"Empty address\");\n        }\n\n        numDeliveriesDetails++;\n        requestId = numDeliveriesDetails;\n        Delivery storage deli = deliveriesDetails[requestId];\n\n        deli.requester = payable(msg.sender);\n        deli.amountToSend = msg.value;\n        deli.numInitialBlock = block.number + (_numMonthsToStart * BLOCKS_PER_MONTH);\n        deli.nextBlockControl = deli.numInitialBlock;\n        deli.numPeriods = _numPeriods;\n        deli.numRemainingPeriods = _numPeriods;\n        deli.isApproved = false;\n        deli.numParticipants = _numParticipants;\n        deli.beneficiary = _beneficiary;\n\n        for (uint i = 0; i < _numParticipants; i++) {\n            deli.participants.push();\n            deli.participants[i].participantAddress = _listParticipants[i];\n            deli.participants[i].participantStatus = ParticipantStatus.PENDING;\n            _setupRole(PARTICIPANT_ROLE, _listParticipants[i]);\n        }\n\n        _setupRole(CREATOR_ROLE, msg.sender);\n        emit deliveryCreated(deli.requester, requestId);\n    }\n\n    function getParticipantsDelivery(uint requestId) public view returns(ParticipantDetails[] memory listParticipants) {\n        listParticipants = deliveriesDetails[requestId].participants;\n    }\n\n    // A participant approves its participation in a automation process. Once all the participants have done this, the automation is activated:\n    function approveParticipation(uint requestId) public whenNotPaused onlyRole(PARTICIPANT_ROLE) returns(bool isParticipantApproved) {\n        require(deliveriesDetails[requestId].amountToSend > 0, \"Request ID not valid\");\n        require(!deliveriesDetails[requestId].isApproved, \"Delivery is already approved\");\n\n        uint counterApproved = 0;\n\n        for (uint i = 0; i < deliveriesDetails[requestId].numParticipants; i++) {\n\n            if (deliveriesDetails[requestId].participants[i].participantAddress == msg.sender &&\n                deliveriesDetails[requestId].participants[i].participantStatus == ParticipantStatus.PENDING) {\n                deliveriesDetails[requestId].participants[i].participantStatus = ParticipantStatus.APPROVED;\n                isParticipantApproved = true;\n                emit participantApproved(deliveriesDetails[requestId].requester, requestId, msg.sender);\n            }\n\n            if (deliveriesDetails[requestId].participants[i].participantStatus == ParticipantStatus.APPROVED) {\n                counterApproved++;\n            }\n        }\n\n        if (counterApproved == deliveriesDetails[requestId].numParticipants) {\n            deliveriesDetails[requestId].isApproved = true;\n            emit deliveryApproved(deliveriesDetails[requestId].requester, requestId, msg.sender);\n        }\n\n        assert(counterApproved <= deliveriesDetails[requestId].numParticipants);\n    }\n\n    // Check that the delivery is not approved (is still a request)\n    // Only the requester can cancel the delivery\n    // Include the amount in the pendingWithdrawals map (Common Patterns - Withdrawal from Contracts)\n    function cancelDeliveryRequest(uint requestId) public whenNotPaused onlyRole(CREATOR_ROLE) {\n        require(!deliveriesDetails[requestId].isApproved, \"Delivery is already APPROVED. Create cancel proposal.\" );\n        require(deliveriesDetails[requestId].requester == msg.sender, \"Only can be canceled by the requester\");\n\n        cancelDelivery(requestId);\n    }\n\n    function cancelDelivery(uint requestId) internal {\n        uint amount = deliveriesDetails[requestId].amountToSend;\n        deliveriesDetails[requestId].amountToSend = 0;\n        pendingWithdrawals[ deliveriesDetails[requestId].requester ] += amount;\n\n        emit pendingWithdrawal(deliveriesDetails[requestId].requester, requestId, amount);\n    }\n\n    // Common Patterns - Withdrawal from Contracts\n    function withdraw() public payable whenNotPaused {\n        require(pendingWithdrawals[msg.sender] > 0, \"No amount to be withdrawn\");\n\n        uint amount = pendingWithdrawals[msg.sender];\n        // Remember to zero the pending refund before\n        // sending to prevent re-entrancy attacks\n        pendingWithdrawals[msg.sender] = 0;\n        payable(msg.sender).transfer(amount);\n\n        emit withdrawalSent(msg.sender, amount);\n    }\n\n    //As the delivery has been already approved, it is necessary to create a proposal that have to be accepted by,\n    //at least, 51% of participants\n    function createCancelProposalDeliveryApproved(uint requestId) public whenNotPaused onlyRole(CREATOR_ROLE) returns(uint proposalId) {\n        require(deliveriesDetails[requestId].isApproved, \"Delivery is not approved.\" );\n        require(deliveriesDetails[requestId].requester == msg.sender, \"Only can be canceled by the requester\");\n\n        numCancelProposals++;\n        proposalId = numCancelProposals;\n\n        CancelProposal storage prop = cancelProposals[proposalId];\n        prop.deliveryId = requestId;\n        prop.numParticipants = deliveriesDetails[requestId].numParticipants;\n        prop.numParticipantsAccepted = 0;\n        prop.isAccepted = false;\n\n        for (uint i = 0; i < deliveriesDetails[requestId].numParticipants; i++) {\n            prop.participants.push();\n            prop.participants[i].participantAddress = deliveriesDetails[requestId].participants[i].participantAddress;\n            prop.participants[i].participantStatus = ParticipantStatus.PENDING;\n        }\n\n        //....crear la propuesta con los mismo datos de Delivery pero reemplazando solo el nuevo valor\n        //....una vez aprobada la propuesta, los nuevos valores reemplazan los antiguos (salvo el requester y amount)\n        //....en todo caso, se volvera a poner la peticin como pending, que es cuando se podr cancelar\n    }\n\n    function getParticipantsCancelProposal(uint proposalId) public view returns(ParticipantDetails[] memory listParticipants) {\n        listParticipants = cancelProposals[proposalId].participants;\n    }\n\n    // A participant accepts on a proposal to cancel a previously approved delivery. Once more than half of the participants have accepted it, it is canceled:\n    function approveCancelProposal(uint proposalId) public whenNotPaused onlyRole(PARTICIPANT_ROLE) returns(bool isProposalApproved) {\n        require(cancelProposals[proposalId].numParticipants > 0, \"Proposal ID not valid\");\n        require(!cancelProposals[proposalId].isAccepted, \"Proposal is already approved\");\n\n        uint counterAccepted = 0;\n\n        for (uint i = 0; i < cancelProposals[proposalId].numParticipants; i++) {\n\n            if (cancelProposals[proposalId].participants[i].participantAddress == msg.sender &&\n                cancelProposals[proposalId].participants[i].participantStatus == ParticipantStatus.PENDING) {\n                cancelProposals[proposalId].participants[i].participantStatus = ParticipantStatus.APPROVED;\n                isProposalApproved = true;\n                emit participantProposalAccepted(msg.sender, cancelProposals[proposalId].deliveryId, proposalId);\n            }\n\n            if (cancelProposals[proposalId].participants[i].participantStatus == ParticipantStatus.APPROVED) {\n                counterAccepted++;\n            }\n        }\n\n        cancelProposals[proposalId].numParticipantsAccepted = counterAccepted;\n\n        uint percentage = ((counterAccepted + 1) * 100) / (cancelProposals[proposalId].numParticipants + 1);\n\n        if (percentage > 51) {\n            cancelProposals[proposalId].isAccepted = true;\n            emit proposalAccepted(cancelProposals[proposalId].deliveryId, proposalId);\n        }\n\n        assert(counterAccepted <= cancelProposals[proposalId].numParticipants);\n\n        cancelDelivery(cancelProposals[proposalId].deliveryId);\n    }\n\n    function deliveryAutomation() public whenNotPaused {\n\n        uint checkPoint = block.number;\n\n        for (uint ind = 1; ind <= numDeliveriesDetails; ind++) {\n\n            if (deliveriesDetails[ind].amountToSend > 0 &&\n                deliveriesDetails[ind].nextBlockControl > checkPoint) {\n\n                numInstallments++;\n                if (deliveriesDetails[ind].numRemainingPeriods == 1) {\n                  installments[numInstallments].insAmount = deliveriesDetails[ind].amountToSend;\n                } else {\n                  installments[numInstallments].insAmount = deliveriesDetails[ind].amountToSend / deliveriesDetails[ind].numRemainingPeriods;\n                }\n                installments[numInstallments].insBeneficiary = deliveriesDetails[ind].beneficiary;\n\n                deliveriesDetails[ind].amountToSend = deliveriesDetails[ind].amountToSend - installments[numInstallments].insAmount;\n                deliveriesDetails[ind].numRemainingPeriods = deliveriesDetails[ind].numRemainingPeriods - 1;\n                deliveriesDetails[ind].nextBlockControl = deliveriesDetails[ind].nextBlockControl + BLOCKS_PER_MONTH;\n            }\n\n        }\n\n        transferInstallments();\n    }\n\n    function transferInstallments() internal {\n\n      uint _tip;\n      uint _totalTip;\n      uint _amount;\n      address payable _beneficiary;\n      address payable _addressZero = payable(address(0));\n\n      for (uint ind = 1; ind <= numInstallments; ind++) {\n\n        if (installments[ind].insAmount > 0) {\n          _amount = installments[ind].insAmount;\n          _beneficiary = installments[ind].insBeneficiary;\n\n          _tip = (_amount / 100);\n          _amount = _amount - _tip;\n          _totalTip += _tip;\n\n          installments[ind].insAmount = 0;\n          installments[ind].insBeneficiary = _addressZero;\n\n          _beneficiary.transfer(_amount);\n\n          emit installmentSent(_beneficiary, _amount);\n        }\n      }\n      numInstallments = 0;\n\n      payable(msg.sender).transfer(_totalTip);\n    }\n}\n",
  "sourcePath": "/home/lealp22/consensys/final-project/contracts/EthDeliverer.sol",
  "compiler": {
    "name": "solc",
    "version": "0.8.5+commit.a4f2e591.Emscripten.clang"
  },
  "schemaVersion": "3.4.3",
  "updatedAt": "2021-11-28T13:49:39.981Z",
  "networkType": "ethereum",
  "devdoc": {
    "details": "Given an amount of ethers deposited in this contract, it will be sent in installments to a given address automatically. It will be necessary the participation of between two and ten additional addresses so that they will be in charge of authorize any change proposal related to the initially established distribution.",
    "kind": "dev",
    "methods": {
      "getRoleAdmin(bytes32)": {
        "details": "Returns the admin role that controls `role`. See {grantRole} and {revokeRole}. To change a role's admin, use {_setRoleAdmin}."
      },
      "grantRole(bytes32,address)": {
        "details": "Grants `role` to `account`. If `account` had not been already granted `role`, emits a {RoleGranted} event. Requirements: - the caller must have ``role``'s admin role."
      },
      "hasRole(bytes32,address)": {
        "details": "Returns `true` if `account` has been granted `role`."
      },
      "paused()": {
        "details": "Returns true if the contract is paused, and false otherwise."
      },
      "renounceRole(bytes32,address)": {
        "details": "Revokes `role` from the calling account. Roles are often managed via {grantRole} and {revokeRole}: this function's purpose is to provide a mechanism for accounts to lose their privileges if they are compromised (such as when a trusted device is misplaced). If the calling account had been revoked `role`, emits a {RoleRevoked} event. Requirements: - the caller must be `account`."
      },
      "revokeRole(bytes32,address)": {
        "details": "Revokes `role` from `account`. If `account` had been granted `role`, emits a {RoleRevoked} event. Requirements: - the caller must have ``role``'s admin role."
      },
      "supportsInterface(bytes4)": {
        "details": "See {IERC165-supportsInterface}."
      }
    },
    "title": "EthDeliverer",
    "version": 1
  },
  "userdoc": {
    "kind": "user",
    "methods": {},
    "version": 1
  }
}