{
  "contractName": "EthDeliverer",
  "abi": [
    {
      "inputs": [],
      "stateMutability": "nonpayable",
      "type": "constructor"
    },
    {
      "anonymous": false,
      "inputs": [
        {
          "indexed": false,
          "internalType": "address",
          "name": "account",
          "type": "address"
        }
      ],
      "name": "Paused",
      "type": "event"
    },
    {
      "anonymous": false,
      "inputs": [
        {
          "indexed": true,
          "internalType": "bytes32",
          "name": "role",
          "type": "bytes32"
        },
        {
          "indexed": true,
          "internalType": "bytes32",
          "name": "previousAdminRole",
          "type": "bytes32"
        },
        {
          "indexed": true,
          "internalType": "bytes32",
          "name": "newAdminRole",
          "type": "bytes32"
        }
      ],
      "name": "RoleAdminChanged",
      "type": "event"
    },
    {
      "anonymous": false,
      "inputs": [
        {
          "indexed": true,
          "internalType": "bytes32",
          "name": "role",
          "type": "bytes32"
        },
        {
          "indexed": true,
          "internalType": "address",
          "name": "account",
          "type": "address"
        },
        {
          "indexed": true,
          "internalType": "address",
          "name": "sender",
          "type": "address"
        }
      ],
      "name": "RoleGranted",
      "type": "event"
    },
    {
      "anonymous": false,
      "inputs": [
        {
          "indexed": true,
          "internalType": "bytes32",
          "name": "role",
          "type": "bytes32"
        },
        {
          "indexed": true,
          "internalType": "address",
          "name": "account",
          "type": "address"
        },
        {
          "indexed": true,
          "internalType": "address",
          "name": "sender",
          "type": "address"
        }
      ],
      "name": "RoleRevoked",
      "type": "event"
    },
    {
      "anonymous": false,
      "inputs": [
        {
          "indexed": false,
          "internalType": "address",
          "name": "account",
          "type": "address"
        }
      ],
      "name": "Unpaused",
      "type": "event"
    },
    {
      "anonymous": false,
      "inputs": [
        {
          "indexed": true,
          "internalType": "address",
          "name": "requester",
          "type": "address"
        },
        {
          "indexed": false,
          "internalType": "uint256",
          "name": "requestId",
          "type": "uint256"
        },
        {
          "indexed": true,
          "internalType": "address",
          "name": "participant",
          "type": "address"
        }
      ],
      "name": "deliveryApproved",
      "type": "event"
    },
    {
      "anonymous": false,
      "inputs": [
        {
          "indexed": true,
          "internalType": "address",
          "name": "requester",
          "type": "address"
        },
        {
          "indexed": false,
          "internalType": "uint256",
          "name": "requestId",
          "type": "uint256"
        }
      ],
      "name": "deliveryCreated",
      "type": "event"
    },
    {
      "anonymous": false,
      "inputs": [
        {
          "indexed": true,
          "internalType": "address",
          "name": "beneficiary",
          "type": "address"
        },
        {
          "indexed": false,
          "internalType": "uint256",
          "name": "amount",
          "type": "uint256"
        }
      ],
      "name": "installmentSent",
      "type": "event"
    },
    {
      "anonymous": false,
      "inputs": [
        {
          "indexed": true,
          "internalType": "address",
          "name": "requester",
          "type": "address"
        },
        {
          "indexed": false,
          "internalType": "uint256",
          "name": "requestId",
          "type": "uint256"
        },
        {
          "indexed": true,
          "internalType": "address",
          "name": "participant",
          "type": "address"
        }
      ],
      "name": "participantApproved",
      "type": "event"
    },
    {
      "anonymous": false,
      "inputs": [
        {
          "indexed": true,
          "internalType": "address",
          "name": "participant",
          "type": "address"
        },
        {
          "indexed": true,
          "internalType": "uint256",
          "name": "deliveryId",
          "type": "uint256"
        },
        {
          "indexed": false,
          "internalType": "uint256",
          "name": "proposalId",
          "type": "uint256"
        }
      ],
      "name": "participantProposalAccepted",
      "type": "event"
    },
    {
      "anonymous": false,
      "inputs": [
        {
          "indexed": true,
          "internalType": "address",
          "name": "requester",
          "type": "address"
        },
        {
          "indexed": false,
          "internalType": "uint256",
          "name": "requestId",
          "type": "uint256"
        },
        {
          "indexed": false,
          "internalType": "uint256",
          "name": "amount",
          "type": "uint256"
        }
      ],
      "name": "pendingWithdrawal",
      "type": "event"
    },
    {
      "anonymous": false,
      "inputs": [
        {
          "indexed": true,
          "internalType": "uint256",
          "name": "deliveryId",
          "type": "uint256"
        },
        {
          "indexed": false,
          "internalType": "uint256",
          "name": "proposalId",
          "type": "uint256"
        }
      ],
      "name": "proposalAccepted",
      "type": "event"
    },
    {
      "anonymous": false,
      "inputs": [
        {
          "indexed": true,
          "internalType": "address",
          "name": "requester",
          "type": "address"
        },
        {
          "indexed": false,
          "internalType": "uint256",
          "name": "amount",
          "type": "uint256"
        }
      ],
      "name": "withdrawalSent",
      "type": "event"
    },
    {
      "inputs": [],
      "name": "BLOCKS_PER_MONTH",
      "outputs": [
        {
          "internalType": "uint256",
          "name": "",
          "type": "uint256"
        }
      ],
      "stateMutability": "view",
      "type": "function",
      "constant": true
    },
    {
      "inputs": [],
      "name": "CREATOR_ROLE",
      "outputs": [
        {
          "internalType": "bytes32",
          "name": "",
          "type": "bytes32"
        }
      ],
      "stateMutability": "view",
      "type": "function",
      "constant": true
    },
    {
      "inputs": [],
      "name": "DEFAULT_ADMIN_ROLE",
      "outputs": [
        {
          "internalType": "bytes32",
          "name": "",
          "type": "bytes32"
        }
      ],
      "stateMutability": "view",
      "type": "function",
      "constant": true
    },
    {
      "inputs": [],
      "name": "PARTICIPANT_ROLE",
      "outputs": [
        {
          "internalType": "bytes32",
          "name": "",
          "type": "bytes32"
        }
      ],
      "stateMutability": "view",
      "type": "function",
      "constant": true
    },
    {
      "inputs": [],
      "name": "PAUSER_ROLE",
      "outputs": [
        {
          "internalType": "bytes32",
          "name": "",
          "type": "bytes32"
        }
      ],
      "stateMutability": "view",
      "type": "function",
      "constant": true
    },
    {
      "inputs": [
        {
          "internalType": "uint256",
          "name": "",
          "type": "uint256"
        }
      ],
      "name": "cancelProposals",
      "outputs": [
        {
          "internalType": "uint256",
          "name": "deliveryId",
          "type": "uint256"
        },
        {
          "internalType": "uint256",
          "name": "numParticipants",
          "type": "uint256"
        },
        {
          "internalType": "uint256",
          "name": "numParticipantsAccepted",
          "type": "uint256"
        },
        {
          "internalType": "bool",
          "name": "isAccepted",
          "type": "bool"
        }
      ],
      "stateMutability": "view",
      "type": "function",
      "constant": true
    },
    {
      "inputs": [
        {
          "internalType": "uint256",
          "name": "",
          "type": "uint256"
        }
      ],
      "name": "deliveriesDetails",
      "outputs": [
        {
          "internalType": "address payable",
          "name": "requester",
          "type": "address"
        },
        {
          "internalType": "address payable",
          "name": "beneficiary",
          "type": "address"
        },
        {
          "internalType": "uint256",
          "name": "amountToSend",
          "type": "uint256"
        },
        {
          "internalType": "uint256",
          "name": "numInitialBlock",
          "type": "uint256"
        },
        {
          "internalType": "uint256",
          "name": "nextBlockControl",
          "type": "uint256"
        },
        {
          "internalType": "uint256",
          "name": "numPeriods",
          "type": "uint256"
        },
        {
          "internalType": "uint256",
          "name": "numRemainingPeriods",
          "type": "uint256"
        },
        {
          "internalType": "bool",
          "name": "isApproved",
          "type": "bool"
        },
        {
          "internalType": "uint256",
          "name": "numParticipants",
          "type": "uint256"
        }
      ],
      "stateMutability": "view",
      "type": "function",
      "constant": true
    },
    {
      "inputs": [
        {
          "internalType": "bytes32",
          "name": "role",
          "type": "bytes32"
        }
      ],
      "name": "getRoleAdmin",
      "outputs": [
        {
          "internalType": "bytes32",
          "name": "",
          "type": "bytes32"
        }
      ],
      "stateMutability": "view",
      "type": "function",
      "constant": true
    },
    {
      "inputs": [
        {
          "internalType": "bytes32",
          "name": "role",
          "type": "bytes32"
        },
        {
          "internalType": "address",
          "name": "account",
          "type": "address"
        }
      ],
      "name": "grantRole",
      "outputs": [],
      "stateMutability": "nonpayable",
      "type": "function"
    },
    {
      "inputs": [
        {
          "internalType": "bytes32",
          "name": "role",
          "type": "bytes32"
        },
        {
          "internalType": "address",
          "name": "account",
          "type": "address"
        }
      ],
      "name": "hasRole",
      "outputs": [
        {
          "internalType": "bool",
          "name": "",
          "type": "bool"
        }
      ],
      "stateMutability": "view",
      "type": "function",
      "constant": true
    },
    {
      "inputs": [],
      "name": "numCancelProposals",
      "outputs": [
        {
          "internalType": "uint256",
          "name": "",
          "type": "uint256"
        }
      ],
      "stateMutability": "view",
      "type": "function",
      "constant": true
    },
    {
      "inputs": [],
      "name": "numDeliveriesDetails",
      "outputs": [
        {
          "internalType": "uint256",
          "name": "",
          "type": "uint256"
        }
      ],
      "stateMutability": "view",
      "type": "function",
      "constant": true
    },
    {
      "inputs": [],
      "name": "numInstallments",
      "outputs": [
        {
          "internalType": "uint256",
          "name": "",
          "type": "uint256"
        }
      ],
      "stateMutability": "view",
      "type": "function",
      "constant": true
    },
    {
      "inputs": [],
      "name": "paused",
      "outputs": [
        {
          "internalType": "bool",
          "name": "",
          "type": "bool"
        }
      ],
      "stateMutability": "view",
      "type": "function",
      "constant": true
    },
    {
      "inputs": [
        {
          "internalType": "address",
          "name": "",
          "type": "address"
        }
      ],
      "name": "pendingWithdrawals",
      "outputs": [
        {
          "internalType": "uint256",
          "name": "",
          "type": "uint256"
        }
      ],
      "stateMutability": "view",
      "type": "function",
      "constant": true
    },
    {
      "inputs": [
        {
          "internalType": "bytes32",
          "name": "role",
          "type": "bytes32"
        },
        {
          "internalType": "address",
          "name": "account",
          "type": "address"
        }
      ],
      "name": "renounceRole",
      "outputs": [],
      "stateMutability": "nonpayable",
      "type": "function"
    },
    {
      "inputs": [
        {
          "internalType": "bytes32",
          "name": "role",
          "type": "bytes32"
        },
        {
          "internalType": "address",
          "name": "account",
          "type": "address"
        }
      ],
      "name": "revokeRole",
      "outputs": [],
      "stateMutability": "nonpayable",
      "type": "function"
    },
    {
      "inputs": [
        {
          "internalType": "bytes4",
          "name": "interfaceId",
          "type": "bytes4"
        }
      ],
      "name": "supportsInterface",
      "outputs": [
        {
          "internalType": "bool",
          "name": "",
          "type": "bool"
        }
      ],
      "stateMutability": "view",
      "type": "function",
      "constant": true
    },
    {
      "inputs": [],
      "name": "pause",
      "outputs": [],
      "stateMutability": "nonpayable",
      "type": "function"
    },
    {
      "inputs": [],
      "name": "unpause",
      "outputs": [],
      "stateMutability": "nonpayable",
      "type": "function"
    },
    {
      "inputs": [
        {
          "internalType": "uint256",
          "name": "_numMonthsToStart",
          "type": "uint256"
        },
        {
          "internalType": "uint256",
          "name": "_numPeriods",
          "type": "uint256"
        },
        {
          "internalType": "uint256",
          "name": "_numParticipants",
          "type": "uint256"
        },
        {
          "internalType": "address[]",
          "name": "_listParticipants",
          "type": "address[]"
        },
        {
          "internalType": "address payable",
          "name": "_beneficiary",
          "type": "address"
        }
      ],
      "name": "createDeliveryRequest",
      "outputs": [
        {
          "internalType": "uint256",
          "name": "requestId",
          "type": "uint256"
        }
      ],
      "stateMutability": "payable",
      "type": "function",
      "payable": true
    },
    {
      "inputs": [
        {
          "internalType": "uint256",
          "name": "requestId",
          "type": "uint256"
        }
      ],
      "name": "getParticipantsDelivery",
      "outputs": [
        {
          "components": [
            {
              "internalType": "address",
              "name": "participantAddress",
              "type": "address"
            },
            {
              "internalType": "enum EthDeliverer.ParticipantStatus",
              "name": "participantStatus",
              "type": "uint8"
            }
          ],
          "internalType": "struct EthDeliverer.ParticipantDetails[]",
          "name": "listParticipants",
          "type": "tuple[]"
        }
      ],
      "stateMutability": "view",
      "type": "function",
      "constant": true
    },
    {
      "inputs": [
        {
          "internalType": "uint256",
          "name": "requestId",
          "type": "uint256"
        }
      ],
      "name": "approveParticipation",
      "outputs": [
        {
          "internalType": "bool",
          "name": "isParticipantApproved",
          "type": "bool"
        }
      ],
      "stateMutability": "nonpayable",
      "type": "function"
    },
    {
      "inputs": [
        {
          "internalType": "uint256",
          "name": "requestId",
          "type": "uint256"
        }
      ],
      "name": "cancelDeliveryRequest",
      "outputs": [],
      "stateMutability": "nonpayable",
      "type": "function"
    },
    {
      "inputs": [],
      "name": "withdraw",
      "outputs": [],
      "stateMutability": "payable",
      "type": "function",
      "payable": true
    },
    {
      "inputs": [],
      "name": "amountWithdraw",
      "outputs": [
        {
          "internalType": "uint256",
          "name": "amount",
          "type": "uint256"
        }
      ],
      "stateMutability": "view",
      "type": "function",
      "constant": true
    },
    {
      "inputs": [
        {
          "internalType": "uint256",
          "name": "requestId",
          "type": "uint256"
        }
      ],
      "name": "createCancelProposalDeliveryApproved",
      "outputs": [
        {
          "internalType": "uint256",
          "name": "proposalId",
          "type": "uint256"
        }
      ],
      "stateMutability": "nonpayable",
      "type": "function"
    },
    {
      "inputs": [
        {
          "internalType": "uint256",
          "name": "proposalId",
          "type": "uint256"
        }
      ],
      "name": "getParticipantsCancelProposal",
      "outputs": [
        {
          "components": [
            {
              "internalType": "address",
              "name": "participantAddress",
              "type": "address"
            },
            {
              "internalType": "enum EthDeliverer.ParticipantStatus",
              "name": "participantStatus",
              "type": "uint8"
            }
          ],
          "internalType": "struct EthDeliverer.ParticipantDetails[]",
          "name": "listParticipants",
          "type": "tuple[]"
        }
      ],
      "stateMutability": "view",
      "type": "function",
      "constant": true
    },
    {
      "inputs": [
        {
          "internalType": "uint256",
          "name": "proposalId",
          "type": "uint256"
        }
      ],
      "name": "approveCancelProposal",
      "outputs": [
        {
          "internalType": "bool",
          "name": "isProposalApproved",
          "type": "bool"
        }
      ],
      "stateMutability": "nonpayable",
      "type": "function"
    },
    {
      "inputs": [],
      "name": "deliveryAutomation",
      "outputs": [],
      "stateMutability": "nonpayable",
      "type": "function"
    }
  ],
  "bytecode": "0x60806040523480156200001157600080fd5b5060008060006101000a81548160ff021916908315150217905550620000416000801b336200008960201b60201c565b620000737f65d7a28e3265b37a6474929f336521b332c1681b933f6cb9f3376673440d862a336200008960201b60201c565b6000600281905550600060038190555062000203565b6200009b82826200009f60201b60201c565b5050565b620000b182826200019060201b60201c565b6200018c57600180600084815260200190815260200160002060000160008373ffffffffffffffffffffffffffffffffffffffff1673ffffffffffffffffffffffffffffffffffffffff16815260200190815260200160002060006101000a81548160ff02191690831515021790555062000131620001fb60201b60201c565b73ffffffffffffffffffffffffffffffffffffffff168173ffffffffffffffffffffffffffffffffffffffff16837f2f8788117e7eff1d82e926ec794901d17c78024a50270940304540a733656f0d60405160405180910390a45b5050565b60006001600084815260200190815260200160002060000160008373ffffffffffffffffffffffffffffffffffffffff1673ffffffffffffffffffffffffffffffffffffffff16815260200190815260200160002060009054906101000a900460ff16905092915050565b600033905090565b61439480620002136000396000f3fe6080604052600436106101cd5760003560e01c80638456cb59116100f7578063d236bc3a11610095578063e63ab1e911610064578063e63ab1e91461066b578063f3f4370314610696578063f72337ad146106d3578063fc6a1d3114610710576101cd565b8063d236bc3a146105a7578063d547741f146105ec578063e3ab35ef14610615578063e4e06c5a14610640576101cd565b806394050dff116100d157806394050dff14610511578063a217fddf1461053a578063c409084a14610565578063c78a706414610590576101cd565b80638456cb59146104925780638aeda25a146104a957806391d14854146104d4576101cd565b80633f4ba83a1161016f5780635f8a7abe1161013e5780635f8a7abe146103cf57806363aa480b146103fa57806368dca0f714610437578063705cec8414610467576101cd565b80633f4ba83a146103105780634126f78f1461032757806349aafa13146103675780635c975abb146103a4576101cd565b80632f2ff15d116101ab5780632f2ff15d1461027757806336568abe146102a0578063397e813e146102c95780633ccfd60b14610306576101cd565b806301ffc9a7146101d257806309eb29171461020f578063248a9ca31461023a575b600080fd5b3480156101de57600080fd5b506101f960048036038101906101f49190613208565b61074d565b60405161020691906137eb565b60405180910390f35b34801561021b57600080fd5b506102246107c7565b6040516102319190613a43565b60405180910390f35b34801561024657600080fd5b50610261600480360381019061025c919061319b565b61080e565b60405161026e9190613806565b60405180910390f35b34801561028357600080fd5b5061029e600480360381019061029991906131c8565b61082e565b005b3480156102ac57600080fd5b506102c760048036038101906102c291906131c8565b610857565b005b3480156102d557600080fd5b506102f060048036038101906102eb9190613235565b6108da565b6040516102fd91906137eb565b60405180910390f35b61030e610dd7565b005b34801561031c57600080fd5b50610325610fc2565b005b34801561033357600080fd5b5061034e60048036038101906103499190613235565b610fff565b60405161035e9493929190613a87565b60405180910390f35b34801561037357600080fd5b5061038e60048036038101906103899190613235565b61103c565b60405161039b9190613a43565b60405180910390f35b3480156103b057600080fd5b506103b96113a0565b6040516103c691906137eb565b60405180910390f35b3480156103db57600080fd5b506103e46113b6565b6040516103f19190613806565b60405180910390f35b34801561040657600080fd5b50610421600480360381019061041c9190613235565b6113da565b60405161042e91906137c9565b60405180910390f35b610451600480360381019061044c9190613262565b6114dc565b60405161045e9190613a43565b60405180910390f35b34801561047357600080fd5b5061047c6119cc565b6040516104899190613a43565b60405180910390f35b34801561049e57600080fd5b506104a76119d2565b005b3480156104b557600080fd5b506104be611a0f565b6040516104cb9190613806565b60405180910390f35b3480156104e057600080fd5b506104fb60048036038101906104f691906131c8565b611a33565b60405161050891906137eb565b60405180910390f35b34801561051d57600080fd5b5061053860048036038101906105339190613235565b611a9e565b005b34801561054657600080fd5b5061054f611c2d565b60405161055c9190613806565b60405180910390f35b34801561057157600080fd5b5061057a611c34565b6040516105879190613a43565b60405180910390f35b34801561059c57600080fd5b506105a5611c3b565b005b3480156105b357600080fd5b506105ce60048036038101906105c99190613235565b611f55565b6040516105e39998979695949392919061373c565b60405180910390f35b3480156105f857600080fd5b50610613600480360381019061060e91906131c8565b611ff0565b005b34801561062157600080fd5b5061062a612019565b6040516106379190613a43565b60405180910390f35b34801561064c57600080fd5b5061065561201f565b6040516106629190613a43565b60405180910390f35b34801561067757600080fd5b50610680612025565b60405161068d9190613806565b60405180910390f35b3480156106a257600080fd5b506106bd60048036038101906106b8919061316e565b612049565b6040516106ca9190613a43565b60405180910390f35b3480156106df57600080fd5b506106fa60048036038101906106f59190613235565b612061565b60405161070791906137c9565b60405180910390f35b34801561071c57600080fd5b5061073760048036038101906107329190613235565b612163565b60405161074491906137eb565b60405180910390f35b60007f7965db0b000000000000000000000000000000000000000000000000000000007bffffffffffffffffffffffffffffffffffffffffffffffffffffffff1916827bffffffffffffffffffffffffffffffffffffffffffffffffffffffff191614806107c057506107bf8261264d565b5b9050919050565b6000600860003373ffffffffffffffffffffffffffffffffffffffff1673ffffffffffffffffffffffffffffffffffffffff16815260200190815260200160002054905090565b600060016000838152602001908152602001600020600101549050919050565b6108378261080e565b610848816108436126b7565b6126bf565b610852838361275c565b505050565b61085f6126b7565b73ffffffffffffffffffffffffffffffffffffffff168173ffffffffffffffffffffffffffffffffffffffff16146108cc576040517f08c379a00000000000000000000000000000000000000000000000000000000081526004016108c390613a23565b60405180910390fd5b6108d6828261283c565b5050565b60006108e46113a0565b15610924576040517f08c379a000000000000000000000000000000000000000000000000000000000815260040161091b90613923565b60405180910390fd5b7f938c45fe3baa5cbd047f2473358a27f57db22291e9af95379a15ad016886dfb7610956816109516126b7565b6126bf565b60006006600085815260200190815260200160002060020154116109af576040517f08c379a00000000000000000000000000000000000000000000000000000000081526004016109a690613883565b60405180910390fd5b6006600084815260200190815260200160002060070160009054906101000a900460ff1615610a13576040517f08c379a0000000000000000000000000000000000000000000000000000000008152600401610a0a906138a3565b60405180910390fd5b6000805b6006600086815260200190815260200160002060080154811015610cbf573373ffffffffffffffffffffffffffffffffffffffff16600660008781526020019081526020016000206009018281548110610a7457610a73613eda565b5b9060005260206000200160000160009054906101000a900473ffffffffffffffffffffffffffffffffffffffff1673ffffffffffffffffffffffffffffffffffffffff16148015610b2b575060016003811115610ad457610ad3613eab565b5b600660008781526020019081526020016000206009018281548110610afc57610afb613eda565b5b9060005260206000200160000160149054906101000a900460ff166003811115610b2957610b28613eab565b5b145b15610c2e576002600660008781526020019081526020016000206009018281548110610b5a57610b59613eda565b5b9060005260206000200160000160146101000a81548160ff02191690836003811115610b8957610b88613eab565b5b0217905550600193503373ffffffffffffffffffffffffffffffffffffffff166006600087815260200190815260200160002060000160009054906101000a900473ffffffffffffffffffffffffffffffffffffffff1673ffffffffffffffffffffffffffffffffffffffff167fc6efb5caca780cf5eb5064a0283d47509ea038ded04276fe0c39f1f893a7837087604051610c259190613a43565b60405180910390a35b60026003811115610c4257610c41613eab565b5b600660008781526020019081526020016000206009018281548110610c6a57610c69613eda565b5b9060005260206000200160000160149054906101000a900460ff166003811115610c9757610c96613eab565b5b1415610cac578180610ca890613dd5565b9250505b8080610cb790613dd5565b915050610a17565b506006600085815260200190815260200160002060080154811415610da95760016006600086815260200190815260200160002060070160006101000a81548160ff0219169083151502179055503373ffffffffffffffffffffffffffffffffffffffff166006600086815260200190815260200160002060000160009054906101000a900473ffffffffffffffffffffffffffffffffffffffff1673ffffffffffffffffffffffffffffffffffffffff167fefac5c7263eb70fa0c95c858b08f503955dbd1bdf566a03113c49812f1fb8d5286604051610da09190613a43565b60405180910390a35b6006600085815260200190815260200160002060080154811115610dd057610dcf613e1e565b5b5050919050565b610ddf6113a0565b15610e1f576040517f08c379a0000000000000000000000000000000000000000000000000000000008152600401610e1690613923565b60405180910390fd5b6000600860003373ffffffffffffffffffffffffffffffffffffffff1673ffffffffffffffffffffffffffffffffffffffff1681526020019081526020016000205411610ea1576040517f08c379a0000000000000000000000000000000000000000000000000000000008152600401610e9890613903565b60405180910390fd5b6000600860003373ffffffffffffffffffffffffffffffffffffffff1673ffffffffffffffffffffffffffffffffffffffff1681526020019081526020016000205490506000600860003373ffffffffffffffffffffffffffffffffffffffff1673ffffffffffffffffffffffffffffffffffffffff168152602001908152602001600020819055503373ffffffffffffffffffffffffffffffffffffffff166108fc829081150290604051600060405180830381858888f19350505050158015610f70573d6000803e3d6000fd5b503373ffffffffffffffffffffffffffffffffffffffff167f5df299bce8b20381d135c721bf8546d2fffedade9f6457de2d77e3cc51481f1c82604051610fb79190613a43565b60405180910390a250565b7f65d7a28e3265b37a6474929f336521b332c1681b933f6cb9f3376673440d862a610ff481610fef6126b7565b6126bf565b610ffc61291e565b50565b60076020528060005260406000206000915090508060000154908060010154908060020154908060040160009054906101000a900460ff16905084565b60006110466113a0565b15611086576040517f08c379a000000000000000000000000000000000000000000000000000000000815260040161107d90613923565b60405180910390fd5b7f828634d95e775031b9ff576b159a8509d3053581a8c9c4d7d86899e0afcd882f6110b8816110b36126b7565b6126bf565b6006600084815260200190815260200160002060070160009054906101000a900460ff1661111b576040517f08c379a0000000000000000000000000000000000000000000000000000000008152600401611112906139e3565b60405180910390fd5b3373ffffffffffffffffffffffffffffffffffffffff166006600085815260200190815260200160002060000160009054906101000a900473ffffffffffffffffffffffffffffffffffffffff1673ffffffffffffffffffffffffffffffffffffffff16146111bf576040517f08c379a00000000000000000000000000000000000000000000000000000000081526004016111b690613943565b60405180910390fd5b600360008154809291906111d290613dd5565b919050555060035491506000600760008481526020019081526020016000209050838160000181905550600660008581526020019081526020016000206008015481600101819055506000816002018190555060008160040160006101000a81548160ff02191690831515021790555060005b600660008681526020019081526020016000206008015481101561139857816003016001816001815401808255809150500390600052602060002050506006600086815260200190815260200160002060090181815481106112aa576112a9613eda565b5b9060005260206000200160000160009054906101000a900473ffffffffffffffffffffffffffffffffffffffff168260030182815481106112ee576112ed613eda565b5b9060005260206000200160000160006101000a81548173ffffffffffffffffffffffffffffffffffffffff021916908373ffffffffffffffffffffffffffffffffffffffff160217905550600182600301828154811061135157611350613eda565b5b9060005260206000200160000160146101000a81548160ff021916908360038111156113805761137f613eab565b5b0217905550808061139090613dd5565b915050611245565b505050919050565b60008060009054906101000a900460ff16905090565b7f938c45fe3baa5cbd047f2473358a27f57db22291e9af95379a15ad016886dfb781565b606060066000838152602001908152602001600020600901805480602002602001604051908101604052809291908181526020016000905b828210156114d1578382906000526020600020016040518060400160405290816000820160009054906101000a900473ffffffffffffffffffffffffffffffffffffffff1673ffffffffffffffffffffffffffffffffffffffff1673ffffffffffffffffffffffffffffffffffffffff1681526020016000820160149054906101000a900460ff1660038111156114ac576114ab613eab565b5b60038111156114be576114bd613eab565b5b8152505081526020019060010190611412565b505050509050919050565b60006114e66113a0565b15611526576040517f08c379a000000000000000000000000000000000000000000000000000000000815260040161151d90613923565b60405180910390fd5b60003411611569576040517f08c379a000000000000000000000000000000000000000000000000000000000815260040161156090613983565b60405180910390fd5b6000861180156115795750600085115b6115b8576040517f08c379a00000000000000000000000000000000000000000000000000000000081526004016115af906138e3565b60405180910390fd5b600284101580156115ca5750600a8411155b611609576040517f08c379a0000000000000000000000000000000000000000000000000000000008152600401611600906138c3565b60405180910390fd5b60005b848110156116b157600073ffffffffffffffffffffffffffffffffffffffff1684828151811061163f5761163e613eda565b5b602002602001015173ffffffffffffffffffffffffffffffffffffffff16141561169e576040517f08c379a000000000000000000000000000000000000000000000000000000000815260040161169590613963565b60405180910390fd5b80806116a990613dd5565b91505061160c565b50600260008154809291906116c590613dd5565b919050555060025490506000600660008381526020019081526020016000209050338160000160006101000a81548173ffffffffffffffffffffffffffffffffffffffff021916908373ffffffffffffffffffffffffffffffffffffffff1602179055503481600201819055506202ee00876117419190613c04565b4361174c9190613b7d565b81600301819055508060030154816004018190555085816005018190555085816006018190555060008160070160006101000a81548160ff021916908315150217905550848160080181905550828160010160006101000a81548173ffffffffffffffffffffffffffffffffffffffff021916908373ffffffffffffffffffffffffffffffffffffffff16021790555060005b85811015611925578160090160018160018154018082558091505003906000526020600020505084818151811061181957611818613eda565b5b602002602001015182600901828154811061183757611836613eda565b5b9060005260206000200160000160006101000a81548173ffffffffffffffffffffffffffffffffffffffff021916908373ffffffffffffffffffffffffffffffffffffffff160217905550600182600901828154811061189a57611899613eda565b5b9060005260206000200160000160146101000a81548160ff021916908360038111156118c9576118c8613eab565b5b02179055506119127f938c45fe3baa5cbd047f2473358a27f57db22291e9af95379a15ad016886dfb786838151811061190557611904613eda565b5b60200260200101516129bf565b808061191d90613dd5565b9150506117df565b506119507f828634d95e775031b9ff576b159a8509d3053581a8c9c4d7d86899e0afcd882f336129bf565b8060000160009054906101000a900473ffffffffffffffffffffffffffffffffffffffff1673ffffffffffffffffffffffffffffffffffffffff167f5c816eb95ed1e0de7a6a6a5f6ffb61888d07881d2e84d800df96682e65666713836040516119ba9190613a43565b60405180910390a25095945050505050565b60025481565b7f65d7a28e3265b37a6474929f336521b332c1681b933f6cb9f3376673440d862a611a04816119ff6126b7565b6126bf565b611a0c6129cd565b50565b7f828634d95e775031b9ff576b159a8509d3053581a8c9c4d7d86899e0afcd882f81565b60006001600084815260200190815260200160002060000160008373ffffffffffffffffffffffffffffffffffffffff1673ffffffffffffffffffffffffffffffffffffffff16815260200190815260200160002060009054906101000a900460ff16905092915050565b611aa66113a0565b15611ae6576040517f08c379a0000000000000000000000000000000000000000000000000000000008152600401611add90613923565b60405180910390fd5b7f828634d95e775031b9ff576b159a8509d3053581a8c9c4d7d86899e0afcd882f611b1881611b136126b7565b6126bf565b6006600083815260200190815260200160002060070160009054906101000a900460ff1615611b7c576040517f08c379a0000000000000000000000000000000000000000000000000000000008152600401611b7390613a03565b60405180910390fd5b3373ffffffffffffffffffffffffffffffffffffffff166006600084815260200190815260200160002060000160009054906101000a900473ffffffffffffffffffffffffffffffffffffffff1673ffffffffffffffffffffffffffffffffffffffff1614611c20576040517f08c379a0000000000000000000000000000000000000000000000000000000008152600401611c1790613943565b60405180910390fd5b611c2982612a6f565b5050565b6000801b81565b6202ee0081565b611c436113a0565b15611c83576040517f08c379a0000000000000000000000000000000000000000000000000000000008152600401611c7a90613923565b60405180910390fd5b60004390506000600190505b6002548111611f495760006006600083815260200190815260200160002060020154118015611cd35750816006600083815260200190815260200160002060040154115b15611f365760046000815480929190611ceb90613dd5565b9190505550600160066000838152602001908152602001600020600601541415611d56576006600082815260200190815260200160002060020154600560045481548110611d3c57611d3b613eda565b5b906000526020600020906002020160000181905550611dba565b60066000828152602001908152602001600020600601546006600083815260200190815260200160002060020154611d8e9190613bd3565b600560045481548110611da457611da3613eda565b5b9060005260206000209060020201600001819055505b6006600082815260200190815260200160002060010160009054906101000a900473ffffffffffffffffffffffffffffffffffffffff16600560045481548110611e0757611e06613eda565b5b906000526020600020906002020160010160006101000a81548173ffffffffffffffffffffffffffffffffffffffff021916908373ffffffffffffffffffffffffffffffffffffffff160217905550600560045481548110611e6c57611e6b613eda565b5b9060005260206000209060020201600001546006600083815260200190815260200160002060020154611e9f9190613c5e565b600660008381526020019081526020016000206002018190555060016006600083815260200190815260200160002060060154611edc9190613c5e565b60066000838152602001908152602001600020600601819055506202ee006006600083815260200190815260200160002060040154611f1b9190613b7d565b60066000838152602001908152602001600020600401819055505b8080611f4190613dd5565b915050611c8f565b50611f52612bbc565b50565b60066020528060005260406000206000915090508060000160009054906101000a900473ffffffffffffffffffffffffffffffffffffffff16908060010160009054906101000a900473ffffffffffffffffffffffffffffffffffffffff16908060020154908060030154908060040154908060050154908060060154908060070160009054906101000a900460ff16908060080154905089565b611ff98261080e565b61200a816120056126b7565b6126bf565b612014838361283c565b505050565b60035481565b60045481565b7f65d7a28e3265b37a6474929f336521b332c1681b933f6cb9f3376673440d862a81565b60086020528060005260406000206000915090505481565b606060076000838152602001908152602001600020600301805480602002602001604051908101604052809291908181526020016000905b82821015612158578382906000526020600020016040518060400160405290816000820160009054906101000a900473ffffffffffffffffffffffffffffffffffffffff1673ffffffffffffffffffffffffffffffffffffffff1673ffffffffffffffffffffffffffffffffffffffff1681526020016000820160149054906101000a900460ff16600381111561213357612132613eab565b5b600381111561214557612144613eab565b5b8152505081526020019060010190612099565b505050509050919050565b600061216d6113a0565b156121ad576040517f08c379a00000000000000000000000000000000000000000000000000000000081526004016121a490613923565b60405180910390fd5b7f938c45fe3baa5cbd047f2473358a27f57db22291e9af95379a15ad016886dfb76121df816121da6126b7565b6126bf565b6000600760008581526020019081526020016000206001015411612238576040517f08c379a000000000000000000000000000000000000000000000000000000000815260040161222f906139a3565b60405180910390fd5b6007600084815260200190815260200160002060040160009054906101000a900460ff161561229c576040517f08c379a0000000000000000000000000000000000000000000000000000000008152600401612293906139c3565b60405180910390fd5b6000805b6007600086815260200190815260200160002060010154811015612512573373ffffffffffffffffffffffffffffffffffffffff166007600087815260200190815260200160002060030182815481106122fd576122fc613eda565b5b9060005260206000200160000160009054906101000a900473ffffffffffffffffffffffffffffffffffffffff1673ffffffffffffffffffffffffffffffffffffffff161480156123b457506001600381111561235d5761235c613eab565b5b60076000878152602001908152602001600020600301828154811061238557612384613eda565b5b9060005260206000200160000160149054906101000a900460ff1660038111156123b2576123b1613eab565b5b145b156124815760026007600087815260200190815260200160002060030182815481106123e3576123e2613eda565b5b9060005260206000200160000160146101000a81548160ff0219169083600381111561241257612411613eab565b5b02179055506001935060076000868152602001908152602001600020600001543373ffffffffffffffffffffffffffffffffffffffff167ff4db4a6db849d33dce31520731c0d45d564dd4c9b3b229f6ad98c38bca4df50b876040516124789190613a43565b60405180910390a35b6002600381111561249557612494613eab565b5b6007600087815260200190815260200160002060030182815481106124bd576124bc613eda565b5b9060005260206000200160000160149054906101000a900460ff1660038111156124ea576124e9613eab565b5b14156124ff5781806124fb90613dd5565b9250505b808061250a90613dd5565b9150506122a0565b508060076000868152602001908152602001600020600201819055506000600160076000878152602001908152602001600020600101546125539190613b7d565b60646001846125629190613b7d565b61256c9190613c04565b6125769190613bd3565b905060338111156125ff5760016007600087815260200190815260200160002060040160006101000a81548160ff02191690831515021790555060076000868152602001908152602001600020600001547fc42e0ad09cebfe463c535cc49c0f56c31a36ecbbdf57f9f540479ca592e0ff2e866040516125f69190613a43565b60405180910390a25b600760008681526020019081526020016000206001015482111561262657612625613e1e565b5b6126456007600087815260200190815260200160002060000154612a6f565b505050919050565b60007f01ffc9a7000000000000000000000000000000000000000000000000000000007bffffffffffffffffffffffffffffffffffffffffffffffffffffffff1916827bffffffffffffffffffffffffffffffffffffffffffffffffffffffff1916149050919050565b600033905090565b6126c98282611a33565b612758576126ee8173ffffffffffffffffffffffffffffffffffffffff166014612e2b565b6126fc8360001c6020612e2b565b60405160200161270d9291906136e7565b6040516020818303038152906040526040517f08c379a000000000000000000000000000000000000000000000000000000000815260040161274f9190613821565b60405180910390fd5b5050565b6127668282611a33565b61283857600180600084815260200190815260200160002060000160008373ffffffffffffffffffffffffffffffffffffffff1673ffffffffffffffffffffffffffffffffffffffff16815260200190815260200160002060006101000a81548160ff0219169083151502179055506127dd6126b7565b73ffffffffffffffffffffffffffffffffffffffff168173ffffffffffffffffffffffffffffffffffffffff16837f2f8788117e7eff1d82e926ec794901d17c78024a50270940304540a733656f0d60405160405180910390a45b5050565b6128468282611a33565b1561291a5760006001600084815260200190815260200160002060000160008373ffffffffffffffffffffffffffffffffffffffff1673ffffffffffffffffffffffffffffffffffffffff16815260200190815260200160002060006101000a81548160ff0219169083151502179055506128bf6126b7565b73ffffffffffffffffffffffffffffffffffffffff168173ffffffffffffffffffffffffffffffffffffffff16837ff6391f5c32d9c69d2a47ea670b442974b53935d1edc7fd64eb21e047a839171b60405160405180910390a45b5050565b6129266113a0565b612965576040517f08c379a000000000000000000000000000000000000000000000000000000000815260040161295c90613863565b60405180910390fd5b60008060006101000a81548160ff0219169083151502179055507f5db9ee0a495bf2e6ff9c91a7834c1ba4fdd244a5e8aa4e537bd38aeae4b073aa6129a86126b7565b6040516129b59190613721565b60405180910390a1565b6129c9828261275c565b5050565b6129d56113a0565b15612a15576040517f08c379a0000000000000000000000000000000000000000000000000000000008152600401612a0c90613923565b60405180910390fd5b60016000806101000a81548160ff0219169083151502179055507f62e78cea01bee320cd4e420270b5ea74000d11b0c9f74754ebdbfc544b05a258612a586126b7565b604051612a659190613721565b60405180910390a1565b6000600660008381526020019081526020016000206002015490506000600660008481526020019081526020016000206002018190555080600860006006600086815260200190815260200160002060000160009054906101000a900473ffffffffffffffffffffffffffffffffffffffff1673ffffffffffffffffffffffffffffffffffffffff1673ffffffffffffffffffffffffffffffffffffffff1681526020019081526020016000206000828254612b2b9190613b7d565b925050819055506006600083815260200190815260200160002060000160009054906101000a900473ffffffffffffffffffffffffffffffffffffffff1673ffffffffffffffffffffffffffffffffffffffff167f2b9404a9e57ab83c3b7d7e391bb91444736d3eccc00bd4e47683236484c37cbc8383604051612bb0929190613a5e565b60405180910390a25050565b600080600080600080600190505b6004548111612dd457600060058281548110612be957612be8613eda565b5b9060005260206000209060020201600001541115612dc15760058181548110612c1557612c14613eda565b5b906000526020600020906002020160000154935060058181548110612c3d57612c3c613eda565b5b906000526020600020906002020160010160009054906101000a900473ffffffffffffffffffffffffffffffffffffffff169250606484612c7e9190613bd3565b95508584612c8c9190613c5e565b93508585612c9a9190613b7d565b9450600060058281548110612cb257612cb1613eda565b5b9060005260206000209060020201600001819055508160058281548110612cdc57612cdb613eda565b5b906000526020600020906002020160010160006101000a81548173ffffffffffffffffffffffffffffffffffffffff021916908373ffffffffffffffffffffffffffffffffffffffff1602179055508273ffffffffffffffffffffffffffffffffffffffff166108fc859081150290604051600060405180830381858888f19350505050158015612d71573d6000803e3d6000fd5b508273ffffffffffffffffffffffffffffffffffffffff167fd44d0a8152caef0fd63878c2c127c887569bbfbe0330cebb69e61cc0d4f0dee185604051612db89190613a43565b60405180910390a25b8080612dcc90613dd5565b915050612bca565b5060006004819055503373ffffffffffffffffffffffffffffffffffffffff166108fc859081150290604051600060405180830381858888f19350505050158015612e23573d6000803e3d6000fd5b505050505050565b606060006002836002612e3e9190613c04565b612e489190613b7d565b67ffffffffffffffff811115612e6157612e60613f09565b5b6040519080825280601f01601f191660200182016040528015612e935781602001600182028036833780820191505090505b5090507f300000000000000000000000000000000000000000000000000000000000000081600081518110612ecb57612eca613eda565b5b60200101907effffffffffffffffffffffffffffffffffffffffffffffffffffffffffffff1916908160001a9053507f780000000000000000000000000000000000000000000000000000000000000081600181518110612f2f57612f2e613eda565b5b60200101907effffffffffffffffffffffffffffffffffffffffffffffffffffffffffffff1916908160001a90535060006001846002612f6f9190613c04565b612f799190613b7d565b90505b6001811115613019577f3031323334353637383961626364656600000000000000000000000000000000600f861660108110612fbb57612fba613eda565b5b1a60f81b828281518110612fd257612fd1613eda565b5b60200101907effffffffffffffffffffffffffffffffffffffffffffffffffffffffffffff1916908160001a905350600485901c94508061301290613d7a565b9050612f7c565b506000841461305d576040517f08c379a000000000000000000000000000000000000000000000000000000000815260040161305490613843565b60405180910390fd5b8091505092915050565b600061307a61307584613af1565b613acc565b9050808382526020820190508285602086028201111561309d5761309c613f3d565b5b60005b858110156130cd57816130b388826130d7565b8452602084019350602083019250506001810190506130a0565b5050509392505050565b6000813590506130e6816142eb565b92915050565b6000813590506130fb81614302565b92915050565b600082601f83011261311657613115613f38565b5b8135613126848260208601613067565b91505092915050565b60008135905061313e81614319565b92915050565b60008135905061315381614330565b92915050565b60008135905061316881614347565b92915050565b60006020828403121561318457613183613f47565b5b6000613192848285016130d7565b91505092915050565b6000602082840312156131b1576131b0613f47565b5b60006131bf8482850161312f565b91505092915050565b600080604083850312156131df576131de613f47565b5b60006131ed8582860161312f565b92505060206131fe858286016130d7565b9150509250929050565b60006020828403121561321e5761321d613f47565b5b600061322c84828501613144565b91505092915050565b60006020828403121561324b5761324a613f47565b5b600061325984828501613159565b91505092915050565b600080600080600060a0868803121561327e5761327d613f47565b5b600061328c88828901613159565b955050602061329d88828901613159565b94505060406132ae88828901613159565b935050606086013567ffffffffffffffff8111156132cf576132ce613f42565b5b6132db88828901613101565b92505060806132ec888289016130ec565b9150509295509295909350565b600061330583836136a9565b60408301905092915050565b61331a81613ca4565b82525050565b61332981613c92565b82525050565b61333881613c92565b82525050565b600061334982613b2d565b6133538185613b50565b935061335e83613b1d565b8060005b8381101561338f57815161337688826132f9565b975061338183613b43565b925050600181019050613362565b5085935050505092915050565b6133a581613cb6565b82525050565b6133b481613cc2565b82525050565b6133c381613d35565b82525050565b60006133d482613b38565b6133de8185613b61565b93506133ee818560208601613d47565b6133f781613f4c565b840191505092915050565b600061340d82613b38565b6134178185613b72565b9350613427818560208601613d47565b80840191505092915050565b6000613440602083613b61565b915061344b82613f5d565b602082019050919050565b6000613463601483613b61565b915061346e82613f86565b602082019050919050565b6000613486601483613b61565b915061349182613faf565b602082019050919050565b60006134a9601c83613b61565b91506134b482613fd8565b602082019050919050565b60006134cc601b83613b61565b91506134d782614001565b602082019050919050565b60006134ef600f83613b61565b91506134fa8261402a565b602082019050919050565b6000613512601983613b61565b915061351d82614053565b602082019050919050565b6000613535601083613b61565b91506135408261407c565b602082019050919050565b6000613558602583613b61565b9150613563826140a5565b604082019050919050565b600061357b600d83613b61565b9150613586826140f4565b602082019050919050565b600061359e602a83613b61565b91506135a98261411d565b604082019050919050565b60006135c1601583613b61565b91506135cc8261416c565b602082019050919050565b60006135e4601c83613b61565b91506135ef82614195565b602082019050919050565b6000613607601783613b72565b9150613612826141be565b601782019050919050565b600061362a601983613b61565b9150613635826141e7565b602082019050919050565b600061364d603583613b61565b915061365882614210565b604082019050919050565b6000613670601183613b72565b915061367b8261425f565b601182019050919050565b6000613693602f83613b61565b915061369e82614288565b604082019050919050565b6040820160008201516136bf6000850182613320565b5060208201516136d260208501826133ba565b50505050565b6136e181613d2b565b82525050565b60006136f2826135fa565b91506136fe8285613402565b915061370982613663565b91506137158284613402565b91508190509392505050565b6000602082019050613736600083018461332f565b92915050565b600061012082019050613752600083018c613311565b61375f602083018b613311565b61376c604083018a6136d8565b61377960608301896136d8565b61378660808301886136d8565b61379360a08301876136d8565b6137a060c08301866136d8565b6137ad60e083018561339c565b6137bb6101008301846136d8565b9a9950505050505050505050565b600060208201905081810360008301526137e3818461333e565b905092915050565b6000602082019050613800600083018461339c565b92915050565b600060208201905061381b60008301846133ab565b92915050565b6000602082019050818103600083015261383b81846133c9565b905092915050565b6000602082019050818103600083015261385c81613433565b9050919050565b6000602082019050818103600083015261387c81613456565b9050919050565b6000602082019050818103600083015261389c81613479565b9050919050565b600060208201905081810360008301526138bc8161349c565b9050919050565b600060208201905081810360008301526138dc816134bf565b9050919050565b600060208201905081810360008301526138fc816134e2565b9050919050565b6000602082019050818103600083015261391c81613505565b9050919050565b6000602082019050818103600083015261393c81613528565b9050919050565b6000602082019050818103600083015261395c8161354b565b9050919050565b6000602082019050818103600083015261397c8161356e565b9050919050565b6000602082019050818103600083015261399c81613591565b9050919050565b600060208201905081810360008301526139bc816135b4565b9050919050565b600060208201905081810360008301526139dc816135d7565b9050919050565b600060208201905081810360008301526139fc8161361d565b9050919050565b60006020820190508181036000830152613a1c81613640565b9050919050565b60006020820190508181036000830152613a3c81613686565b9050919050565b6000602082019050613a5860008301846136d8565b92915050565b6000604082019050613a7360008301856136d8565b613a8060208301846136d8565b9392505050565b6000608082019050613a9c60008301876136d8565b613aa960208301866136d8565b613ab660408301856136d8565b613ac3606083018461339c565b95945050505050565b6000613ad6613ae7565b9050613ae28282613da4565b919050565b6000604051905090565b600067ffffffffffffffff821115613b0c57613b0b613f09565b5b602082029050602081019050919050565b6000819050602082019050919050565b600081519050919050565b600081519050919050565b6000602082019050919050565b600082825260208201905092915050565b600082825260208201905092915050565b600081905092915050565b6000613b8882613d2b565b9150613b9383613d2b565b9250827fffffffffffffffffffffffffffffffffffffffffffffffffffffffffffffffff03821115613bc857613bc7613e4d565b5b828201905092915050565b6000613bde82613d2b565b9150613be983613d2b565b925082613bf957613bf8613e7c565b5b828204905092915050565b6000613c0f82613d2b565b9150613c1a83613d2b565b9250817fffffffffffffffffffffffffffffffffffffffffffffffffffffffffffffffff0483118215151615613c5357613c52613e4d565b5b828202905092915050565b6000613c6982613d2b565b9150613c7483613d2b565b925082821015613c8757613c86613e4d565b5b828203905092915050565b6000613c9d82613d0b565b9050919050565b6000613caf82613d0b565b9050919050565b60008115159050919050565b6000819050919050565b60007fffffffff0000000000000000000000000000000000000000000000000000000082169050919050565b6000819050613d06826142d7565b919050565b600073ffffffffffffffffffffffffffffffffffffffff82169050919050565b6000819050919050565b6000613d4082613cf8565b9050919050565b60005b83811015613d65578082015181840152602081019050613d4a565b83811115613d74576000848401525b50505050565b6000613d8582613d2b565b91506000821415613d9957613d98613e4d565b5b600182039050919050565b613dad82613f4c565b810181811067ffffffffffffffff82111715613dcc57613dcb613f09565b5b80604052505050565b6000613de082613d2b565b91507fffffffffffffffffffffffffffffffffffffffffffffffffffffffffffffffff821415613e1357613e12613e4d565b5b600182019050919050565b7f4e487b7100000000000000000000000000000000000000000000000000000000600052600160045260246000fd5b7f4e487b7100000000000000000000000000000000000000000000000000000000600052601160045260246000fd5b7f4e487b7100000000000000000000000000000000000000000000000000000000600052601260045260246000fd5b7f4e487b7100000000000000000000000000000000000000000000000000000000600052602160045260246000fd5b7f4e487b7100000000000000000000000000000000000000000000000000000000600052603260045260246000fd5b7f4e487b7100000000000000000000000000000000000000000000000000000000600052604160045260246000fd5b600080fd5b600080fd5b600080fd5b600080fd5b6000601f19601f8301169050919050565b7f537472696e67733a20686578206c656e67746820696e73756666696369656e74600082015250565b7f5061757361626c653a206e6f7420706175736564000000000000000000000000600082015250565b7f52657175657374204944206e6f742076616c6964000000000000000000000000600082015250565b7f44656c697665727920697320616c726561647920617070726f76656400000000600082015250565b7f496e76616c6964207061727469636970616e7473206e756d6265720000000000600082015250565b7f44657461696c73206d697373696e670000000000000000000000000000000000600082015250565b7f4e6f20616d6f756e7420746f2062652077697468647261776e00000000000000600082015250565b7f5061757361626c653a2070617573656400000000000000000000000000000000600082015250565b7f4f6e6c792063616e2062652063616e63656c656420627920746865207265717560008201527f6573746572000000000000000000000000000000000000000000000000000000602082015250565b7f456d707479206164647265737300000000000000000000000000000000000000600082015250565b7f457468657220616d6f756e74206d75737420746f20626520677265617465722060008201527f7468616e207a65726f2e00000000000000000000000000000000000000000000602082015250565b7f50726f706f73616c204944206e6f742076616c69640000000000000000000000600082015250565b7f50726f706f73616c20697320616c726561647920617070726f76656400000000600082015250565b7f416363657373436f6e74726f6c3a206163636f756e7420000000000000000000600082015250565b7f44656c6976657279206973206e6f7420617070726f7665642e00000000000000600082015250565b7f44656c697665727920697320616c726561647920415050524f5645442e20437260008201527f656174652063616e63656c2070726f706f73616c2e0000000000000000000000602082015250565b7f206973206d697373696e6720726f6c6520000000000000000000000000000000600082015250565b7f416363657373436f6e74726f6c3a2063616e206f6e6c792072656e6f756e636560008201527f20726f6c657320666f722073656c660000000000000000000000000000000000602082015250565b600481106142e8576142e7613eab565b5b50565b6142f481613c92565b81146142ff57600080fd5b50565b61430b81613ca4565b811461431657600080fd5b50565b61432281613cc2565b811461432d57600080fd5b50565b61433981613ccc565b811461434457600080fd5b50565b61435081613d2b565b811461435b57600080fd5b5056fea26469706673582212207b0e914095dac8fc3dcf683c3c9ea99ddd1b62d2469a54293ac86fc74dbd43d064736f6c63430008050033",
  "immutableReferences": {},
  "source": "// SPDX-License-Identifier: MIT\npragma solidity >=0.8.5 <0.9.0;\n\nimport \"@openzeppelin/contracts/security/Pausable.sol\";\nimport \"@openzeppelin/contracts/access/AccessControl.sol\";\n\n/**\n * @title EthDeliverer\n * @dev Given an amount of ethers deposited in this contract, it will be sent in installments to a given address automatically.\n * It will be necessary the participation of between two and ten additional addresses so that they will be in charge of authorize any change proposal\n * related to the initially established distribution.\n */\ncontract EthDeliverer is Pausable, AccessControl {\n\n    /* Roles definition */\n    bytes32 public constant PAUSER_ROLE = keccak256(\"PAUSER_ROLE\");\n    bytes32 public constant CREATOR_ROLE = keccak256(\"CREATOR_ROLE\");\n    bytes32 public constant PARTICIPANT_ROLE = keccak256(\"PARTICIPANT_ROLE\");\n\n    uint public constant BLOCKS_PER_MONTH = 192000;\n\n    /**\n     *  Deliveries will be sent weekly\n     **/\n    enum ParticipantStatus{\n        NOT_USED,\n        PENDING,\n        APPROVED,\n        ACTIVE\n    }\n\n    struct ParticipantDetails {\n        address participantAddress;\n        ParticipantStatus participantStatus;\n    }\n\n    struct Delivery {\n        address payable requester;\n        address payable beneficiary;\n        uint amountToSend;\n        uint numInitialBlock;\n        uint nextBlockControl;\n        uint numPeriods;\n        uint numRemainingPeriods;\n        bool isApproved;\n        uint numParticipants;\n        ParticipantDetails[] participants;\n        //mapping (uint => mapping(address => ParticipantStatus)) participants;\n    }\n\n    struct CancelProposal {\n        uint deliveryId;\n        uint numParticipants;\n        uint numParticipantsAccepted;\n        ParticipantDetails[] participants;\n        bool isAccepted;\n    }\n\n    struct Installments {\n      uint insAmount;\n      address payable insBeneficiary;\n    }\n\n    uint public numDeliveriesDetails;\n    uint public numCancelProposals;\n    uint public numInstallments;\n\n    Installments[] installments;\n\n    mapping (uint => Delivery) public deliveriesDetails;\n    mapping (uint => CancelProposal) public cancelProposals;\n    mapping (address => uint) public pendingWithdrawals;\n\n    event deliveryCreated(address indexed requester, uint requestId);\n    event participantApproved(address indexed requester, uint requestId, address indexed participant);\n    event deliveryApproved(address indexed requester, uint requestId, address indexed participant);\n    event pendingWithdrawal(address indexed requester, uint requestId, uint amount);\n    event withdrawalSent(address indexed requester, uint amount);\n    event participantProposalAccepted(address indexed participant, uint indexed deliveryId, uint proposalId);\n    event proposalAccepted(uint indexed deliveryId, uint proposalId);\n    event installmentSent(address indexed beneficiary, uint amount);\n\n    constructor() {\n        _setupRole(DEFAULT_ADMIN_ROLE, msg.sender);\n        _setupRole(PAUSER_ROLE, msg.sender);\n        numDeliveriesDetails = 0;\n        numCancelProposals = 0;\n    }\n\n    function pause() public onlyRole(PAUSER_ROLE) {\n        _pause();\n    }\n\n    function unpause() public onlyRole(PAUSER_ROLE) {\n        _unpause();\n    }\n\n    // How many months from now will start the\n    function createDeliveryRequest(uint _numMonthsToStart, uint _numPeriods, uint _numParticipants, address[] memory _listParticipants, address payable _beneficiary)\n        public\n        payable\n        whenNotPaused\n        returns(uint requestId) {\n\n        require(msg.value > 0, \"Ether amount must to be greater than zero.\");\n        require(_numMonthsToStart > 0 && _numPeriods > 0, \"Details missing\");\n        require(_numParticipants >= 2 && _numParticipants <= 10, \"Invalid participants number\");\n\n        for (uint i = 0; i < _numParticipants; i++) {\n            require(_listParticipants[i] != address(0), \"Empty address\");\n        }\n\n        numDeliveriesDetails++;\n        requestId = numDeliveriesDetails;\n        Delivery storage deli = deliveriesDetails[requestId];\n\n        deli.requester = payable(msg.sender);\n        deli.amountToSend = msg.value;\n        deli.numInitialBlock = block.number + (_numMonthsToStart * BLOCKS_PER_MONTH);\n        deli.nextBlockControl = deli.numInitialBlock;\n        deli.numPeriods = _numPeriods;\n        deli.numRemainingPeriods = _numPeriods;\n        deli.isApproved = false;\n        deli.numParticipants = _numParticipants;\n        deli.beneficiary = _beneficiary;\n\n        for (uint i = 0; i < _numParticipants; i++) {\n            deli.participants.push();\n            deli.participants[i].participantAddress = _listParticipants[i];\n            deli.participants[i].participantStatus = ParticipantStatus.PENDING;\n            _setupRole(PARTICIPANT_ROLE, _listParticipants[i]);\n        }\n\n        _setupRole(CREATOR_ROLE, msg.sender);\n        emit deliveryCreated(deli.requester, requestId);\n    }\n\n    function getParticipantsDelivery(uint requestId) public view returns(ParticipantDetails[] memory listParticipants) {\n        listParticipants = deliveriesDetails[requestId].participants;\n    }\n\n    // A participant approves its participation in a automation process. Once all the participants have done this, the automation is activated:\n    function approveParticipation(uint requestId) public whenNotPaused onlyRole(PARTICIPANT_ROLE) returns(bool isParticipantApproved) {\n        require(deliveriesDetails[requestId].amountToSend > 0, \"Request ID not valid\");\n        require(!deliveriesDetails[requestId].isApproved, \"Delivery is already approved\");\n\n        uint counterApproved = 0;\n\n        for (uint i = 0; i < deliveriesDetails[requestId].numParticipants; i++) {\n\n            if (deliveriesDetails[requestId].participants[i].participantAddress == msg.sender &&\n                deliveriesDetails[requestId].participants[i].participantStatus == ParticipantStatus.PENDING) {\n                deliveriesDetails[requestId].participants[i].participantStatus = ParticipantStatus.APPROVED;\n                isParticipantApproved = true;\n                emit participantApproved(deliveriesDetails[requestId].requester, requestId, msg.sender);\n            }\n\n            if (deliveriesDetails[requestId].participants[i].participantStatus == ParticipantStatus.APPROVED) {\n                counterApproved++;\n            }\n        }\n\n        if (counterApproved == deliveriesDetails[requestId].numParticipants) {\n            deliveriesDetails[requestId].isApproved = true;\n            emit deliveryApproved(deliveriesDetails[requestId].requester, requestId, msg.sender);\n        }\n\n        assert(counterApproved <= deliveriesDetails[requestId].numParticipants);\n    }\n\n    // Check that the delivery is not approved (is still a request)\n    // Only the requester can cancel the delivery\n    // Include the amount in the pendingWithdrawals map (Common Patterns - Withdrawal from Contracts)\n    function cancelDeliveryRequest(uint requestId) public whenNotPaused onlyRole(CREATOR_ROLE) {\n        require(!deliveriesDetails[requestId].isApproved, \"Delivery is already APPROVED. Create cancel proposal.\" );\n        require(deliveriesDetails[requestId].requester == msg.sender, \"Only can be canceled by the requester\");\n\n        cancelDelivery(requestId);\n    }\n\n    function cancelDelivery(uint requestId) internal {\n        uint amount = deliveriesDetails[requestId].amountToSend;\n        deliveriesDetails[requestId].amountToSend = 0;\n        pendingWithdrawals[ deliveriesDetails[requestId].requester ] += amount;\n\n        emit pendingWithdrawal(deliveriesDetails[requestId].requester, requestId, amount);\n    }\n\n    // Common Patterns - Withdrawal from Contracts\n    function withdraw() public payable whenNotPaused {\n        require(pendingWithdrawals[msg.sender] > 0, \"No amount to be withdrawn\");\n\n        uint amount = pendingWithdrawals[msg.sender];\n        // Remember to zero the pending refund before\n        // sending to prevent re-entrancy attacks\n        pendingWithdrawals[msg.sender] = 0;\n        payable(msg.sender).transfer(amount);\n\n        emit withdrawalSent(msg.sender, amount);\n    }\n\n    function amountWithdraw() public view returns(uint amount) {\n        amount = pendingWithdrawals[msg.sender];\n    }\n\n    //As the delivery has been already approved, it is necessary to create a proposal that have to be accepted by,\n    //at least, 51% of participants\n    function createCancelProposalDeliveryApproved(uint requestId) public whenNotPaused onlyRole(CREATOR_ROLE) returns(uint proposalId) {\n        require(deliveriesDetails[requestId].isApproved, \"Delivery is not approved.\" );\n        require(deliveriesDetails[requestId].requester == msg.sender, \"Only can be canceled by the requester\");\n\n        numCancelProposals++;\n        proposalId = numCancelProposals;\n\n        CancelProposal storage prop = cancelProposals[proposalId];\n        prop.deliveryId = requestId;\n        prop.numParticipants = deliveriesDetails[requestId].numParticipants;\n        prop.numParticipantsAccepted = 0;\n        prop.isAccepted = false;\n\n        for (uint i = 0; i < deliveriesDetails[requestId].numParticipants; i++) {\n            prop.participants.push();\n            prop.participants[i].participantAddress = deliveriesDetails[requestId].participants[i].participantAddress;\n            prop.participants[i].participantStatus = ParticipantStatus.PENDING;\n        }\n\n        //....crear la propuesta con los mismo datos de Delivery pero reemplazando solo el nuevo valor\n        //....una vez aprobada la propuesta, los nuevos valores reemplazan los antiguos (salvo el requester y amount)\n        //....en todo caso, se volvera a poner la peticin como pending, que es cuando se podr cancelar\n    }\n\n    function getParticipantsCancelProposal(uint proposalId) public view returns(ParticipantDetails[] memory listParticipants) {\n        listParticipants = cancelProposals[proposalId].participants;\n    }\n\n    // A participant accepts on a proposal to cancel a previously approved delivery. Once more than half of the participants have accepted it, it is canceled:\n    function approveCancelProposal(uint proposalId) public whenNotPaused onlyRole(PARTICIPANT_ROLE) returns(bool isProposalApproved) {\n        require(cancelProposals[proposalId].numParticipants > 0, \"Proposal ID not valid\");\n        require(!cancelProposals[proposalId].isAccepted, \"Proposal is already approved\");\n\n        uint counterAccepted = 0;\n\n        for (uint i = 0; i < cancelProposals[proposalId].numParticipants; i++) {\n\n            if (cancelProposals[proposalId].participants[i].participantAddress == msg.sender &&\n                cancelProposals[proposalId].participants[i].participantStatus == ParticipantStatus.PENDING) {\n                cancelProposals[proposalId].participants[i].participantStatus = ParticipantStatus.APPROVED;\n                isProposalApproved = true;\n                emit participantProposalAccepted(msg.sender, cancelProposals[proposalId].deliveryId, proposalId);\n            }\n\n            if (cancelProposals[proposalId].participants[i].participantStatus == ParticipantStatus.APPROVED) {\n                counterAccepted++;\n            }\n        }\n\n        cancelProposals[proposalId].numParticipantsAccepted = counterAccepted;\n\n        uint percentage = ((counterAccepted + 1) * 100) / (cancelProposals[proposalId].numParticipants + 1);\n\n        if (percentage > 51) {\n            cancelProposals[proposalId].isAccepted = true;\n            emit proposalAccepted(cancelProposals[proposalId].deliveryId, proposalId);\n        }\n\n        assert(counterAccepted <= cancelProposals[proposalId].numParticipants);\n\n        cancelDelivery(cancelProposals[proposalId].deliveryId);\n    }\n\n    function deliveryAutomation() public whenNotPaused {\n\n        uint checkPoint = block.number;\n\n        for (uint ind = 1; ind <= numDeliveriesDetails; ind++) {\n\n            if (deliveriesDetails[ind].amountToSend > 0 &&\n                deliveriesDetails[ind].nextBlockControl > checkPoint) {\n\n                numInstallments++;\n                if (deliveriesDetails[ind].numRemainingPeriods == 1) {\n                  installments[numInstallments].insAmount = deliveriesDetails[ind].amountToSend;\n                } else {\n                  installments[numInstallments].insAmount = deliveriesDetails[ind].amountToSend / deliveriesDetails[ind].numRemainingPeriods;\n                }\n                installments[numInstallments].insBeneficiary = deliveriesDetails[ind].beneficiary;\n\n                deliveriesDetails[ind].amountToSend = deliveriesDetails[ind].amountToSend - installments[numInstallments].insAmount;\n                deliveriesDetails[ind].numRemainingPeriods = deliveriesDetails[ind].numRemainingPeriods - 1;\n                deliveriesDetails[ind].nextBlockControl = deliveriesDetails[ind].nextBlockControl + BLOCKS_PER_MONTH;\n            }\n\n        }\n\n        transferInstallments();\n    }\n\n    function transferInstallments() internal {\n\n      uint _tip;\n      uint _totalTip;\n      uint _amount;\n      address payable _beneficiary;\n      address payable _addressZero = payable(address(0));\n\n      for (uint ind = 1; ind <= numInstallments; ind++) {\n\n        if (installments[ind].insAmount > 0) {\n          _amount = installments[ind].insAmount;\n          _beneficiary = installments[ind].insBeneficiary;\n\n          _tip = (_amount / 100);\n          _amount = _amount - _tip;\n          _totalTip += _tip;\n\n          installments[ind].insAmount = 0;\n          installments[ind].insBeneficiary = _addressZero;\n\n          _beneficiary.transfer(_amount);\n\n          emit installmentSent(_beneficiary, _amount);\n        }\n      }\n      numInstallments = 0;\n\n      payable(msg.sender).transfer(_totalTip);\n    }\n}\n",
  "sourcePath": "/home/lealp22/consensys/final-project/contracts/EthDeliverer.sol",
  "compiler": {
    "name": "solc",
    "version": "0.8.5+commit.a4f2e591.Emscripten.clang"
  },
  "schemaVersion": "3.4.3",
  "updatedAt": "2021-11-29T23:22:00.684Z",
  "networkType": "ethereum",
  "devdoc": {
    "details": "Given an amount of ethers deposited in this contract, it will be sent in installments to a given address automatically. It will be necessary the participation of between two and ten additional addresses so that they will be in charge of authorize any change proposal related to the initially established distribution.",
    "kind": "dev",
    "methods": {
      "getRoleAdmin(bytes32)": {
        "details": "Returns the admin role that controls `role`. See {grantRole} and {revokeRole}. To change a role's admin, use {_setRoleAdmin}."
      },
      "grantRole(bytes32,address)": {
        "details": "Grants `role` to `account`. If `account` had not been already granted `role`, emits a {RoleGranted} event. Requirements: - the caller must have ``role``'s admin role."
      },
      "hasRole(bytes32,address)": {
        "details": "Returns `true` if `account` has been granted `role`."
      },
      "paused()": {
        "details": "Returns true if the contract is paused, and false otherwise."
      },
      "renounceRole(bytes32,address)": {
        "details": "Revokes `role` from the calling account. Roles are often managed via {grantRole} and {revokeRole}: this function's purpose is to provide a mechanism for accounts to lose their privileges if they are compromised (such as when a trusted device is misplaced). If the calling account had been revoked `role`, emits a {RoleRevoked} event. Requirements: - the caller must be `account`."
      },
      "revokeRole(bytes32,address)": {
        "details": "Revokes `role` from `account`. If `account` had been granted `role`, emits a {RoleRevoked} event. Requirements: - the caller must have ``role``'s admin role."
      },
      "supportsInterface(bytes4)": {
        "details": "See {IERC165-supportsInterface}."
      }
    },
    "title": "EthDeliverer",
    "version": 1
  },
  "userdoc": {
    "kind": "user",
    "methods": {},
    "version": 1
  }
}